:020000040000fa
:080000000002040000000000f2
:020000040000fa
:100400002fcd2000007f24000001880000000000a4
:100410000a00070011000700000020000000e000b3
:10042000020032000000020000000000c635020099
:10043000000000000040da000000fe004440a90077
:10044000c01c20000000e00003003200000020007b
:10045000a00188004440a8000000060020a6230058
:10046000010020001500370062004000e0804800d5
:10047000910188009001ba0062004000e0804800cd
:10048000910188009002ba0062004000e0804800bc
:100490000002eb006028e10004003a000059eb0084
:1004a0008301e900fdff3e00040037006128e10000
:1004b000010032000082eb00050007009101880076
:1004c0001001ba000200e000e7ff3a00000005005a
:1004d000910188008002780062004000e0804800be
:1004e0003559ba008301e900080032002559ba00e5
:1004f0008301e900050032000400e000f4ff32004f
:1005000015d9ba008301e900f1ff3a0000000600a6
:10051000be3e040000000000203f04000000000078
:100520005c3e0400000000005e3f0400000000008c
:10053000762f040000000000502f0400000000008f
:10054000a802040000000000d60204000000000021
:10055000881f7800020478005c0107000800400052
:100560004f047800000006000000fa00881f7800a1
:10057000000478003fb99700ea81570080007800b6
:10058000802a200058010700800078000000e00069
:10059000020035000040eb0000f478000100780014
:1005a0004f0478000080fa000000060090017800f7
:1005b0000200e00002003a000308e90005003700ed
:1005c0008080eb001304e000020032000308e80022
:1005d0009300fb0001007800000006000200fa0012
:1005e000f0bf9f003fb99700ea8157008f80e90074
:1005f000602d2000f50107000080fa0000000600d1
:1006000080007800010037000000e8001004e000de
:10061000fdff3a000100500000000600ec87470093
:10062000889fbe008a9fbe008c9fbe008e1f7800f0
:10063000f0b79f0081bf9f0082047800000478001b
:10064000010037000804e800184778000e00fb009e
:10065000a60207000000e000faff3a00d0c2b30093
:10066000804f57000500320000c0e900804f57005e
:100670000200320000477800010037000804e8005b
:100680000900e00045003500e18f540043003200ce
:1006900040022000808f540040003c000900e00030
:1006a0000e003400f08f54001a003a0000c3b3006b
:1006b000984f100016003a009840900080c7b30091
:1006c00080cf50000300320080c5b30080cf5000bf
:1006d0000f003a000884e8000e003700a90020004f
:1006e00000c3b300984f10000a003a0098409000f1
:1006f00080c7b30080cf5000040032008900200082
:1007000080c5b30080cf500002003a000884e800a2
:100710000901200008057800010037000a05e800fb
:1007200000c3b3009a4f1000fcff32008a05780026
:100730006066b8000e00370070a82000004252002a
:10074000c4ef9f006149b9000c00be00320b0700e6
:100750004fea97000401fb00cf91de008b05e80013
:10076000ccb79f00ddb79f0000064100818649009d
:100770001b00fb006502070080007800090178007b
:1007800070a8200068020700000278000000e00066
:10079000e9ff3a008b0f540006003a000fb89700ab
:1007a0000000e00029003200ffb097000108780047
:1007b000260037008a80550020a6200060c07c00fb
:1007c0000000fb0000805000160033004240a900ea
:1007d0000f003c004fe997000200fb00cf80de00d5
:1007e0000000560081805e00800f5600818f5e0001
:1007f000070039006149b9000d0b07004fb19700a0
:10080000dfb19700820f5000838f5800050032003f
:1008100020022000705e88000086eb008086eb00de
:1008200005003700d0c2b300804f570002003a00e5
:1008300060061600e0861e008fb997000300e000f6
:10084000030032008b097800010037006066b800b1
:100850000c00be004f0778004f06be004f05be00db
:100860004f04be00cf00b10000000600889fbe000c
:10087000e30440000900a100808f54004a003600c4
:10088000e38f540001003e0049002000125e80000a
:100890000200e00002003200820078000c00370005
:1008a00041bc200003003700908f54002300360025
:1008b0008080e800110078000000e000faff3a00b4
:1008c0000f003700908f54001c0036008080e80035
:1008d000110078000000e000faff3a0012017800f1
:1008e00041bc200003003700908f540013003600f5
:1008f0008080e80011007800820f5000faff3a0073
:10090000085e8000890f540001003100090478005e
:1009100008007800140207000000e00004003a001c
:10092000890f5400200032000804d100f5ff370081
:100930000818780031000700d4ff37001101780053
:100940009201780064805100890f5000030031004b
:10095000120090008008780007003700090041006d
:100960008008780092019000130098001100780030
:100970001288140009097800910078000100e00055
:1009800005003200110090000000e000020032007b
:100990000180e800010037000000eb00105e8800d5
:1009a0000280e800010037000000eb004f04be00a9
:1009b00000000600000478000600370082004100b5
:1009c000405e8000e10078000200e800305e8800b0
:1009d00001000100325e8000505e8000800f5100f7
:1009e000f6ff390060af2000405e88002002200042
:1009f000505e880008007800ce0807000000e00084
:100a0000310032008080e90091027800e38f5200cb
:100a10002d0036000508a3002b003a00225e80005e
:100a20000200e00002003200828f5000040031001a
:100a300002087800215e8800160037000301780064
:100a4000920190000300e00002003200818f51000b
:100a5000faff39001202780004004100808f500034
:100a600019003900810f500003003a0005094200c7
:100a700082007800070037000300e0000300320026
:100a800005804000808f51000f00390093009800ce
:100a900011019800110190000200e0000a003200ec
:100aa00011804000820f500007003a0020bc200057
:100ab0000008eb001100900011017800900841003f
:100ac0001000900090009800000006008001eb00ec
:100ad0000200370061f079008301e800828f510045
:100ae000fcff3a00000006006200fa00889fbe008a
:100af0008a9fbe000004be000205780083007800d3
:100b000060f92f000f0040009e01070088979f00aa
:100b100099979f000000eb00a09f9f009a457800e6
:100b20000b80fb000000ea00cf04de0050c2b300df
:100b300080cf550002003200090478000100370020
:100b40000904e9000800e0000b0034001f90970042
:100b5000080178008a0078008f9197000300010057
:100b600090979f000000e000930032002f989700bc
:100b700000004400a09f9f000905450050c2b3003b
:100b800080cf5500040032000b04e000e3ff3a0080
:100b90002f989700890037000000eb00809f9f008e
:100ba000f0979f00e0979f00d0979f00c0979f000d
:100bb000b0979f00c09f9f0009003700e0b8200059
:100bc000008050000000400021b82000e1007800c3
:100bd0004f98970001007000c09f9f000a05e80031
:100be0001a4478008800fb00e0b820006a01070082
:100bf000800078000000e000f0ff3a00a0c2b300df
:100c0000804f54000e003a00bf8897000180e90031
:100c1000b08f9f0010007800b09f9f000000e000a0
:100c200005003d000000ea00b09f9f004f9897002c
:100c30000020a000c09f9f000a05e80010003700b8
:100c4000b19f9f0009003700bf989700f0ff270071
:100c5000808f5000040032006a08b9000000410093
:100c600003004000b09f9f000a05e8001a01fb0046
:100c700003fd2f0003004100e90f5000f2ff360092
:100c8000e0c2b3009a4f1000040032000080eb0075
:100c9000909f9f008a0478001c0037008a04e800b7
:100ca000a0c2b300994f100007003a00bf88970018
:100cb0000180e900b08f9f0010007800909f9f0096
:100cc0008a84e800110037000000eb00909f9f002d
:100cd000090037009f989700f0ff2700808f500091
:100ce000040032006a08b90000004100030040001f
:100cf000909f9f008904e8001901fb0003fd2f006d
:100d000003004100e90f5000f2ff3600194478005b
:100d10008800fb0020bb20001f0107000000e0004e
:100d200002003a0000447800010037008904e8001e
:100d3000a87f9f0080c6b300804f540004003a0093
:100d4000994f14000a003a00664050000600370030
:100d5000c0c6b300804f540005003a00994f1400fc
:100d600003003a0065404000a07f9f008904e8002e
:100d70000905e800cbfb2f008f8545001901fb001a
:100d800060f92f000f0040000084e8008b0178001c
:100d90008000780008007800080107000000e000eb
:100da00005003a008b007800080078004602070032
:100db0000000e00059ff3d000080eb004f05be0041
:100dc0004f04be000080fa00000006001200fa0086
:100dd000889fbe008a9fbe008c1f780002047800a6
:100de000a0b79f00b1b79f008300780078805700bc
:100df000e40007000000eb00e0b79f00d8b79f00b9
:100e000000067800dfb49700194578000a80fb00df
:100e10000000ea00cf05de000a00fb00b300070077
:100e20000000e0001a0032006fb097000000e800f8
:100e3000e0b79f003fb09700120020008000eb0059
:100e4000afb197000300010000047800a70007007d
:100e5000000178000000e000f3ff3a006fb0970057
:100e6000e10f4400070032000000e900e0b79f00f6
:100e70003fb0970088007800afb1970003000100f1
:100e8000230037000000e900e0b79f002000370092
:100e900050c2b300804f5500020032000b047800ae
:100ea000190037000b04e900170037006fb09700f6
:100eb0000000e800e0b79f003fb09700120020005c
:100ec0008000eb00afb197000300010080007800c4
:100ed0001900fb00808f50000a003200e18f4000b3
:100ee0007c0032006fb097000000e900e0b79f007f
:100ef0003fb097000001eb00afb197000300010085
:100f0000740037008904e8000804e900e7ff3b00ab
:100f10005fb0970080804500d1b79f0050c2b300fa
:100f2000804f5500030032000a04e000b5ff3a008c
:100f300068003700a2c2b3000040eb00914f1100df
:100f400003003a000100e800d0b79f00024078009b
:100f5000a0f79f000000eb0080bf9f000b00370050
:100f60008fb89700f0ff2700808f500004003200f8
:100f70006a08b900000041000300400080bf9f00e4
:100f80005fb097000000e800d0b79f00dfb4970083
:100f9000194478000801fb0003fd2f000300410005
:100fa000e90f5000eeff36008200780040b92000c3
:100fb000790007000000e00002003a0000447800d9
:100fc000020037000900e800d0b79f00b8f79f0083
:100fd00080c6b300804f540005003a00dfb0970090
:100fe000914f14000c003a00664050000700370093
:100ff000c0c6b300804f540007003a00dfb097002e
:10100000914f140004003a0065404000b0f79f0083
:101010000100e800d0b79f005fb097009000fb0090
:10102000b0b920005c0007000000e00019003a00a1
:101030006fb097000000e800e0b79f003fb0970056
:10104000120020008000eb00afb197000300010008
:101050000004780025000700000178000000e0008f
:10106000f3ff3a006fb09700e10f44000700320031
:101070000000e900e0b79f003fb0970088007800cb
:10108000afb1970003000100020037000000e90043
:10109000e0b79f007c805700550207000000e00089
:1010a00003003c000c00e00009003200090037009a
:1010b0004ff097000004e000010032000c06e80049
:1010c0005fb097000000e800d0b79f004dff3700e9
:1010d000000678000c0078004f0678004f05be002f
:1010e0004f04be000080fa00000006006900e10025
:1010f000040035006d00e100030034000002b1007f
:10110000010032000000050010000500800078009a
:101110001104b100030035009101b10001003c0051
:101120000050a000000006008001eb000400370022
:101130008301e80090cf1000040032000000e800b6
:10114000828f5100faff3a000000eb000000060019
:10115000605e80000000e00001003200000001003d
:10116000e0bc2000000006000000e00003003400a6
:10117000f8060700e10f400001003a000000eb0014
:10118000000006000200fa00f1bf9f00010878008d
:101190000080fa0000000600040037000204e000ae
:1011a00001003a00000005000000e800104178004e
:1011b000814f5100f9ff3a0000000600889fbe00f1
:1011c0008a1f7800000478000102780082447800c9
:1011d00003057800e0c6b300804f5100d200320012
:1011e00015003c006b405000804f5100240032003d
:1011f0000a003c0070405000804f51000f01320047
:1012000065404000804f51007400320050c2b3006e
:10121000804f510020013a001c01370040c6b30046
:10122000804f51001b00320065404000804f51004c
:1012300019013a001700370030c7b300804f510042
:10124000fe00320007003c0064405000804f510017
:10125000620032000040e800804f51000e013a0069
:10126000e700370050c7b300804f51005b003200e9
:1012700063404000804f510007013a00570037009b
:101280009180e900010a780078009000917178005f
:1012900007013700a8609000c0c6b30080cf50009f
:1012a0000a003a009400780064805000000a780038
:1012b0001000be004f89de00cf91de000002be00ac
:1012c00002037800820378001300370010c7b300d0
:1012d00080cf500003003200a0c6b30080cf500082
:1012e00006003a009400780068805000000a7800f8
:1012f0003002be002003be00070037001480e90062
:10130000000a78001000780000027800cfa2de000a
:101310000503780086037800049cbe000694be0096
:10132000a860900080c6b30080cf50000e0032004d
:1013300020c6b30080cf500005003a000400fb0037
:10134000cf80de0001017800820178000a003700ba
:1013500040c7b30080cf5000030032006640400019
:1013600080cf500006003a0004007800cf80de00f5
:101370000101780082017800009cbe000294be004a
:101380003800be002801be00e00f5000e08f58007a
:10139000e00f5900e08f590003003d0078009000f5
:1013a000d1c2b3000a003700081090000018a30053
:1013b0000300320078009000b1c2b300040037008f
:1013c0000008a300530032007800900001c2b3006f
:1013d000017578000000e8004d003700a86090001b
:1013e000c0c6b30080cf500006003a0094007800d9
:1013f00064805000000a78001002be006033b8001c
:101400001300370010c7b30080cf50000300320034
:10141000a0c6b30080cf500006003a0094007800c8
:1014200068805000000a78003002be002003be0031
:10143000070037001480e900000a780010007800e7
:1014400000027800050020000600200007002000b0
:10145000049cbe000694be00a860900080c6b30045
:1014600080cf50000e00320020c6b30080cf500065
:1014700005003a000480fb0001002000020020006b
:10148000030020000a00370040c7b30080cf50009f
:10149000030032006640400080cf500006003a0052
:1014a000040078000100200002002000030020005a
:1014b000009cbe000294be00081090000038a300fb
:1014c000140032003800be002801be00e00f5000ba
:1014d000e08f5800e00f5900e08f59000d003200f6
:1014e00080c7b30080cf54000300320080c5b30032
:1014f00080cf540007003a007800900001c3b30089
:10150000017578008000e80009f578000080e800a7
:101510007004980078009000000045006004980076
:101520008940780042003700a8609000c0c6b30030
:1015300080cf5000250032000a003c00644050007b
:1015400080cf50002800320000c0e80080cf50005b
:10155000140032006840500080cf500022003a0052
:101560000a00370040c7b30080cf50001e00320091
:101570006640400080cf50001b00320069405000a0
:1015800080cf500018003a00060037001480e900b0
:10159000000a780010007800485c90000848780045
:1015a000450037001480e900000a78001002780036
:1015b00068089000cf80de00010178008201780089
:1015c000009abe000292be003b0037001480e90082
:1015d000000a78001001780068089000cf80de00d3
:1015e0000089be00340037001480e900000a78004a
:1015f00010007800680c9000080878002e00370072
:101600001180e9008008780010007800cf80de00ab
:101610000101780082017800009cbe000294be00a7
:1016200078009000000045006004980081c7b30076
:1016300008007800850107001f0037001480e900ca
:10164000000a7800100078006004980058099000a3
:101650000200e00002003d00e9fb0700090037003e
:101660008000eb00b0fe0700800078000000e00082
:101670000300320068009000008050000100370035
:1016800058089000100c98000b003700780090006c
:101690000275780006003700780090008000450051
:1016a0000904e00001003a0059c2b30089487800fb
:1016b0000000e800700498000000eb004f0578007f
:1016c0004f04be00000006000400fa00889fbe0020
:1016d0008a9fbe008c1f7800000478000106780005
:1016e00070089000f80090000100500088089000f9
:1016f000010050009808900001005000a8089000d8
:1017000001005000b808900001005000c808900087
:10171000810550000002220090bf9f0000032300bb
:10172000a0bf9f00081090000028a30018003a00f6
:101730000b00e000160034008b04780009057800e7
:10174000e28f5400020036002a0020000200370019
:101750000900e0000b00340058009000c801900020
:101760000a017800ee805700030001005004980041
:101770000000e0009600320068089000000045007c
:10178000600c98008a8454004240a900ebff3c00a2
:10179000780190000200e0000b0034005800900037
:1017a000c80190008c0078000300010050049800ec
:1017b0000000e0008600320068089000f800900009
:1017c00001004000600c9800880c90000900e000c7
:1017d0001500340009057800e28f5400020036003d
:1017e0002a002000020037000900e0000b0034004e
:1017f00058009000c80190000a017800ec80570062
:1018000003000100500498000000e0007000320066
:101810006808900000004500600c98008a8454001d
:101820004240a900ebff3c00180990000200e000d4
:101830000b003400e800900058009000c8019000b0
:1018400003000100500498000000e0006000320036
:10185000680890009808900001004000600c980013
:10186000a80c90000900e00015003400090578007c
:10187000e28f5400020036002a00200002003700e8
:101880000900e0000b00340058009000c8019000ef
:101890000a017800ec805700030001005004980012
:1018a0000000e0004a003200680890000000450097
:1018b000600c98008a8454004240a900ebff3c0071
:1018c000380990000200e0000d003400e8009000ac
:1018d000180890008080400058009000c8019000d7
:1018e00003000100500498000000e00038003200be
:1018f00068089000b808900001004000600c980053
:10190000c80c90000900e0001500340009057800bb
:10191000e28f5400020036002a0020000200370047
:101920000900e0000b00340058009000c80190004e
:101930000a017800ec805700030001005004980071
:101940000000e0002200320068089000000045001e
:10195000600c98008a8454004240a900ebff3c00d0
:10196000081090000028a3001b0032000b00e000cc
:10197000190034008b04780009057800e28f5400c8
:10198000020036002a002000020037000900e000b3
:101990000b00340058009000c80190000a01780044
:1019a000ee80570003000100500498000000e000a2
:1019b000070032006808900000004500600c9800a5
:1019c0008a8454004240a90003003400eaff370033
:1019d0000080eb00010037000000eb004f067800ac
:1019e0004f05be004f04be000080fa000000060054
:1019f000881f7800000478000040eb000054980035
:101a0000380090009040780090c6b30080cf50001e
:101a10002a00320013003c007140500080cf50007b
:101a20002600320005003c0050c2b30080cf5000b9
:101a30006400320030c5b3001b00370030c6b3006d
:101a400080cf50001b0032000040e80080cf5000e3
:101a50001a0032006940500080cf50006e003a00fa
:101a60007300370000c7b30080cf500007003c0070
:101a70000040e90080cf500010003d000040e90028
:101a800080cf500064003a000f00370050c7b30009
:101a900080cf5000090032006340400080cf5000ea
:101aa000060032006540500080cf500043003200f5
:101ab000590037008000eb005e0037000800780016
:101ac0001a0107005f003700684890000004e0003a
:101ad0005b003a00f8489000c0c6b30080cf5000c9
:101ae000270032000a003c006440500080cf5000c4
:101af0002b00320000c0e80080cf500015003200fb
:101b00006840500080cf500025003a000a0037009e
:101b100040c7b30080cf5000210032006640400033
:101b200080cf50001e0032006940500080cf50002e
:101b30001b003a0007003700280090000080e900f1
:101b40002004980010007800084c900008487800a5
:101b50003b003700280090000080e9002004980036
:101b60001002780048009000cf80de00010178006c
:101b700082017800009abe000292be003000370059
:101b8000280090000080e9002004980010017800ef
:101b900048009000cf80de000089be00280037009a
:101ba000280090000080e9002004980010007800d0
:101bb0004804900008087800210037001100200038
:101bc0001c003700480090000000e8004004980026
:101bd0001800900098017800120020008000eb00af
:101be000030001008000780050022000808f500028
:101bf0001300320048009000e18f400008003200de
:101c00000000e90040049800180090009801780056
:101c10000001eb00030001000000eb0009003700a9
:101c20000000e9004004980001007800050037003a
:101c30008080eb00080078001502070001003700e3
:101c4000100020004f04780000000600ef02b000f2
:101c5000889fbe008a9fbe008c9fbe008e1f7800aa
:101c60000006780010b72000c0b79f0080c5b30001
:101c700080cf50000800320002b62000c2b79f009b
:101c80007740400080cf500003003a0083002000de
:101c9000b3b79f000a00370080c7b30080cf500061
:101ca00005003200a4002000b4b79f0080c5b30037
:101cb00080cf500002003a0000012000b0b79f0022
:101cc0003c04be002c05be0040c6b30080cf5000cf
:101cd000030032006540400080cf50000b003a0006
:101ce000e00f5400e08f5c00e00f5d00e08f5d00ce
:101cf00006003d006000b8006011b8000804500004
:101d0000898458000a0559008b855900e00f54005a
:101d1000e08f5c00e00f5d00e08f5d0004003a00a2
:101d20005c0890008d0120000000e0000c003200f3
:101d3000bfb0970001027800cfa2de000503780053
:101d4000860378000800be000a01be0049060700ad
:101d50004fb2970064407800d0df9f007d012000e3
:101d60003fb0970000027800cfa2de0005037800a4
:101d7000860378000800be000a01be003606070090
:101d8000009ebe000296be000d00e90061fc2f001f
:101d90008f804000008740001e0037003fb1970051
:101da00002047800cfc4de00090578008a057800b7
:101db0000802be000a03be007fa897008fb09700fc
:101dc0001fb19700afb197002e060700d0b79f0054
:101dd000e1b79f00f2b79f0083bf9f008d06e90027
:101de0000802be000a03be00ac0607007faa9700e7
:101df00000005200cfb09700615778005fb09700a5
:101e0000efb097007fb197008fb99700009ebe009a
:101e10000296be003c00be002c01be00f0af9f0049
:101e200081b79f0092b79f00a3b79f00e00f5000bb
:101e3000e08f5800e00f5900e08f59000200340095
:101e40000d00e000d5ff3c00bfb09700e88f5000c8
:101e500010003a000c1090000038a3000d00320072
:101e6000f78f560006003e0062fc2f000f01410074
:101e70008d00410000c3b300914f100005003200f7
:101e80008d06e90000c3b30063fc2f008f81410081
:101e900080f17e0078811600120e98006c00900090
:101ea00063fc2f008f8141008d80410007fb0700fc
:101eb0001c0990005c089000800f510006003d0056
:101ec00002005000000e98000c1090000040a1008d
:101ed000001698000f0037000000e0000d003d00e4
:101ee0000c10900074006000f00f500009003a00e0
:101ef0007c089000fc009000010050008c089000cd
:101f000001005000020050004240a90001003400ce
:101f1000000e98004f0778004f06be004f05be0028
:101f20004f04be00ef02b100000006002f02b00017
:101f3000889fbe008a9fbe008c9fbe008e1f7800c7
:101f400080047800600090000000e00001003c0088
:101f5000f0ff27000000e900d0049800c9009000bd
:101f60000c0033000100e800c00498001900900044
:101f700099017800120020008000eb0003000100ae
:101f800000057800b0022000800f550006003a00de
:101f90000b0037000100e800c00498002cfd2f0062
:101fa0000f0646001b003700d0022000800f5500ae
:101fb000030032002cfd2f000f06460016003700ec
:101fc00030fd2f000f044000aad79f005900900059
:101fd0000000e900d0049800c90090000a00330016
:101fe0000100e800c00498001900900099017800f1
:101ff000120020008000eb000300010000057800c3
:1020000008067800040037000100e800c0049800ca
:10201000080678000085eb0018b420003900900015
:102020009000fb00080078005bfc070008005000ef
:10203000a1b32000614478008805fb000003200064
:10204000800f550033003a00590090000000e9006d
:10205000d0049800c90090000c0033000100e80093
:10206000c004980019009000990178001200200027
:102070008000eb00030001000005780080072000cd
:10208000800f550005003a00070037000100e80006
:10209000c00498000085eb001b003700800520007d
:1020a000800f550018003a000804e00002003200da
:1020b000f04f54001d003a00590090000000e90064
:1020c000d0049800c9009000090033000100e80026
:1020d000c0049800190090009901780012002000b7
:1020e0008000eb00030001000005780003003700ca
:1020f0000100e800c00498000085eb000047eb00f9
:102100000b012000110037000804e000b800320085
:10211000060037000047eb000804e00004003a0026
:10212000ad002000084778001c0037001ec0b30037
:10213000ad002000ea4f540018003200e88f55002f
:1021400002003a008b067800140037006d01200071
:1021500012003700590090000000e900d0049800f8
:10216000c9009000090033000100e800c004980095
:102170001900900099017800120020008000eb0007
:102180000300010000057800030037000100e800ab
:10219000c00498000085eb001ec0b30000032000bf
:1021a000800f5500ebff32000e04e00018003200f3
:1021b000005e7800160037006f805700800f5600d1
:1021c000010031000a5e7800590090000000e9002b
:1021d000d0049800c9009000090033000100e80015
:1021e000c0049800190090009901780012002000a6
:1021f0008000eb00030001000005780003003700b9
:102200000100e800c00498000085eb001ec0b30088
:10221000e10f4500070032000d0178008a007800c8
:1022200090b42000c0fb07000000e000e2ff3a008d
:1022300066003700490090000000e900c0049800e3
:102240000e04e00008003a0020fd2f000f004000bf
:10225000800f56005b003a00e10f450059003a003c
:102260008a00780065003700004eeb006948900056
:10227000110020000004e00060003a0039009000e6
:102280009040780040c6b30080cf50000300320079
:102290006540400080cf50000a003a000b017800f2
:1022a0008000eb0020fd2f000f00400065010700bb
:1022b0000203be000002be0010c0b30080549800ac
:1022c0000d0037000b0178008000eb0020fd2f008f
:1022d0000f004000b50107000203be000002be006f
:1022e00010c0b30080549800b900900000c7b3003c
:1022f000914f10002c003200f9489000c0c6b30086
:1023000080cf5000220032000a003c0064405000a0
:1023100080cf50002400320000c0e80080cf500081
:10232000140032006840500080cf50001e003a0078
:102330000a00370040c7b30080cf50001a003200b7
:102340006640400080cf50001700320069405000c6
:1023500080cf500014003a0006003700290090009a
:102360000080e900a004980010007800044878007c
:1023700012003700290090000080e900a0049800b6
:10238000100078000498be000690be000b003700d5
:10239000290090000080e900a00498001000780057
:1023a0000488be0005003700290090000080e90085
:1023b000a0049800100078000408780011002000a4
:1023c0000e0037008000eb000c0037004900900041
:1023d0000000e900c00498001900900099017800fd
:1023e0000001eb008a0078000300010094ff370031
:1023f0001ec0b3008b00200052ff370001007800a0
:102400004f0778004f06be004f05be004f04be00c8
:102410002f02b10000000600800178001000370094
:102420000302e800d0c2b300944f100008003a0045
:1024300093cf100003003e002340900080cf500057
:10244000120036006382410063015100030037002f
:1024500093cf10000d0032000201e90084017800e2
:10246000e20f5100eeff3e000002eb0004003700d7
:1024700064c079000402e800814f5000030032007c
:10248000820f5200faff3a0000000500100005001c
:10249000f0874700889fbe008a9fbe008c9fbe00c9
:1024a0008e1f780000047800810678000000eb00a1
:1024b000c0b79f00f8489000c0c6b30080cf50005e
:1024c00002003a0011002000c1b79f000d00e0009b
:1024d00023003d00b80090000100e800300498009f
:1024e000e2c5b3008041eb0083f79f00904f1100dd
:1024f00003003a000180e8003004980082f79f0052
:10250000b8049000d0c5b300994f1000020032000b
:1025100009007800010037000900e800d10520001b
:102520001dfb0700d0b79f008000eb000000e0001b
:10253000bd00320009065000e20f560008003400ca
:102540000c81e9000900e800d1022000f6fa07003a
:1025500011c0b300c1ef9f000000e00002003a008c
:102560008041eb00c3ef9f00680090000000e00096
:1025700004003c00f0ff27000d00e00001003a00dd
:102580001000200050049800684890000004e0000b
:102590000d003a0028009000cfb097000100e00045
:1025a000050032000080e900200498001000780047
:1025b000b0b79f00040037000080e90020049800b5
:1025c00010007800f0b79f000045eb005e00370078
:1025d0000d00e0000300340009007800c3fa070092
:1025e0001e0037000d00e0001e003200cfe997000a
:1025f0000304e0000c003a00380090008ff09700d0
:102600000104e00004003a000c0178008900780021
:10261000c5fa07000b0037000c017800890078002c
:10262000c1fa07000d003700380090008ff19700c5
:102630000304e00006003a000c01780089007800ed
:1026400075ff07000000e00006003a006d0037004b
:102650000c017800890078006fff07000000e0009f
:1026600068003a004fb097000000e00009003a000f
:10267000684890000004e00032003a00ffb0970084
:1026800089587800f1b79f0010c0b300005498003b
:102690002c003700c9e79f008905fb000b0078007c
:1026a0000100320010002000000578001e0020000c
:1026b0000000e00016003a000904e00004003a00bf
:1026c0007c805700cef707000005e80010003700b7
:1026d0000e07e900fc81570063407f008000fb008b
:1026e00048019000e14f4000070032000200e9007d
:1026f0004004980018009000980178000001eb0059
:1027000003000100020037000200e90040049800c5
:102710008e0f5500eeff3500684890000004e00081
:1027200005003a003fb097000b187800b0b79f0043
:1027300010c0b30000549800680090000000e90049
:10274000600498002ac0b300580090000000e9001f
:1027500050049800480190000b0033000200e8008c
:1027600040049800180090009801780012002000a2
:102770008000eb000300010080047800e10f4000be
:1027800093ff3a00020037000200e800400498007e
:10279000480090000000e900400498000d00e000af
:1027a00002003200e24f5500040032000a00fb0034
:1027b0008080eb001c003200100037006848900059
:1027c0000004e00009003a00cfb097000100e000eb
:1027d00003003200bfb197008009eb00030037000f
:1027e0008fe897007fb09700014878000d00e00067
:1027f00002003d00dfb19700330498001100200073
:1028000009003700480090000000e90040049800eb
:1028100018009000980178000001eb008900780012
:1028200003000100ddff3700010078004f0778004a
:102830004f06be004f05be004f04be000f01b100a1
:10284000000006000200fa00889fbe008a9fbe00ba
:102850008c1f78008005780001057800020678005a
:102860000100e00001003a006c8557000b0478007d
:10287000010037000804e800984478000900fb00d4
:102880001afa07000000e000faff3a00d0c2b300d5
:1028900080cf54000500320000c0e90080cf540012
:1028a0000200320080447800010037000804e8008c
:1028b0000c0178008a007800080078003b000700cf
:1028c0000203be000002be009a0f540001003a004d
:1028d0000b0d78009a8f550005003a00e00f52006a
:1028e000e08f5a00e00f5b00e08f5b0014003a00bd
:1028f000b0c2b30080cf540006003a00e00f52008f
:10290000e08f5a00e00f5b00e08f5b0020003d008d
:102910000b003700d0c2b30080cf54001c003a0037
:102920006000b80002002000030028000020e10041
:1029300001a8e10002b0e10003b8e1000e0036009a
:1029400020022000705e88006b40400080cf540061
:1029500004003a006000b8000200200003002800d4
:102960000d003700f0ff2f00f1ff2f00f2ff2f00c6
:10297000f3ff2700080037006000b8006011b800be
:1029800004025000858258000603590087835900cd
:102990000400be000601be004f0678004f05be00d1
:1029a0004f04be000080fa0000000600fc874700cc
:1029b000889fbe008a9fbe008c9fbe008e1f78003d
:1029c000000778008106780082047800000478000f
:1029d000010037000804e800184678000c00fb00ee
:1029e000c2f907000000e000faff3a00d0c2b300cd
:1029f000804f56000500320000c0e900804f5600ad
:102a00000200320000467800010037000804e800a8
:102a10000900e00005003500e18f5400030032009a
:102a200040022000808f5400040034000d00e000bc
:102a3000b00032008e0e7800ae0037000900e000d2
:102a40000e003400f08f54001a003a0000c3b300a7
:102a5000984f100016003a009840900080c7b300cd
:102a600080cf50000300320080c5b30080cf5000fb
:102a70000f003a000884e8000e003700a90020008b
:102a800000c3b300984f10000a003a00984090002d
:102a900080c7b30080cf50000400320089002000be
:102aa00080c5b30080cf500002003a000884e800df
:102ab0000901200008057800010037000a05e80038
:102ac00000c3b3009a4f1000fcff32008a05780063
:102ad0006022b8006033b8002600370010ad200037
:102ae00080c0500081ef9f0009027800cfa2de0075
:102af00005037800860378000fb097009fb0970019
:102b00002fb19700bfb1970064030700d0b79f00b3
:102b1000e1b79f00f2b79f0083bf9f000fe89700c7
:102b20000002fb00cfa2de000503780086037800d8
:102b30008b05e8000fb097009fb097002fb197006a
:102b4000bfb19700c0af9f00d1af9f00e2af9f0021
:102b5000f3af9f005fb09700efb097007fb1970091
:102b60008fb997000002420081824a0002034b00a5
:102b700083834b0084b79f0095b79f00a6b79f0043
:102b8000b7b79f001b00fb0060f9070080007800ca
:102b90000901780010ad200063f90700800078007b
:102ba0000000e000cdff3a008b0f54000a003a000d
:102bb0000d00e0004f0032008e0e78006022b80059
:102bc0006033b80084b79f0095b79f00a6b79f00f9
:102bd000b7b79f004d0037008a805500c0aa20007b
:102be00060c07c000000fb00008050002c0033001f
:102bf0004240a90020003c008fea97000500fb003e
:102c0000cf80de0001017800820178000fb29700ca
:102c10009fb297002fb39700bfb3970000005200f8
:102c200081805a0002015b0083815b000020e1008b
:102c300001a8e10002b0e10003b8e1000e00390094
:102c400009027800cfa2de00050378008603780031
:102c5000810207004faa9700dfaa97006fab970089
:102c6000ffab97000400e1000588e1000690e10059
:102c70000798e1000a00320020022000705e880000
:102c8000f0ff2f00f1ff2f000001be0080b79f0072
:102c900091b79f00a2b79f00b3b79f001100370004
:102ca000d0c2b300804f56000e003a006000b8005a
:102cb0006011b8000fb297009fb297002fb3970032
:102cc000bfb39700040250008582580006035900e4
:102cd0008783590084b79f0095b79f00a6b79f00d0
:102ce000b7b79f000d00e000080032008b0e78009f
:102cf000060037006000b8006011b80080b79f0080
:102d000091b79f00a2b79f00b3b79f000fb0970085
:102d10009fb097002fb19700bfb197004f07780081
:102d20004f06be004f05be004f04be00cf01b100ec
:102d3000000006002002e20004003d002342ab0038
:102d4000020032002302ab00feff32000040da0036
:102d5000feff3700889fbe00800478009c08e200d8
:102d600004003a000000eb00100007000000e00043
:102d70000a003500e04480000900e00002003a004b
:102d800000047800060037000004780009004000c5
:102d9000060007000000e00001003d000084eb0099
:102da000080078004f04be00000006008000780094
:102db0000000e00004003a0020bd2000e04488004c
:102dc00001017800060037000081eb0020cd2000d3
:102dd000808f500002003e00e14488000001eb00bb
:102de0000200780000000600889fbe008a9fbe0097
:102df0008c1f78001a0107002101330003866c0044
:102e00006450e100240032006420e1002700320019
:102e10006150e100220032006120e1002100320017
:102e20008b854200eb07b1000134b800003ab800ce
:102e30000804420089844a00013ab8000030b80012
:102e40008880400009014a0004003300000040006f
:102e500081804800020149008b05e900c909dd00b5
:102e6000830170000100320013002000c814de004e
:102e70004814dd004709de001200b200c808de0079
:102e8000088470000e01070001f0a1000cf0a700fb
:102e900001f0a000030137006120e10005013200cc
:102ea0000801be000200be00f7ff37006150e100dc
:102eb000fcff3a00ff0037000001be0026010700ba
:102ec0000470a70003f0a10003f8a30013003a0068
:102ed0006509b10010003200090035006928e100e1
:102ee000020035000100280000000500000040003d
:102ef000818048008502e900fcff3a0000000600de
:102f0000f88f4200050035008100d1000080d30019
:102f10008502e800fcff3a00000006008000eb009c
:102f200000000500889fbe008a9fbe000105780052
:102f30000100e0000400350008003c000000e00053
:102f4000200032000500370060001000e08018000b
:102f500002003b0001f02c001a0037000004be0004
:102f60006011b8006b0920000982cf00020039000f
:102f70000882cf000441b000694252000e003200c6
:102f800008003b0082817100610164008904d10066
:102f90000884d3008b05e8000442e800f9ff3a00fa
:102fa000050037000804440089844c008b05e900c3
:102fb0000442e900fbff3a00c10007000af0a70045
:102fc00001f0a0004f05be004f04be000000060047
:102fd00003f0a200889fbe008a9fbe008c1f78006d
:102fe0009f000700a60033006450e1004f0032004c
:102ff0006420e1005200320003826c0007003b00b5
:103000000905d0000306d000820f54000c065d00b5
:1030100002003900020032008901780003067800be
:103020008582550004003d000003fd008103fd0082
:103030008502ea008b854200840f720002003b008b
:1030400060001000e08018006011b8000005eb007f
:103050007a28e1000a00390006007800c75ddd002b
:10306000f707b200878075002d003700828171005c
:103070000a017800610560008180d1000080d300e2
:103080008502e900f9ff3b00060440008784480000
:1030900002003b0060041400e0841c000988a300c7
:1030a000070032008a817100828171006101640031
:1030b0008904d1000884d3008b05e800170037008d
:1030c0000978a30013003a000b00e000130034005d
:1030d0008b05e9000804440089844c000a4474000c
:1030e0000978a3000d003a000b00e000070034004f
:1030f0008b05e9000804440089844c0001003a0073
:103100000b0020000978a300f7ff32000001eb005c
:1031100002003700828171000a0178006800070010
:103120000cf0a70001f0a0005e0037006420e10071
:1031300002003a00838f6c005e0033000801be007d
:103140000200be0057003700f4ff2f009700370041
:103150001400200095003700889fbe008a9fbe00a3
:103160008c1f78003e0007004500330003866c008a
:103170006450e1002e0032006420e1003300320090
:103180006150e1002f0032006120e1003100320087
:1031900085855500eb07b0000900200008042000d9
:1031a000050037000804440089844c000a003100ff
:1031b0000603430087834b000001530081815b00bd
:1031c000f8ff33000203be000800a000080444001a
:1031d00089844c00f6ff3900c639dd008301730095
:1031e00001003200130020008904d1000884d300bc
:1031f0000998a300050032000800a7000300a00002
:103200008904d1000884d3008b05e8008904d1002b
:103210000884d3000001eb000281d20028000700df
:1032200001f0a1000cf0a70001f0a0001d00370084
:103230006420e1001f0032000801be000200be0051
:10324000f7ff37006120e1001a0032006000b8008b
:10325000f3ff37000000200001f82700f0ff3700df
:103260000004be003c0007000003be000405be00d1
:103270000200be0038000700844f75000000060001
:103280000200be006450e100050036006420e10049
:10329000020036000968a30001003a000800be00e1
:1032a0000160a0004f0678004f05be004f04be002d
:1032b00000000600f0ff2f00f1ff2700f9ff3700a4
:1032c00081002000618055000b003d000b002000b4
:1032d00061fe2f000100e1001d00340082817100b9
:1032e000610164008904d1000884d3000000e80073
:1032f000faff3a00710020006100640003007000d2
:10330000020060000900320061044400e0844c00c7
:103310000988a500050032008b05e8006808e10077
:1033200002003a008904d1000884d300f20f200083
:103330000258e10005003d00c75ddd00f907b2005d
:103340008980750008007800000006000bf827004f
:103350008b00780000000500c70ade00f107b2000c
:10336000f50fb20008003200e1cf42000200320047
:103370000170a00024000500810f700001003200e0
:103380000408050044000500810f700002003a00a7
:10339000140005008502e9000000400081c04800db
:1033a000fcff3b000170a00024000500889fbe00c8
:1033b0008a9fbe00841f7800a9ff07004f00780095
:1033c00011003300f0ff2f00838f6c0006003b00dc
:1033d000040565000a00a7000800370009f0a600f0
:1033e0001000200008003700820f5400838f5c001b
:1033f000030039001000200001003e000000200002
:1034000009f0a7000000ea004f05be004f04be000f
:103410000000e00000000600020ab900001bb9002d
:103420000200b80081004200810043000000060055
:103430006022b800060220000000d0008180d20087
:103440000482d2008582d2000000a0000202520055
:1034500083825a00030031000202420083824a0044
:103460000000a1000603e900f3ff3a000000060097
:10347000881f7800000478005001be004000be00a4
:10348000040040008580480006014900878149000a
:10349000009cbe000294be000400e1000588e1002b
:1034a0000690e1000798e100020031006800440046
:1034b0001008e8004f04780000000600f487470079
:1034c000889fbe008a9fbe008c9fbe008e1f780022
:1034d0000205be000004be00d4b79f00e5b79f0000
:1034e000f6b79f0087bf9f000000eb00c0b79f00aa
:1034f000b0b79f00a0b79f0090b79f0080b79f0014
:103500000d042000bfb097004fb0970000014000ad
:103510000000e0000f003d004f08de0000007100d9
:10352000c0b79f009e00070001003d001200200070
:10353000a100070001003d0012002000a6000700c6
:10354000b1000700b60007000f004000c8ff0700e9
:10355000220037004f08de0000067100ccb79f0044
:103560008f00070001003d001200200092000700bc
:1035700001003d001200200097000700a200070094
:103580000fb297009fb297002fb39700bfb3970079
:10359000a90007000000520081805a0002015b0070
:1035a00083815b0080b79f0091b79f00a2b79f0007
:1035b000b3b79f000007eb009f0007000020e10069
:1035c00001a8e10002b0e10003b8e1000100310010
:1035d0001e0020000e005600c0b79f004fb297009b
:1035e0000400e0000700350010002000010020006a
:1035f0006011b80008047000898470000a05710029
:103600008b8571008d06e900beff3a000400e000e2
:1036100003003d00820007000f00400094ff0700f8
:103620004fa897000000e00004003a000fb4970094
:103630009fb497002fb59700bfb59700940007007f
:103640004f0778004f06be004f05be004f04be0076
:103650004f01b10000000600881f7800180020000c
:10366000881f780095ff07008f87e9004f047800d6
:1036700000000600801feb0090ff07008f87e90025
:1036800000000600889fbe008a9fbe008c1f780045
:103690006e00070007003d0073000700e00f5b00ad
:1036a000e08f5b0007003d00320007000006eb00e2
:1036b000040037003400070002003d002a00070024
:1036c0001c00200072000700e3ff07000203be0099
:1036d0000002be000c00e0000100320022000700e2
:1036e0000400be000601be004f0678004f05be0074
:1036f0004f04be0000000600889fbe008a9fbe00e7
:103700008c1f78005100070005003d00560007009f
:10371000e00f5b00e08f5b0006003d000400370017
:103720001900070003003d006000b8006011b800f8
:103730001000070056000700ceff07000203be007e
:103740000002be000c00e00001003200060007008d
:103750000400be000601be004f0678004f05be0003
:103760004f04be00000006006000b8006011b80001
:1037700000003700040250008582580006035900fb
:1037800087835900000006000006eb00e00f52009e
:10379000e08f5a00e00f5b00e08f5b000000060046
:1037a0000180400090b79f000001eb008fb09700b0
:1037b0000100e000000006000200700090b79f00ca
:1037c0000180400080b79f000001eb00ffa8970038
:1037d0000100e000000006000200700080b79f00ba
:1037e000018040006faa9700cf20de00010070002a
:1037f000f0af9f0004024200250007004f18de00d2
:103800000002720000000600e4af9f0008044400bc
:1038100089844c000a054d008b854d000000060090
:103820003fb29700cfb297005fb39700efb3970016
:1038300000fe2f00000006003fb09700cfb09700b9
:103840005fb19700efb19700000006000205be00cf
:103850000004be00e00f5000e08f5800e00f590058
:10386000e08f5900000006006000b8006011b80049
:1038700008045000898458000a0559008b855900b6
:103880001c002000e00f5200e08f5a0000000600ec
:103890000800be000a01be0000000600889fbe00ae
:1038a0008a9fbe008c1f78000205be000004be0087
:1038b0000006eb00e00f5000e08f5800e00f5900c9
:1038c000e08f590007003d006000b8006011b800ab
:1038d00008045000898458000a0559008b85590056
:1038e0001c002000e00f5200e08f5a00e00f5b0048
:1038f000e08f5b0002003d000f0007000c00a200fb
:103900000800be000a01be00120007000203be004c
:103910000002be000c00e0000100320006000700bb
:103920000400be000601be004f0678004f05be0031
:103930004f04be00000006006000b8006011b8002f
:1039400004025000858258000603590087835900fd
:1039500000000600889fbe008a9fbe008c9fbe00ac
:103960000404b8000506b8008904460060854e00ce
:103970000606b8000a054600e0854e000706b800b6
:103980008b054600040eb800890446000a854e00e7
:10399000e0854d00050eb8000a0546008b854e00f7
:1039a000060eb8008b0546000416b8000a0546004e
:1039b0008b854e000516b8008b054600041eb80026
:1039c0008b0546000800be000a01be004f06be007f
:1039d0004f05be004f04be00000006000000fa00c4
:1039e00023c2bf000004a2000000fb0061006000d1
:1039f0000080fa00000006000000fa0033c2bf0099
:103a00000004a2000000fb00610060000080fa00da
:103a1000000006000000fa0021e2a9009560a9005c
:103a20009580a9008560a9008580a9000080fa0022
:103a3000000006000000fa0031e2a90097c0a900ca
:103a400097e0a90087c0a90087e0a9000080fa00dc
:103a5000000006000200fa00000f78008560a9004f
:103a60008580a9001e007800674060006740600004
:103a700067406000674060004401dd00910a20005b
:103a800091407800f0c8b30000c0600002407000b0
:103a9000a9e0b700000720001e0060004400de001f
:103aa0006740600067416000a10a200091407800f3
:103ab00080cfb30000c0600002407000aae0b700f1
:103ac0009e007800688060004300de006140600076
:103ad000614060004301dd00510920009140780001
:103ae00070cfb30000c060000240700095e0b700e6
:103af000000820001e0060004700de0061406000fa
:103b0000614060004401dd005109200091407800cf
:103b1000f0ceb30000c060000240700095e0b70036
:103b20000080fa00000006000200fa00000f780092
:103b300087c0a90087e0a9001e00780067406000e8
:103b4000674060006740600067416000310b200003
:103b50009140780080cfb30000c060000240700048
:103b6000b3e0b700000720001e0060004400de0044
:103b700067406000674060004401dd00310b2000b9
:103b800091407800f0c8b30000c0600002407000af
:103b9000b3e0b7009e007800688060004300de005c
:103ba00061406000614060004601dd007109200055
:103bb00091407800f0cbb30000c06000024070007c
:103bc00097e0b700000820001e0060004700de00fc
:103bd00061406000c700dd0097c0bf000074a10015
:103be0000140700097e0b7000080fa000000060076
:103bf0000000fa0022c2bf00614060000080fb00ac
:103c00000080fa00000006000000fa0032c2bf0087
:103c1000614060000080fb000080fa0000000600a8
:103c20000c00fa002007980031079800420798001e
:103c30000000eb00100798003e009000000f780095
:103c4000230037009e0090004e009000808f5000af
:103c5000040031001e0090000000e80010079800ea
:103c6000030037002e009000500798001d00370019
:103c7000dfff07000004e000f2ff32000000eb006d
:103c80001007980020c2bf0066406000e64f500059
:103c900007003a00311180003e00900001087800d2
:103ca0003e0090000080e8003007980005003700d3
:103cb00030118000804078001e00780001487800b4
:103cc0001e0fe8002e0090000000e9002007980079
:103cd0002e0090000000e000e5ff3a002e0090006a
:103ce000500798005e0090000080fa000000060077
:103cf0000c00fa002007980031079800420798004e
:103d00000000eb00100798003e009000000f7800c4
:103d1000230037009e0090004e009000808f5000de
:103d2000040031001e0090000000e8001007980019
:103d3000030037002e009000500798001d00370048
:103d4000b1ff07000004e000f2ff32000000eb00ca
:103d50001007980030c2bf0066406000e64f500078
:103d600007003a00b11180003e0090000108780081
:103d70003e0090000080e800300798000500370002
:103d8000b0118000804078001e0078000148780063
:103d90001e0fe8002e0090000000e90020079800a8
:103da0002e0090000000e000e5ff3a002e00900099
:103db000500798005e0090000080fa0000000600a6
:103dc0000600fa00000f78001107980022079800fb
:103dd0002e009000401188001e007800001188001d
:103de0001e009000101188000080fa0000000600fc
:103df0000600fa00000f78001107980022079800cb
:103e00002e009000c01188001e00780080118800ec
:103e10001e009000901188000080fa00000006004b
:103e20000400fa00100798001e009000000f7800b0
:103e300023c2bf00624060000004e000fcff3a00c3
:103e400020c2bf0066406000e64f500019003a00f3
:103e50000a0037001e009000100078002011880032
:103e60001e0090000080e8001007980023c2bf00e9
:103e7000624060000004e000fcff3a001e00900079
:103e8000100078000000e000f2ff3a000d0037005b
:103e90001e007800104078000000fb002011880010
:103ea0001e0fe80023c2bf00624060000004e00073
:103eb000fcff3a001e007800104078000004e0008b
:103ec000f3ff3a000080fa00000006000400fa0048
:103ed000100798001e009000000f780033c2bf004a
:103ee000624060000004e000fcff3a0030c2bf0006
:103ef00066406000e64f500019003a000a003700a3
:103f00001e00900010007800a01188001e00900094
:103f10000080e8001007980033c2bf0062406000d4
:103f20000004e000fcff3a001e0090001000780042
:103f30000000e000f2ff3a000d0037001e0078009c
:103f4000104078000000fb00a01188001e0fe80060
:103f500033c2bf00624060000004e000fcff3a0092
:103f60001e007800104078000004e000f3ff3a00e3
:103f70000080fa00000006000200fa0020c2bf0024
:103f800066406000e64f500003003a0030118000a8
:103f9000000f78000400370031118000f00f20007e
:103fa00080806000010f78001e0078000080fa0019
:103fb000000006000200fa0030c2bf006640600048
:103fc000e64f500003003a00b0118000000f780067
:103fd00004003700b1118000f00f200080806000e5
:103fe000010f78001e0078000080fa000000060033
:103ff0000200fa00000f780023c2bf006240600098
:104000000004e000fcff3a0020c2bf0066406000f0
:10401000e64f500003003a001e007800201188008f
:1040200003003700f00f20001e0060002011880000
:104030000080fa00000006000200fa00000f78007d
:1040400033c2bf00624060000004e000fcff3a00a1
:1040500030c2bf0066406000e64f500003003a00e7
:104060001e007800a011880003003700f00f200028
:104070001e006000a01188000080fa000000060009
:020000040000fa
:0200000401f009
:04000c00faff0000f7
:020000040000fa
:0200000401f009
:040010003eff0000af
:020000040000fa
:0200000401f009
:040014007fff00006a
:020000040000fa
:1000080004400000044000000440000004400000d8
:1000180004400000044000000440000004400000c8
:1000280004400000044000000440000004400000b8
:1000380004400000044000000440000004400000a8
:10004800044000000440000004400000203f00007d
:10005800be3e0000044000000440000004400000d0
:100068000440000004400000044000000440000078
:100078000440000004400000044000000440000068
:100088000440000004400000044000000440000058
:1000980004400000044000005e3f00005c3e000099
:1000a8000440000004400000044000000440000038
:1000b8000440000004400000044000000440000028
:1000c8000440000004400000044000000440000018
:1000d800044000000440000004400000f83900001b
:1000e80004400000044000000440000004400000f8
:1000f80004400000044000000440000004400000e8
:1001080004400000044000000440000004400000d7
:1001180004400000044000000440000004400000c7
:1001280004400000044000000440000004400000b7
:1001380004400000044000000440000004400000a7
:100148000440000004400000044000000440000097
:100158000440000004400000044000000440000087
:100168000440000004400000044000000440000077
:100178000440000004400000044000000440000067
:100188000440000004400000044000000440000057
:100198000440000004400000044000000440000047
:1001a8000440000004400000044000000440000037
:1001b8000440000004400000044000000440000027
:1001c8000440000004400000044000000440000017
:1001d8000440000004400000044000000440000007
:1001e80004400000044000000440000004400000f7
:0801f800044000000440000077
:020000040000fa
:1002080004400000044000000440000004400000d6
:1002180004400000044000000440000004400000c6
:1002280004400000044000000440000004400000b6
:1002380004400000044000000440000004400000a6
:10024800044000000440000004400000203f00007b
:10025800be3e0000044000000440000004400000ce
:100268000440000004400000044000000440000076
:100278000440000004400000044000000440000066
:100288000440000004400000044000000440000056
:1002980004400000044000005e3f00005c3e000097
:1002a8000440000004400000044000000440000036
:1002b8000440000004400000044000000440000026
:1002c8000440000004400000044000000440000016
:1002d800044000000440000004400000f839000019
:1002e80004400000044000000440000004400000f6
:1002f80004400000044000000440000004400000e6
:1003080004400000044000000440000004400000d5
:1003180004400000044000000440000004400000c5
:1003280004400000044000000440000004400000b5
:1003380004400000044000000440000004400000a5
:100348000440000004400000044000000440000095
:100358000440000004400000044000000440000085
:100368000440000004400000044000000440000075
:100378000440000004400000044000000440000065
:100388000440000004400000044000000440000055
:100398000440000004400000044000000440000045
:1003a8000440000004400000044000000440000035
:1003b8000440000004400000044000000440000025
:1003c8000440000004400000044000000440000015
:1003d8000440000004400000044000000440000005
:1003e80004400000044000000440000004400000f5
:0803f800044000000440000075
:020000040000fa
:104080000a0a00000d570000454c0000434f000095
:104090004d450000207400006f200000436f0000b9
:1040a00061580000204200006c750000657400003b
:1040b0006f6f000074680000206300006f6e0000e6
:1040c0006669000067750000726100007469000095
:1040d0006f6e0000000a00000d50000072650000c5
:1040e0007373000020480000202800007265000063
:1040f00074750000726e000029200000666f0000d9
:1041000072200000686500006c700000000a00006a
:104110000d500000494e0000206300006f64000055
:10412000652000003d20000025730000004f0000c6
:104130002c250000730a0000000a00000d45000055
:10414000727200006f720000207700007269000038
:1041500074740000696e0000672000005049000080
:104160004e0000004d2c0000257300000a000000e6
:104170000a0d000045720000726f000072200000fe
:104180007772000069740000746900006e670000b7
:10419000204e0000616d0000650000000a0d000067
:1041a00046720000696500006e6400006c790000d2
:1041b000206e0000616d0000652000003d200000c1
:1041c00025730000005300002c250000730a000036
:1041d000004300006f610000585f0000257300007d
:1041e000000a00000d5200006573000065740000b5
:1041f000206f00006b20000046690000726d000017
:104200007761000072650000203d0000202500005d
:10421000640000000a0d0000202200004d2c000068
:104220004e6100006d650000222000005772000002
:1042300069740000652000004e6100006d6500009b
:10424000206600006f7200002046000072690000c6
:10425000656e0000646c000079200000426c000074
:1042600075650000746f00006f7400006820000026
:104270006e6100006d650000000a00000d20000066
:10428000224e000022200000526500006164000000
:104290002061000063740000756100006c20000064
:1042a00046720000696500006e6400006c790000d1
:1042b000204200006c750000657400006f6f000004
:1042c00074680000206e0000616d00006500000051
:1042d0000a0d0000202200004f2c000023220000c5
:1042e0002057000072690000746500002023000060
:1042f00020500000494e0000206e0000756d000047
:1043000062650000720000000a0d0000202200001b
:10431000502200002052000065610000642000006f
:104320006163000074750000616c000020500000a3
:10433000494e0000206e0000756d000062650000af
:10434000720000000a0d000020220000522200002e
:10435000205300006f6600007420000072650000aa
:104360007365000074200000426c00007565000059
:10437000746f00006f740000682000006d6f000013
:10438000647500006c650000000a00000d2000004c
:10439000225300002c23000022200000577200004e
:1043a00069740000652000002320000050490000cf
:1043b0004e2000006e7500006d6200006572000006
:1043c000206100006e64000020730000616d000039
:1043d00065200000746900006d6500002043000046
:1043e0006f610000585f0000230000000a0d00000c
:1043f0007a2c0000436f00006d6d0000616e0000bc
:10440000642000006e6f000074200000666f0000e2
:08441000756e0000640000005d
:020000040000fa
:104418001800fa000000eb0020079800e08c20004c
:1044280056030700300798000000eb0010079800bb
:10443800b80037001e009000e28c20007d00b90013
:1044480066004000604079008040eb00715798009a
:104458000004e00002003a0012c0b300725798004e
:104468001e009000e28c20007d00b900670040002b
:10447800604079008040eb00615798000004e0003c
:1044880002003a0012c0b30062579800fe50900034
:104498006e51900002c060000080fb00200f980061
:1044a8001e009000e28c20007d00b90068004000ea
:1044b800604079008000eb00110f98000004e000d4
:1044c80002003a0012002000120f98002e089000f7
:1044d8009e08900001006000000f98001e009000e8
:1044e800e28c20007d00b900650040006040790042
:1044f8000001eb0072079800e84f500002003a00f4
:1045080010002000700798008e0890007e0190002f
:10451800028060000000e0007b0032001e00900076
:104528007d00b90080007800e08c20000080400009
:10453800a50307001e009000e28c20007d00b90052
:104548006800400002004000904090000040eb00ee
:10455800504f980050c6b30080cf500002003a0078
:1045680011c0b300514f98001e009000e28c20004b
:104578007d00b900690040000200400090409000b2
:104588000041eb00424f9800d0c2b30080cf5000ea
:1045980002003a0010c0b300404f9800de48900077
:1045a8004e49900002c060000080fb005007980050
:1045b8001e009000e28c20007d00b9006a004000d7
:1045c80002004000904090000000eb004007980077
:1045d80000c7b30080cf500002003a00110020004d
:1045e800410798005e019000ce0090000100610034
:1045f8000000e000440032000000eb00000f7800eb
:10460800200037002e0290009e0278001e009000c5
:104618001e017800e38c20007d00b90002004000f4
:10462800e0c17900029f20006b20b900050040001e
:1046380002004000034878002e0290009e02780095
:104648001e0090009e00780067814000e38c2000e7
:104658007d00b900020040006800400003004000ef
:104668001040900080417800029f20006b20b90024
:104678000500400002004000660040000348780042
:104688001e0fe800320020009e0f1100ddff3400ed
:104698002e009000029f20006b00b900020040002d
:1046a800ea0040000040eb0080487800400020000d
:1046b800000f78000e0037002e0290009e0278004e
:1046c8001e0090001e017800e38c20007d00b900d8
:1046d80002004000e0c17900029f20006b20b90071
:1046e8000500400002004000034878001e0fe80063
:1046f800500020009e0f1000efff34002e009000a5
:104708000000e800200798001e0090000000e80064
:10471800100798009e0090003e009000808f500087
:1047280044ff35002e0090000080fa0000000600cb
:104738000600fa00e0a520000601070034ff070084
:10474800100798001e0090000000e0000a003200e8
:10475800609f2000ae010700009f20008f03070024
:10476800004f7800e0a52000a90107001e00fb000b
:104778002007980002003700300620002007980024
:104788002e0090000080fa00000006002e00fa00bb
:10479800e400470020c0b30080487800e4004700e8
:1047a80020c5b30090409800e400470060c2b30001
:1047b800a0409800e40047000040eb00b04098009b
:1047c800e40047000040eb00c0409800e4004700c8
:1047d80080c7b300d0409800e400470030c0b30061
:1047e800e04098006400470071002000530d070066
:1047f8000000eb00100798000040eb00004f780025
:10480800000037001e009000800078006b00470011
:1048180001004000b80d07000000e000060032006b
:104828009e0090006b004700614f78001e009000ca
:104838000000e8001007980030c0b3009e4f100039
:10484800f0ff3a006b004700304090000000fb008a
:10485800e60040001e009000808f5000e9ff3c00f9
:104868001e019000eb0047000040eb0000f17800cb
:104878000000eb00100798000b0037001e019000a5
:104888001e009000e70040006b004700e140780000
:10489800900220000e004000017178001e00900078
:1048a8000000e800100798006b0047006040900087
:1048b8008000fb001e009000808f5000efff3c003e
:1048c8001e019000910220008e8040000040eb0005
:1048d80000f17800900220000e004000a2002000a5
:1048e8008000eb004bef07000080fa000000060094
:1048f8001600fa00e400470020c0b30080487800a2
:10490800e400470020c5b30090409800e400470049
:10491800a0c1b300a0409800e40047000040eb00ad
:10492800b0409800e40047000040eb00c040980009
:10493800e4004700c0c6b300d0409800e400470038
:1049480030c0b300e04098006400470071002000c8
:10495800fa0c07000000eb00100798000040eb007d
:10496800004f7800000037001e009000800078009b
:104978006c004700010040005f0d07000000e000e8
:10498800070032009e0090006c0047000080400045
:10499800104f78001e0090000000e80010079800f3
:1049a80030c0b3009e4f1000efff3a006c00470084
:1049b800304090000000fb00e60040001e00900020
:1049c800808f5000e8ff3c009e0090006c0047007c
:1049d800808040000040eb00804878006c00470071
:1049e800604090000000fb000080fa000000060014
:1049f8001600fa00e400470020c0b30080487800a1
:104a0800e400470020c5b30090409800e400470048
:104a180010c1b300a0409800e400470010c0b300e4
:104a2800b0409800e40047000040eb00c040980008
:104a3800e400470040c6b300d0409800e4004700b7
:104a480010c0b300e0409800e400470030c0b30055
:104a5800f04098006400470081002000b70c070070
:104a68000000eb00100798000040eb00004f7800b2
:104a7800000037001e009000800078006c0047009e
:104a880001004000fd0c07000000e00007003200b4
:104a98009e0090006c00470000804000104f780096
:104aa8001e0090000000e8001007980030c0b30016
:104ab8009e4f1000efff3a006c0047003040900016
:104ac8000000fb00e60040001e009000808f5000b0
:104ad800e8ff3c009e0090006c004700808040008a
:104ae8000040eb00804878006c0047006040900070
:104af8000000fb000080fa00000006000400fa0035
:104b080031e2a900de82a900e282a9006000b800b3
:104b1800008fbe00040037001000200001002000b4
:104b28001e0f40005e9748001e01be00f0c329001a
:104b380001002000800f5100818f5900f6ff3600d8
:104b4800e282a800de82a800c40b07000080fa00f9
:104b5800000006002c00fa0050179800e4004700f7
:104b680020c0b30080487800e400470020c5b300a7
:104b780090409800e400470060c1b300a04098004e
:104b8800e40047000040eb00b0409800e400470014
:104b98000040eb00c0409800e400470080c6b30026
:104ba800d0409800e400470030c0b300e0409800cf
:104bb8006400470071002000600c07000000eb0053
:104bc800100798000040eb00004f78000000370005
:104bd8001e009000800078006b0047000100400034
:104be800c50c07000000e000070032009e0090009e
:104bf8006b00470061407800004f78001e0090006d
:104c08000000e8001007980030c0b3009e4f100065
:104c1800efff3a006b004700304090000080fb0037
:104c2800e60040001e009000808f5000e8ff3c0026
:104c38001e019000eb0047000040eb0000f17800f7
:104c48000000eb00100798000c0037001e009000d1
:104c5800800078005e109000008140001e009000e7
:104c6800e80040006b004700614078000049780088
:104c78001e0090000000e800100798006b00470035
:104c8800704090008080fb001e009000808f5000d4
:104c9800eeff3c001e009000800078005e1090003f
:104ca800808040000040eb00804878006b0047009f
:104cb800604090000000fb000080fa000000060041
:104cc8003600fa00201f9800e400470020c0b30017
:104cd80080487800e400470020c5b3009040980061
:104ce800e400470030c0b300a0409800e40047004b
:104cf8000040eb00b0409800e40047000040eb00a3
:104d0800c0409800e400470050c5b300d040980068
:104d1800e400470030c0b300e0409800640047005a
:104d280071002000050c07000000eb001007980038
:104d38000040eb00004f7800000037001e00900094
:104d4800800078006b004700010040006a0c0700f3
:104d58000000e000060032009e0090006b00470053
:104d6800614f78001e0090000000e80010079800ce
:104d780030c0b3009e4f1000f0ff3a006b004700b0
:104d8800304090000000fb00e60040001e0090004c
:104d9800808f5000e9ff3c001e019000eb004700a7
:104da8000040eb0000f178000000eb0010079800cd
:104db8000c0037001e009000800078002e1890002c
:104dc800008140001e009000e80040006b00470092
:104dd80061407800004978001e0090000000e8005b
:104de800100798006b004700704090008000fb009f
:104df8001e009000808f5000eeff3c006b004700c3
:104e0800604090000000fb000080fa0000000600ef
:104e18003000fa00701798007e109000f6ed070039
:104e2800000f7800e600470020c0b30080487800f3
:104e3800e600470020c5b30090409800e600470010
:104e480070c1b300a04098001e0078008040e800c0
:104e58006600470031409800e60047000040eb003c
:104e6800c0409800660047009040900066004700e8
:104e78002040900080c0400066004700304090000d
:104e880080c0400066004700514098001e0078002e
:104e98008040780066004700614098000000eb0001
:104ea800200798000d0037002e0090006701400091
:104eb8002e009000800078007e1090000080400056
:104ec80090407800660047000000410001487800e3
:104ed8002e0090000000e800200798002e009000a7
:104ee8009e0f5000f0ff35001e007800e7004000dc
:104ef800660047008080400030c0b30080487800da
:104f08001e007800e8004000660047008b0b070091
:104f18000000eb00200798000040eb0020479800b5
:104f2800000037002e00900080007800400220002a
:104f38000e00400001004000ef0b07000000e000f9
:104f480009003200ae009000400220000e00400030
:104f58000080400090407800214798002e00900083
:104f68000000e800200798002e409000e34f500012
:104f7800ecff3a00400220000e0040003040900054
:104f88000000fb00e60040002e009000808f5000db
:104f9800e4ff3c00ae009000400220000e004000fc
:104fa800808040000040eb008048780040022000ec
:104fb8000e004000604090000000fb000080fa00f6
:104fc800000006003a00fa00401f98004e189000b2
:104fd80089ed0700000f78001e0fe800e600470083
:104fe80020c0b30080487800e600470020c5b30021
:104ff80090409800e600470040c0b300a0409800e9
:105008001e0078008040e8006600470031409800a4
:10501800e60047000040eb00c040980066004700eb
:1050280090409000660047002040900080c04000fb
:10503800660047003040900080c04000660047008e
:10504800514098001e0078008040780066004700b4
:10505800614098000000eb00200798000d00370021
:105068002e009000670140002e009000800078001c
:105078004e1890000080400090407800660047007d
:1050880000004100014878002e0090000000e80070
:10509800200798002e0090009e0f5000f0ff35006a
:1050a8001e007800e700400066004700808040004e
:1050b80030c0b300804878001e007800e800400047
:1050c800660047001d0b07000000eb002007980052
:1050d8000040eb0020479800000037002e009000a9
:1050e80080007800e00220000e004000010040002f
:1050f800810b07000000e00009003200ae009000bc
:10510800e00220000e00400000804000904078003f
:10511800214798002e0090000000e8002007980022
:105128002e409000e34f5000ecff3a00e0022000d0
:105138000e004000304090000000fb00e6004000f8
:105148002e009000808f5000e4ff3c00ae009000dd
:10515800e00220000e004000808040000040eb008c
:1051680080487800e00220000e0040006040900077
:105178000000fb000080fa00000006004800fa006a
:1051880020279800e800470020c0b3008048780036
:10519800e800470020c5b30090409800e8004700a9
:1051a8000040eb00a0409800e800470030c0b30082
:1051b800b0409800e80047000040eb00c04098006d
:1051c800e800470050c5b300d0409800e800470009
:1051d80050c0b300e0409800e8004700a0c0b3000a
:1051e800f0409800e80047000040eb008048980035
:1051f800e800470030c0b3009048980068004700b6
:10520800a1002000cd0a07000000eb00300798003d
:105218000000eb00100798001e009000200798007f
:105228000040eb00004f78000000eb0020079800da
:10523800000037002e0090008000780072004700c0
:10524800010040002c0b07000000e00007003200be
:10525800ae0090007200470000804000104f7800b8
:105268002e0090000000e8002007980031c0b3002d
:105278009ecf1000efff3a007200470030409000c8
:105288000000fb00e60040002e009000808f5000d8
:10529800e8ff3c00720047009040900090c6b300c1
:1052a80080cf50002f003a000000eb002007980044
:1052b8000f0037003e0090007d00b90080007800a4
:1052c8002e20900000814000ae0190002e0090003a
:1052d800e60040007200470000804000104078005f
:1052e800807179002e0090000000e80020079800e7
:1052f8002e009000e50f5000eeff34000000eb0098
:1053080020079800110037003e0090007d00b9008a
:10531800800078002e20900000814000ae019000af
:105328002e009000ec004000720047000080400012
:1053380010407800804078000300410061409800e8
:105348002e0090000000e800200798002e00900032
:10535800e20f5000ecff34003e0090000000e8002f
:105368003007980072004700904090000040eb0022
:1053780060c7980030c4b30080cf500002003200ec
:1053880011c0b30061c79800720047002040900028
:1053980070c798007ec090000004e0000200320050
:1053a80011c0b30071c798007ec09000eec0900095
:1053b80000c060000004e0009bff3a003e0090003f
:1053c8000080fa00000006004600fa002027980036
:1053d800e400470020c0b30080487800e40047009c
:1053e80020c5b30090409800e400470020c0b300f7
:1053f800a0409800e400470060c0b300b0409800a7
:10540800e40047000040eb00c0409800e40047007b
:10541800a0c5b300d04098002e209000104078001e
:105428008040780064004700614098002e2090007a
:105438001040900080407800640047007140980058
:105448002e209000204090008040780064004700a3
:10545800014898002e20900030409000804078004d
:1054680064004700114898002e20900040409000aa
:105478008040780064004700214898002e20900062
:105488005040900080407800640047003148980000
:10549800e400470030c0b300c048980064004700eb
:1054a800d1002000250a07000000eb001007980033
:1054b8000040eb00004f7800000037001e0090000d
:1054c8008000780071004700010040008a0a070048
:1054d8000000e000060032009e00900071004700c6
:1054e800614f78001e0090000000e8001007980047
:1054f80030c0b3009e4f1000f0ff3a007100470023
:10550800304090000000fb00e60040001e009000c4
:10551800808f5000e9ff3c001e019000f100470019
:105528000040eb0000f178007100470060409000f7
:105538000004e00014003a000000eb001007980097
:105548000b0037001e0190001e009000ee00400086
:1055580071004700e14078002e20900000004100d3
:10556800114898001e0090000000e80010079800fd
:1055780071004700504890008000fb001e0090001a
:10558800808f5000efff3c007100470060409000a2
:105598000000fb000080fa00000006004a00fa0044
:1055a80030279800e400470020c0b3008048780006
:1055b800e400470020c5b30090409800e40047008d
:1055c800a0c0b300a0409800e400470080c0b3002a
:1055d800b0409800e40047000040eb00c04098004d
:1055e800e400470040c6b300d0409800e4004700fc
:1055f80010c0b300e04098003e2090009040780032
:1056080064004700714098003e2090000000e800c8
:105618009040780064004700014898003e209000c0
:105628000080e80090407800640047001148980026
:105638003e209000630040009040780064004700de
:10564800214898003e209000640040009040780077
:1056580064004700314898003e20900065004000f3
:10566800904078006400470041489800e4004700f3
:1056780010c0b300d0489800e400470030c0b30021
:10568800e048980064004700f1002000ab090700db
:105698000000eb00100798000040eb00004f780076
:1056a8000000eb0010079800000037001e00900073
:1056b8008000780073004700010040000e0a0700d0
:1056c8000000e000060032009e00900073004700d2
:1056d800614f78001e0090000000e8001007980055
:1056e80030c0b3009e4f1000f0ff3a00730047002f
:1056f800304090000000fb00e60040001e009000d3
:10570800808f5000e9ff3c0073004700a0409000e4
:105718000041eb0012cf980090c6b30080cf500034
:105728000200320010c0b30010cf98007300470089
:10573800204090008040eb0001cf9800eb4f5000d4
:105748000200320012c0b30002cf98009ec8900039
:105758000ec9900002c060000004e000d0ff3a00cb
:1057680073004700604090000000fb000080fa00d2
:10577800000006001c00fa00e400470020c0b30047
:1057880080487800e400470020c5b30090409800a6
:10579800e4004700d0c0b300a0409800e4004700f0
:1057a80010c0b300b0409800e40047000040eb0090
:1057b800c0409800e400470000c6b300d0409800fd
:1057c800e400470010c0b300e0409800e400470040
:1057d80030c0b300f040980064004700810020000a
:1057e800560907000000eb00100798000040eb0086
:1057f800004f7800000037001e00900080007800fd
:105808006c00470001004000bb0907000000e000f1
:10581800070032009e0090006c00470000804000a6
:10582800104f78001e0090000000e8001007980054
:1058380030c0b3009e4f1000efff3a006c004700e5
:10584800304090000000fb00e60040001e00900081
:10585800808f5000e8ff3c009e0090006c004700dd
:10586800808040000040eb00804878006c004700d2
:10587800204090008040eb00215f9800ed4f5000e1
:1058880002003a0012c0b300225f98006c00470083
:1058980060409000305f98003e5890000004e0009f
:1058a8000200320011c0b300315f98003e589000ea
:1058b8002e599000004061000004e000050032000d
:1058c8006c004700604090000000fb00400f98000b
:1058d800360037000000eb00100798000000370082
:1058e8001e009000800078006c0047000100400016
:1058f800810907000000e000070032009e009000c8
:105908006c00470000804000104f78001e00900097
:105918000000e8001007980030c0b3009e4f100048
:10592800efff3a006c004700304090000000fb0099
:10593800e60040001e009000808f5000e8ff3c0009
:105948006c004700904090000041eb0072579800af
:1059580090c6b30080cf50000200320010c0b300e0
:10596800705798006c004700a04090000041eb0081
:105978006257980010c5b30080cf50000200320073
:1059880010c0b30060579800fe5090006e51900010
:1059980002c060000004e000ceff3a006c0047003f
:1059a800604090000000fb00400f98004e089000f7
:1059b8000080fa00000006008a00fa00308798008c
:1059c800014f9900e400470020c0b30080487800e8
:1059d800e400470020c5b30090409800e400470069
:1059e800f0c0b300a04098000e489100e34040008a
:1059f8006400470031409800e40047000040eb0095
:105a0800c040980064004700904090006400470040
:105a18002040900080c04000640047003040900063
:105a280080c040006400470051409800e4004700ef
:105a380010c0b300e0409800640047008e48910011
:105a480071409800e40047000040eb00804898004f
:105a58000000eb00100798000d0037001e009000b2
:105a6800690140001e009000800078003e80900090
:105a7800008040009040780064004700000041002a
