:020000040000fa
:080000000002040000000000f2
:020000040000fa
:100400000fa02000007f24000001880000000000f1
:100410000a00070011000700000020000000e000b3
:100420000200320000000200000000004407020049
:10043000000000000040da000000fe004440a90077
:10044000000020000000e000030032000000200057
:10045000a00188004440a80000000600a07520000c
:10046000010020001500370062004000e0804800d5
:10047000910188009001ba0062004000e0804800cd
:10048000910188009002ba0062004000e0804800bc
:100490000002eb006028e10004003a000059eb0084
:1004a0008301e900fdff3e00040037006128e10000
:1004b000010032000082eb00050007009101880076
:1004c0001001ba000200e000e7ff3a00000005005a
:1004d000910188008002780062004000e0804800be
:1004e0003559ba008301e900080032002559ba00e5
:1004f0008301e900050032000400e000f4ff32004f
:1005000015d9ba008301e900f1ff3a0000000600a6
:10051000889fbe008a9fbe008c1f7800ad00070038
:10052000b400330003866c006450e1002400320004
:100530006420e100270032006150e1002200320017
:100540006120e100210032008b854200eb07b10001
:100550000134b800003ab8000804420089844a0017
:10056000013ab8000030b8008880400009014a0014
:10057000040033000000400081804800020149006f
:100580008b05e900c909dd0083017000010032001c
:1005900013002000c814de004814dd004709de0007
:1005a0001200b200c808de0008847000a100070035
:1005b00001f0a1000cf0a70001f0a00096003700a8
:1005c0006120e100980032000801be000200be0078
:1005d000f7ff37006150e100fcff3a00920037005e
:1005e0000001be00b90007000470a70003f0a100dd
:1005f00003f8a30013003a006509b10010003200af
:10060000090035006928e1000200350001002800da
:100610000000050000004000818048008502e900dc
:10062000fcff3a0000000600f88f4200050035008c
:100630008100d1000080d3008502e800fcff3a0071
:10064000000006008000eb0000000500f4ff2f0012
:10065000b300370014002000b100370003f0a200ff
:10066000889fbe008a9fbe008c1f7800590007003b
:10067000600033006450e1004f0032006420e1006c
:100680005200320003826c0007003b000905d000d5
:100690000306d000820f54000c065d0002003900f2
:1006a0000200320089017800030678008582550037
:1006b00004003d000003fd008103fd008502ea0007
:1006c0008b854200840f720002003b006000100026
:1006d000e08018006011b8000005eb007a28e10006
:1006e0000a00390006007800c75ddd00f707b20098
:1006f000878075002d003700828171000a01780023
:10070000610560008180d1000080d3008502e9008e
:10071000f9ff3b00060440008784480002003b00cc
:1007200060041400e0841c000988a3000700320064
:100730008a81710082817100610164008904d100a5
:100740000884d3008b05e800170037000978a30060
:1007500013003a000b00e000130034008b05e900a1
:100760000804440089844c000a4474000978a300fa
:100770000d003a000b00e000070034008b05e90093
:100780000804440089844c0001003a000b0020005a
:100790000978a300f7ff32000001eb0002003700e8
:1007a000828171000a017800220007000cf0a70086
:1007b00001f0a000180037006420e10002003a00b8
:1007c000838f6c00180033000801be000200be00d9
:1007d000110037000004be003c0007000003be000b
:1007e0000405be000200be0038000700844f7500fb
:1007f000000006000200be006450e1000500360063
:100800006420e100020036000968a30001003a00fc
:100810000800be000160a0004f0678004f05be0032
:100820004f04be0000000600f0ff2f00f1ff27007c
:10083000f9ff370081002000618055000b003d006a
:100840000b00200061fe2f000100e1001d003400bc
:1008500082817100610164008904d1000884d300a1
:100860000000e800faff3a00710020006100640017
:1008700003007000020060000900320061044400bf
:10088000e0844c000988a500050032008b05e800d3
:100890006808e10002003a008904d1000884d3000e
:1008a000f20f20000258e10005003d00c75ddd00a9
:1008b000f907b20089807500080078000000060082
:1008c0000bf827008b00780000000500c70ade0047
:1008d000f107b200f50fb20008003200e1cf42008c
:1008e000020032000170a00024000500810f70009a
:1008f000010032000408050044000500810f70006b
:1009000002003a00140005008502e90000004000e2
:1009100081c04800fcff3b000170a00024000500de
:10092000889fbe008a9fbe00841f7800a9ff070031
:100930004f00780011003300f0ff2f00838f6c0010
:1009400006003b00040565000a00a7000800370008
:1009500009f0a6001000200008003700820f5400a4
:10096000838f5c00030039001000200001003e006e
:100970000000200009f0a7000000ea004f05be00bb
:0c0980004f04be000000e0000000060074
:020000040000fa
:0200000401f009
:04000000ffff0000fe
:020000040000fa
:0200000401f009
:04000400ffff0000fa
:020000040000fa
:0200000401f009
:04000c00faff0000f7
:020000040000fa
:0200000401f009
:040010007eff00006f
:020000040000fa
:0200000401f009
:040014007fff00006a
:020000040000fa
:0200000401f009
:04001800ffff0000e6
:020000040000fa
:100008005c0700005c0700005c0700005c0700005c
:100018005c0700005c0700005c0700005c0700004c
:100028005c0700005c0700005c0700005c0700003c
:100038005c0700005c0700005c0700005c0700002c
:10004800200600005c0700005c0700005c07000059
:100058005c0700005c0700005c0700005c0700000c
:100068005c0700005c0700005c0700005c070000fc
:100078005c0700005c0700005c0700005c070000ec
:100088005c0700005c0700005c0700005c070000dc
:100098005c0700005c0700005c0700005c070000cc
:1000a8005c0700005c0700005c0700005c070000bc
:1000b8005c0700005c0700005c0700005c070000ac
:1000c8005c0700005c0700005c0700005c0700009c
:1000d8005c0700005c0700005c0700005c0700008c
:1000e8005c0700005c0700005c0700005c0700007c
:1000f8005c0700005c0700005c0700005c0700006c
:100108005c0700005c0700005c0700005c0700005b
:100118005c0700005c0700005c0700005c0700004b
:100128005c0700005c0700005c0700005c0700003b
:100138005c0700005c0700005c0700005c0700002b
:100148005c0700005c0700005c0700005c0700001b
:100158005c0700005c0700005c0700005c0700000b
:100168005c0700005c0700005c0700005c070000fb
:100178005c0700005c0700005c0700005c070000eb
:100188005c0700005c0700005c0700005c070000db
:100198005c0700005c0700005c0700005c070000cb
:1001a8005c0700005c0700005c0700005c070000bb
:1001b8005c0700005c0700005c0700005c070000ab
:1001c8005c0700005c0700005c0700005c0700009b
:1001d8005c0700005c0700005c0700005c0700008b
:1001e8005c0700005c0700005c0700005c0700007b
:0801f8005c0700005c07000039
:020000040000fa
:100208005c0700005c0700005c0700005c0700005a
:100218005c0700005c0700005c0700005c0700004a
:100228005c0700005c0700005c0700005c0700003a
:100238005c0700005c0700005c0700005c0700002a
:10024800200600005c0700005c0700005c07000057
:100258005c0700005c0700005c0700005c0700000a
:100268005c0700005c0700005c0700005c070000fa
:100278005c0700005c0700005c0700005c070000ea
:100288005c0700005c0700005c0700005c070000da
:100298005c0700005c0700005c0700005c070000ca
:1002a8005c0700005c0700005c0700005c070000ba
:1002b8005c0700005c0700005c0700005c070000aa
:1002c8005c0700005c0700005c0700005c0700009a
:1002d8005c0700005c0700005c0700005c0700008a
:1002e8005c0700005c0700005c0700005c0700007a
:1002f8005c0700005c0700005c0700005c0700006a
:100308005c0700005c0700005c0700005c07000059
:100318005c0700005c0700005c0700005c07000049
:100328005c0700005c0700005c0700005c07000039
:100338005c0700005c0700005c0700005c07000029
:100348005c0700005c0700005c0700005c07000019
:100358005c0700005c0700005c0700005c07000009
:100368005c0700005c0700005c0700005c070000f9
:100378005c0700005c0700005c0700005c070000e9
:100388005c0700005c0700005c0700005c070000d9
:100398005c0700005c0700005c0700005c070000c9
:1003a8005c0700005c0700005c0700005c070000b9
:1003b8005c0700005c0700005c0700005c070000a9
:1003c8005c0700005c0700005c0700005c07000099
:1003d8005c0700005c0700005c0700005c07000089
:1003e8005c0700005c0700005c0700005c07000079
:0803f8005c0700005c07000037
:020000040000fa
:10098c000000fa000000eb00200c88000000eb00d7
:10099c00100c880010272000000c8800e0002000bc
:1009ac00200c88000000eb00500c88000000eb00cd
:1009bc00400c880010272000300c8800e00020003c
:1009cc00500c88000000eb00800c88000000eb004d
:1009dc00700c88000000eb00600c8800e000200028
:1009ec00800c88000000eb00b00c88000000eb00cd
:1009fc00a00c88000000eb00900c8800e0002000a8
:100a0c00b00c8800a0862100700888000002280025
:100a1c00900888000080fa00000006000800fa0028
:100a2c00008fbe00220798003307980002002000b8
:100a3c0003f823001e00be0001ff07000000e000c9
:100a4c0001003c00030037000000200001f82300e7
:100a5c00008fbe006011b8001e00be00fafe070039
:100a6c000000e00001003500020037006000b80013
:100a7c00008fbe000200200003f823002e0090001f
:100a8c00be009000eefe07000000e00001003c00fc
:100a9c00040037000000200001f823002007980014
:100aac00310798006011b8002e009000be00900035
:100abc00e5fe07000000e0000100350003003700f0
:100acc006000b8002007980031079800020024004d
:100adc00c34124001e00be008afe07000200240051
:100aec00c3412400dbfe0700bafe0700000c88009f
:100afc0002002400c34124002e009000be00900090
:100b0c0080fe070002002400c3412400d1fe070030
:100b1c00b0fe0700300c88000080fa0000000600d0
:100b2c000800fa00008fbe002207980033079800d7
:100b3c000200200003f823001e00be00c0fe0700c8
:100b4c000000e00001003c00030037000000200022
:100b5c0001f82300008fbe000200200003f82b00d8
:100b6c001e00be00b8fe07000000e00001003500ca
:100b7c00030037000000200001f82b00008fbe009e
:100b8c000200200003f823002e009000be0090000d
:100b9c00abfe07000000e00001003c000400370041
:100bac000000200001f8230020079800310798006e
:100bbc000200200003f82b002e009000be009000d5
:100bcc00a1fe07000000e000010035000400370022
:100bdc000000200001f82b00200798003107980036
:100bec0002002400c33924001e00be0045fe07008d
:100bfc0002002600a346240096fe070075fe07009f
:100c0c00600c880002002400c33924002e009000e0
:100c1c00be0090003bfe070002002600a346240005
:100c2c008cfe07006bfe0700900c88000080fa0019
:100c3c00000006000000fa008500a9000080fa0000
:100c4c00004006000000fa0041742000914078003a
:100c5c0000ceb30000c060003040b30044e7b700e2
:100c6c0044c7bf00f043b20044e7b700e0012000e6
:100c7c00303a88000000eb00403a880040a7a900f9
:100c8c003200200081072000a009200033742000ce
:100c9c008149780080497800824978001200200050
:100cac006104200070052000237420008149780025
:100cbc00804978008249780043c7bf0002c7b3005f
:100ccc008240600000c3b30080cf5000faff3a00ae
:100cdc0042c7bf000042b2000004e000fcff32003b
:100cec000080fa00000006000000fa000000eb0093
:100cfc00200888008460a900510a200091407800e7
:100d0c00f0c8b30000c0600001c5b3000140700022
:100d1c00a5e0b7000000eb000008880000c4290023
:100d2c00100888000080fa00000006000000fa009d
:100d3c009460a80005e1a8000080fa0000000600fd
:100d4c000000fa009460a90005e1a9000080fa00f7
:100d5c00000006000000fa000000eb00900888007c
:100d6c008500a900810a20009140780080cfb30053
:100d7c0000c060005040b300a8e0b7000000eb00da
:100d8c00500888000080fa00000006000000fa00fd
:100d9c009500a80013e1a8000080fa0000000600ee
:100dac000000fa009500a90013e1a9000080fa00e8
:100dbc00000006000400fa00008fbe001e00be00fa
:100dcc0002002400c3312400cefd070001fe070001
:100ddc00d008880000032800f0088800110b2000c0
:100dec0091407800f0c8b30000c060000044a0003f
:100dfc00b1e0b7008760a9009760a8000080fa00f6
:100e0c00000006000000fa00ca22a900c622a900b0
:100e1c00caa2a900c6a2a900e4c2a900e4e2a800e3
:100e2c00e502a900e522a900d302a900c602a80088
:100e3c00cb22a900c722a900d362a8000080fa0027
:100e4c0000000600f03fb1000180b1000600350043
:100e5c00ee03090000000000403fb1000180b1002a
:100e6c00fbff3d001000b000203fb0000200350039
:100e7c0000800900000000000000060071ff070060
:100e8c0000482800e1012000eeff0700ddff07000d
:100e9c00bbfe07000200200003f823000200be0086
:080eac00defe0700fbff37002a
:020000040000fa
:040eb400000000003a
:020000040000fa
:040eb8000000fe0038
:00000001FF
