:020000040000fa
:080000000002040000000000f2
:020000040000fa
:100400000fad2000807f2400000188000000000064
:100410000a00070011000700000020000000e000b3
:10042000020032000000020000000000341202004e
:10043000000000000040da000000fe004440a90077
:10044000400c20000000e00003003200000020000b
:10045000a00188004440a80000000600a017210069
:10046000010020001500370062004000e0804800d5
:10047000910188009001ba0062004000e0804800cd
:10048000910188009002ba0062004000e0804800bc
:100490000002eb006028e10004003a000059eb0084
:1004a0008301e900fdff3e00040037006128e10000
:1004b000010032000082eb00050007009101880076
:1004c0001001ba000200e000e7ff3a00000005005a
:1004d000910188008002780062004000e0804800be
:1004e0003559ba008301e900080032002559ba00e5
:1004f0008301e900050032000400e000f4ff32004f
:1005000015d9ba008301e900f1ff3a0000000600a6
:100510008c02040000000000881f780002047800ac
:100520001b000700080040004f0478000000060090
:100530000000fa00881f7800000478003fb9970097
:10054000ea81570080007800c028200017000700cb
:10055000800078000000e000020035000040eb0061
:1005600000f47800010078004f0478000080fa0061
:100570000000060080007800010037000000e8005d
:100580001004e000fdff3a000100500000000600ea
:100590008001eb000200370061f079008301e80080
:1005a000828f5100fcff3a00000006006200fa0052
:1005b000889fbe008a9fbe000004be00020578002e
:1005c0008300780060f92f000f004000b0000700a2
:1005d00088979f0099979f000000eb00a09f9f00c5
:1005e0009a4578000b80fb000000ea00cf04de0093
:1005f00050c2b30080cf55000200320009047800d9
:10060000010037000904e9000800e0000b00340095
:100610001f909700080178008a0078008f9197005a
:100620000300010090979f000000e000930032005b
:100630002f98970000004400a09f9f0009054500e7
:1006400050c2b30080cf5500040032000b04e0001c
:10065000e3ff3a002f989700890037000000eb0075
:10066000809f9f00f0979f00e0979f00d0979f008a
:10067000c0979f00b0979f00c09f9f000900370060
:10068000208c20000080500000004000618b200082
:10069000e10078004f98970001007000c09f9f0014
:1006a0000a05e8001a4478008800fb00208c20002e
:1006b0007c000700800078000000e000f0ff3a00b6
:1006c000a0c2b300804f54000e003a00bf889700cc
:1006d0000180e900b08f9f0010007800b09f9f005c
:1006e0000000e00005003d000000ea00b09f9f0010
:1006f0004f9897000020a000c09f9f000a05e800c7
:1007000010003700b19f9f0009003700bf98970085
:10071000f0ff2700808f5000040032006a08b90003
:100720000000410003004000b09f9f000a05e80060
:100730001a01fb0003fd2f0003004100e90f5000e8
:10074000f2ff3600e0c2b3009a4f100004003200fe
:100750000080eb00909f9f008a0478001c00370007
:100760008a04e800a0c2b300994f100007003a00c5
:10077000bf8897000180e900b08f9f0010007800cb
:10078000909f9f008a84e800110037000000eb0072
:10079000909f9f00090037009f989700f0ff270067
:1007a000808f5000040032006a08b9000000410048
:1007b00003004000909f9f008904e8001901fb009e
:1007c00003fd2f0003004100e90f5000f2ff360047
:1007d000194478008800fb00808c2000310007005d
:1007e0000000e00002003a000044780001003700f9
:1007f0008904e800a87f9f0080c6b300804f5400a2
:1008000004003a00994f14000a003a006640500074
:1008100006003700c0c6b300804f540005003a0000
:10082000994f140003003a0065404000a07f9f00ec
:100830008904e8000905e800cbfb2f008f854500ff
:100840001901fb0060f92f000f0040000084e80050
:100850008b01780080007800080078001a000700fb
:100860000000e00005003a008b00780008007800e6
:10087000580107000000e00059ff3d000080eb0038
:100880004f05be004f04be000080fa0000000600c5
:100890000200fa00f1bf9f00010878000080fa0012
:1008a00000000600040037000204e00001003a00e6
:1008b000000005000000e80010417800814f510061
:1008c000f9ff3a0000000600889fbe008a1f7800ea
:1008d0000004780001027800824478000305780063
:1008e000e0c6b300804f5100d200320015003c003a
:1008f0006b405000804f5100240032000a003c0041
:1009000070405000804f51000f01320065404000a0
:10091000804f51007400320050c2b300804f51002c
:1009200020013a001c01370040c6b300804f51003f
:100930001b00320065404000804f510019013a0011
:100940001700370030c7b300804f5100fe0032005f
:1009500007003c0064405000804f510062003200ac
:100960000040e800804f51000e013a00e7003700d8
:1009700050c7b300804f51005b003200634040001d
:10098000804f510007013a00570037009180e9007d
:10099000010a780078009000917178000701370013
:1009a000a8609000c0c6b30080cf50000a003a0093
:1009b0009400780064805000000a78001000be00a7
:1009c0004f89de00cf91de000002be0002037800f6
:1009d000820378001300370010c7b30080cf5000a7
:1009e00003003200a0c6b30080cf500006003a00da
:1009f0009400780068805000000a78003002be0041
:100a00002003be00070037001480e900000a7800c8
:100a10001000780000027800cfa2de000503780005
:100a200086037800049cbe000694be00a860900077
:100a300080c6b30080cf50000e00320020c6b30045
:100a400080cf500005003a000400fb00cf80de009c
:100a500001017800820178000a00370040c7b30026
:100a600080cf5000030032006640400080cf50002d
:100a700006003a0004007800cf80de000101780013
:100a800082017800009cbe000294be003800be00c7
:100a90002801be00e00f5000e08f5800e00f590021
:100aa000e08f590003003d0078009000d1c2b300f0
:100ab0000a003700081090000018a300030032005d
:100ac00078009000b1c2b300040037000008a30012
:100ad000530032007800900001c2b3000175780025
:100ae0000000e8004d003700a8609000c0c6b300c9
:100af00080cf500006003a009400780064805000d7
:100b0000000a78001002be006033b80013003700fe
:100b100010c7b30080cf500003003200a0c6b3005e
:100b200080cf500006003a009400780068805000a2
:100b3000000a78003002be002003be000700370024
:100b40001480e900000a78001000780000027800a4
:100b5000050020000600200007002000049cbe00c5
:100b60000694be00a860900080c6b30080cf5000fd
:100b70000e00320020c6b30080cf500005003a00be
:100b80000480fb0001002000020020000300200080
:100b90000a00370040c7b30080cf50000300320086
:100ba0006640400080cf500006003a000400780004
:100bb000010020000200200003002000009cbe0075
:100bc0000294be00081090000038a3001400320008
:100bd0003800be002801be00e00f5000e08f580032
:100be000e00f5900e08f59000d00320080c7b300bc
:100bf00080cf54000300320080c5b30080cf540082
:100c000007003a007800900001c3b3000175780036
:100c10008000e80009f578000080e8007004980082
:100c2000780090000000450060049800894078003a
:100c300042003700a8609000c0c6b30080cf5000cb
:100c4000250032000a003c006440500080cf500074
:100c50002800320000c0e80080cf500014003200ad
:100c60006840500080cf500022003a000a00370050
:100c700040c7b30080cf50001e00320066404000e5
:100c800080cf50001b0032006940500080cf5000e0
:100c900018003a00060037001480e900000a7800c6
:100ca00010007800485c9000084878004500370044
:100cb0001480e900000a78001002780068089000ab
:100cc000cf80de000101780082017800009abe002a
:100cd0000292be003b0037001480e900000a780051
:100ce0001001780068089000cf80de000089be0007
:100cf000340037001480e900000a78001000780002
:100d0000680c9000080878002e0037001180e90078
:100d10008008780010007800cf80de0001017800a4
:100d200082017800009cbe000294be007800900012
:100d3000000045006004980081c7b30008007800f7
:100d4000ee0007001f0037001480e900000a780059
:100d50001000780060049800580990000200e0003c
:100d600002003d0003fe0700090037008000eb0091
:100d70009a010700800078000000e00003003200c4
:100d80006800900000805000010037005808900073
:100d9000100c98000b003700780090000275780066
:100da0000600370078009000800045000904e0004c
:100db00001003a0059c2b300894878000000e800f9
:100dc000700498000000eb004f0578004f04be004f
:100dd000000006000400fa00889fbe008a9fbe0043
:100de0008c1f7800000478000106780070089000dd
:100df000f8009000010050008808900001005000a9
:100e00009808900001005000a808900001005000d0
:100e1000b808900001005000c808900081055000fb
:100e20000002220090bf9f0000032300a0bf9f008c
:100e3000081090000028a30018003a000b00e00002
:100e4000160034008b04780009057800e28f540006
:100e5000020036002a002000020037000900e000ee
:100e60000b00340058009000c80190000a0178007f
:100e7000ee80570003000100500498000000e000dd
:100e8000960032006808900000004500600c980051
:100e90008a8454004240a900ebff3c007801900096
:100ea0000200e0000b00340058009000c8019000e0
:100eb0008c00780003000100500498000000e0005e
:100ec0008600320068089000f800900001004000a1
:100ed000600c9800880c90000900e00015003400b8
:100ee00009057800e28f5400020036002a00200035
:100ef000020037000900e0000b00340058009000a9
:100f0000c80190000a017800ec805700030001003e
:100f1000500498000000e000700032006808900063
:100f200000004500600c98008a8454004240a900eb
:100f3000ebff3c00180990000200e0000b003400b9
:100f4000e800900058009000c801900003000100e4
:100f5000500498000000e000600032006808900033
:100f60009808900001004000600c9800a80c9000c8
:100f70000900e0001500340009057800e28f5400f4
:100f8000020036002a002000020037000900e000bd
:100f90000b00340058009000c80190000a0178004e
:100fa000ec80570003000100500498000000e000ae
:100fb0004a0032006808900000004500600c98006c
:100fc0008a8454004240a900ebff3c00380990009d
:100fd0000200e0000d003400e800900018089000c6
:100fe0008080400058009000c8019000030001007c
:100ff000500498000000e0003800320068089000bb
:10100000b808900001004000600c9800c80c9000e7
:101010000900e0001500340009057800e28f540053
:10102000020036002a002000020037000900e0001c
:101030000b00340058009000c80190000a017800ad
:10104000ec80570003000100500498000000e0000d
:10105000220032006808900000004500600c9800f3
:101060008a8454004240a900ebff3c000810900025
:101070000028a3001b0032000b00e0001900340020
:101080008b04780009057800e28f540002003600d6
:101090002a002000020037000900e0000b003400a5
:1010a00058009000c80190000a017800ee805700b7
:1010b00003000100500498000000e0000700320027
:1010c0006808900000004500600c98008a84540075
:1010d0004240a90003003400eaff37000080eb0023
:1010e000010037000000eb004f0678004f05be00fe
:1010f0004f04be000080fa0000000600ef02b000be
:10110000889fbe008a9fbe008c9fbe008e1f780005
:1011100000067800508a2000c0b79f0080c5b30049
:1011200080cf50000800320042892000c2b79f00e3
:101130007740400080cf500003003a008300200039
:10114000b3b79f000a00370080c7b30080cf5000bc
:1011500005003200a4002000b4b79f0080c5b30092
:1011600080cf500002003a0000012000b0b79f007d
:101170003c04be002c05be0040c6b30080cf50002a
:10118000030032006540400080cf50000b003a0061
:10119000e00f5400e08f5c00e00f5d00e08f5d0029
:1011a00006003d006000b8006011b800080450005f
:1011b000898458000a0559008b855900e00f5400b6
:1011c000e08f5c00e00f5d00e08f5d0004003a00fe
:1011d0005c0890008d0120000000e0000c0032004f
:1011e000bfb0970001027800cfa2de0005037800af
:1011f000860378000800be000a01be000201070055
:101200004fb2970064407800d0df9f007d0120003e
:101210003fb0970000027800cfa2de0005037800ff
:10122000860378000800be000a01be00ef00070038
:10123000009ebe000296be000d00e90061fc2f007a
:101240008f804000008740001e0037003fb19700ac
:1012500002047800cfc4de00090578008a05780012
:101260000802be000a03be007fa897008fb0970057
:101270001fb19700afb19700e7000700d0b79f00fc
:10128000e1b79f00f2b79f0083bf9f008d06e90082
:101290000802be000a03be00650107007faa97008e
:1012a00000005200cfb09700615778005fb0970000
:1012b000efb097007fb197008fb99700009ebe00f6
:1012c0000296be003c00be002c01be00f0af9f00a5
:1012d00081b79f0092b79f00a3b79f00e00f500017
:1012e000e08f5800e00f5900e08f590002003400f1
:1012f0000d00e000d5ff3c00bfb09700e88f500024
:1013000010003a000c1090000038a3000d003200cd
:10131000f78f560006003e0062fc2f000f014100cf
:101320008d00410000c3b300914f10000500320052
:101330008d06e90000c3b30063fc2f008f814100dc
:1013400080f17e0078811600120e98006c009000eb
:1013500063fc2f008f8141008d8041008cfc0700d1
:101360001c0990005c089000800f510006003d00b1
:1013700002005000000e98000c1090000040a100e8
:10138000001698000f0037000000e0000d003d003f
:101390000c10900074006000f00f500009003a003b
:1013a0007c089000fc009000010050008c08900028
:1013b00001005000020050004240a900010034002a
:1013c000000e98004f0778004f06be004f05be0084
:1013d0004f04be00ef02b100000006008001eb00e8
:1013e000040037008301e80090cf100004003200b1
:1013f0000000e800828f5100faff3a000000eb0085
:1014000000000600881f7800000478005001be002c
:101410004000be00040040008580480006014900ed
:1014200087814900009cbe000294be000400e100d8
:101430000588e1000690e1000798e1000200310014
:10144000680044001008e8004f047800000006001f
:10145000f4874700889fbe008a9fbe008c9fbe0015
:101460008e1f78000205be000004be00d4b79f00a6
:10147000e5b79f00f6b79f0087bf9f000000eb0015
:10148000c0b79f00b0b79f00a0b79f0090b79f0064
:1014900080b79f000d042000bfb097004fb09700a9
:1014a000000140000000e0000f003d004f08de009a
:1014b00000007100c0b79f009e00070001003d00c2
:1014c00012002000a100070001003d0012002000d2
:1014d000a6000700b1000700b60007000f0040009b
:1014e000c8ff0700220037004f08de000006710029
:1014f000ccb79f008f00070001003d0012002000c4
:101500009200070001003d00120020009700070034
:10151000a20007000fb297009fb297002fb3970069
:10152000bfb39700a90007000000520081805a0055
:1015300002015b0083815b0080b79f0091b79f0031
:10154000a2b79f00b3b79f000007eb009f00070002
:101550000020e10001a8e10002b0e10003b8e100d1
:10156000010031001e0020000e005600c0b79f0091
:101570004fb297000400e000070035001000200083
:10158000010020006011b800080470008984700018
:101590000a0571008b8571008d06e900beff3a00d7
:1015a0000400e00003003d00820007000f0040003f
:1015b00094ff07004fa897000000e00004003a00e5
:1015c0000fb497009fb497002fb59700bfb5970051
:1015d000940007004f0778004f06be004f05be007d
:1015e0004f04be004f01b10000000600881f7800c4
:1015f00018002000881f780095ff07008f87e900fa
:101600004f04780000000600801feb0090ff0700e9
:101610008f87e90000000600889fbe008a9fbe00f9
:101620008c1f78006e00070007003d007300070064
:10163000e00f5b00e08f5b0007003d003200070019
:101640000006eb00040037003400070002003d00f4
:101650002a0007001c00200072000700e3ff0700bb
:101660000203be000002be000c00e00001003200d8
:10167000220007000400be000601be004f067800ed
:101680004f05be004f04be0000000600889fbe004c
:101690008a9fbe008c1f78005100070005003d00a6
:1016a00056000700e00f5b00e08f5b0006003d0086
:1016b000040037001900070003003d006000b80077
:1016c0006011b8001000070056000700ceff0700a9
:1016d0000203be000002be000c00e0000100320068
:1016e000060007000400be000601be004f06780099
:1016f0004f05be004f04be00000006006000b800a9
:101700006011b800000037000402500085825800c4
:101710000603590087835900000006000006eb000d
:10172000e00f5200e08f5a00e00f5b00e08f5b009b
:10173000000006000180400090b79f000001eb0010
:101740008fb097000100e00000000600020070006a
:1017500090b79f000180400080b79f000001eb0020
:10176000ffa897000100e0000000060002007000e2
:1017700080b79f00018040006faa9700cf20de0055
:1017800001007000f0af9f00040242002500070036
:101790004f18de000002720000000600e4af9f0058
:1017a0000804440089844c000a054d008b854d00d7
:1017b000000006003fb29700cfb297005fb39700da
:1017c000efb3970000fe2f00000006003fb0970027
:1017d000cfb097005fb19700efb19700000006000f
:1017e0000205be000004be00e00f5000e08f58006c
:1017f000e00f5900e08f5900000006006000b800bb
:101800006011b80008045000898458000a05590086
:101810008b8559001c002000e00f5200e08f5a0019
:10182000000006000800be000a01be00000006001d
:10183000889fbe008a9fbe008c1f78000205be00f4
:101840000004be000006eb00e00f5000e08f5800df
:10185000e00f5900e08f590007003d006000b8001c
:101860006011b80008045000898458000a05590026
:101870008b8559001c002000e00f5200e08f5a00b9
:10188000e00f5b00e08f5b0002003d000f000700ef
:101890000c00a2000800be000a01be0012000700f2
:1018a0000203be000002be000c00e0000100320096
:1018b000060007000400be000601be004f067800c7
:1018c0004f05be004f04be00000006006000b800d7
:1018d0006011b800040250008582580006035900c8
:1018e0008783590000000600889fbe008a9fbe00c3
:1018f0008c9fbe000404b8000506b80089044600a9
:1019000060854e000606b8000a054600e0854e00d8
:101910000706b8008b054600040eb800890446008f
:101920000a854e00e0854d00050eb8000a05460008
:101930008b854e00060eb8008b0546000416b800d5
:101940000a0546008b854e000516b8008b0546003b
:10195000041eb8008b0546000800be000a01be0048
:101960004f06be004f05be004f04be00000006003b
:101970000200fa000000eb00000f780023c2bf0055
:101980000080fb00610060000000e00002003a00ff
:1019900010002000000f78001e0078000080fa0080
:1019a000000006000200fa000000eb00000f7800c3
:1019b00033c2bf000080fb00610060000000e00057
:1019c00002003a0010002000000f78001e0078008e
:1019d0000080fa00000006000000fa0021e2a900e1
:1019e0009560a9009580a9008560a9008580a9005f
:1019f0000080fa00000006000000fa0031e2a900b1
:101a000097c0a90097e0a90087c0a90087e0a900b6
:101a10000080fa00000006000200fa00000f7800c3
:101a20008560a9008580a9009e007800678060001d
:101a3000674060004401dd00910a20009140780079
:101a4000f0c8b30000c0600002407000a9e0b70019
:101a5000000720001e0060004400de0067416000b7
:101a6000a10a20009140780080cfb30000c0600040
:101a700002407000aae0b7009e0078006880600015
:101a80004300de00614060004301dd005109200099
:101a90009140780070cfb30000c060000240700039
:101aa00095e0b700000820001e0060004700de003f
:101ab000614060004401dd00510920009140780040
:101ac000f0ceb30000c060000240700095e0b700a7
:101ad0000080fa00000006000200fa00000f780003
:101ae00087c0a90087e0a9009e0078006780600099
:101af00067416000310b20009140780080cfb30037
:101b000000c0600002407000b3e0b7000007200092
:101b10001e0060004400de00674060004401dd00fc
:101b2000310b200091407800f0c8b30000c0600085
:101b300002407000b3e0b7009e007800688060004b
:101b40004300de00614060004601dd0071092000b5
:101b500091407800f0cbb30000c0600002407000fc
:101b600097e0b700000820001e0060004700de007c
:101b7000c700dd0097c0bf000074a10001407000e5
:101b800097e0b7000080fa00000006000000fa00ad
:101b900022c2bf000080fb00610060000000fb006b
:101ba0000080fa00000006000000fa0032c2bf0008
:101bb0000080fb00610060000000fb000080fa0074
:101bc000000006000c00fa00000f780011079800d2
:101bd000220798000000eb00300798001e009000dc
:101be000400798001e00e00029003200e7ff0700d0
:101bf0000004e0000b003a00be0090002e009000b0
:101c0000808f5000040031003e0090000000e8008a
:101c100030079800f5ff37001e0078005007980045
:101c20001d0037000000eb003007980020c2bf0005
:101c30000080fb000000d1000080fb00630060001a
:101c4000e30f500008003a000e80e8009000780092
:101c50000101780033118000030978008180e800d9
:101c60000108780008003700e80147009300780079
:101c700030118000004178000100780002487800af
:101c80008100e800810978001e0fe900d5ff3700c8
:101c90001e007800500798005e0090000080fa0057
:101ca000000006000c00fa00000f780011079800f1
:101cb000220798000000eb00300798001e009000fb
:101cc000400798001e00e00029003200b6ff070020
:101cd0000004e0000b003a00be0090002e009000cf
:101ce000808f5000040031003e0090000000e800aa
:101cf00030079800f5ff37001e0078005007980065
:101d00001d0037000000eb003007980030c2bf0014
:101d10000080fb000000d1000080fb006300600039
:101d2000e30f500008003a000e80e80090007800b1
:101d300001017800b3118000030978008180e80078
:101d40000108780008003700e80147009300780098
:101d5000b01180000041780001007800024878004e
:101d60008100e800810978001e0fe900d5ff3700e7
:101d70001e007800500798005e0090000080fa0076
:101d8000000006000600fa00000f78001107980016
:101d9000220798002e009000401188001e00780055
:101da000001188001e009000101188000080fa00c9
:101db000000006000600fa00000f780011079800e6
:101dc000220798002e009000c01188001e007800a5
:101dd000801188001e009000901188000080fa0099
:101de000000006000400fa00000f78001e007800d2
:101df0001007980020c2bf000080fb000000d10047
:101e00000080fb0063006000e30f50000f003a0009
:101e10001e0078001000e0001e00320023c2bf0048
:101e20000080fb000000d1000080fb00610060002a
:101e30000000e000f9ff3a001e0078001000780072
:101e4000201188001e8fe800f1ff37001e0090006f
:101e50001004e0000f00320023c2bf000080fb002e
:101e60000000d1000080fb00610060000000e00085
:101e7000f9ff3a000e81e800120078008000780037
:101e80009100fb00211188000000e80000097800a3
:101e9000eeff37000080fa00000006000400fa00a0
:101ea000000f78001e0078001007980030c2bf00b5
:101eb0000080fb000000d1000080fb006300600098
:101ec000e30f50000f003a001e0078001000e00001
:101ed0001e00320033c2bf000080fb000000d100b2
:101ee0000080fb00610060000000e000f9ff3a00a4
:101ef0001e00780010007800a01188001e8fe800f6
:101f0000f1ff37001e0090001004e0000f003200c7
:101f100033c2bf000080fb000000d1000080fb0046
:101f2000610060000000e000f9ff3a000e81e80067
:101f300012007800800078009100fb00a111880059
:101f40000000e80000097800eeff37000080fa008a
:101f5000000006000200fa0020c2bf000080fb0063
:101f60000000d1000080fb0063006000e30f500020
:101f700003003a0030118000000f780004003700a1
:101f800030118000f10f200001006000000f780088
:101f90001e0078000080fa00000006000200fa002f
:101fa00030c2bf000080fb000000d1000080fb00b9
:101fb00063006000e30f500003003a00b01180009e
:101fc000000f780004003700b0118000f10f2000ee
:101fd00001006000000f78001e0078000080fa0009
:101fe000000006000200fa00000f780023c2bf00c4
:101ff0000080fb000000d1000080fb006100600059
:102000000000e000f9ff3a0020c2bf000080fb00a2
:102010000000d1000080fb0063006000e30f50006f
:1020200003003a001e0078002011880003003700ea
:10203000f00f20001e006000201188000080fa00d0
:10204000000006000200fa00000f780033c2bf0053
:102050000080fb000000d1000080fb0061006000f8
:102060000000e000f9ff3a0030c2bf000080fb0032
:102070000000d1000080fb0063006000e30f50000f
:1020800003003a001e007800a0118800030037000a
:10209000f00f20001e006000a01188000080fa00f0
:0420a0000000060036
:020000040000fa
:0200000401f009
:04000c00faff0000f7
:020000040000fa
:0200000401f009
:040010003eff0000af
:020000040000fa
:0200000401f009
:040014007fff00006a
:020000040000fa
:10000800f6140000f6140000f6140000f6140000c0
:10001800f6140000f6140000f6140000f6140000b0
:10002800f6140000f6140000f6140000f6140000a0
:10003800f6140000f6140000f6140000f614000090
:10004800f6140000f6140000f61400005e14000018
:1000580044130000f6140000f6140000f614000023
:10006800f6140000f6140000f6140000f614000060
:10007800f6140000f6140000f6140000f614000050
:10008800f6140000f6140000f6140000f614000040
:10009800f6140000f61400009a140000a4130000df
:1000a800f6140000f6140000f6140000f614000020
:1000b800f6140000f6140000f6140000f614000010
:1000c800f6140000f6140000f6140000f614000000
:1000d800f6140000f6140000f6140000f6140000f0
:1000e800f6140000f6140000f6140000f6140000e0
:1000f800f6140000f6140000f6140000f6140000d0
:10010800f6140000f6140000f6140000f6140000bf
:10011800f6140000f6140000f6140000f6140000af
:10012800f6140000f6140000f6140000f61400009f
:10013800f6140000f6140000f6140000f61400008f
:10014800f6140000f6140000f6140000f61400007f
:10015800f6140000f6140000f6140000f61400006f
:10016800f6140000f6140000f6140000f61400005f
:10017800f6140000f6140000f6140000f61400004f
:10018800f6140000f6140000f6140000f61400003f
:10019800f6140000f6140000f6140000f61400002f
:1001a800f6140000f6140000f6140000f61400001f
:1001b800f6140000f6140000f6140000f61400000f
:1001c800f6140000f6140000f6140000f6140000ff
:1001d800f6140000f6140000f6140000f6140000ef
:1001e800f6140000f6140000f6140000f6140000df
:0801f800f6140000f6140000eb
:020000040000fa
:10020800f6140000f6140000f6140000f6140000be
:10021800f6140000f6140000f6140000f6140000ae
:10022800f6140000f6140000f6140000f61400009e
:10023800f6140000f6140000f6140000f61400008e
:10024800f6140000f6140000f61400005e14000016
:1002580044130000f6140000f6140000f614000021
:10026800f6140000f6140000f6140000f61400005e
:10027800f6140000f6140000f6140000f61400004e
:10028800f6140000f6140000f6140000f61400003e
:10029800f6140000f61400009a140000a4130000dd
:1002a800f6140000f6140000f6140000f61400001e
:1002b800f6140000f6140000f6140000f61400000e
:1002c800f6140000f6140000f6140000f6140000fe
:1002d800f6140000f6140000f6140000f6140000ee
:1002e800f6140000f6140000f6140000f6140000de
:1002f800f6140000f6140000f6140000f6140000ce
:10030800f6140000f6140000f6140000f6140000bd
:10031800f6140000f6140000f6140000f6140000ad
:10032800f6140000f6140000f6140000f61400009d
:10033800f6140000f6140000f6140000f61400008d
:10034800f6140000f6140000f6140000f61400007d
:10035800f6140000f6140000f6140000f61400006d
:10036800f6140000f6140000f6140000f61400005d
:10037800f6140000f6140000f6140000f61400004d
:10038800f6140000f6140000f6140000f61400003d
:10039800f6140000f6140000f6140000f61400002d
:1003a800f6140000f6140000f6140000f61400001d
:1003b800f6140000f6140000f6140000f61400000d
:1003c800f6140000f6140000f6140000f6140000fd
:1003d800f6140000f6140000f6140000f6140000ed
:1003e800f6140000f6140000f6140000f6140000dd
:0803f800f6140000f6140000e9
:020000040000fa
:1020a4000a0a00000d570000454c0000434f000091
:1020b4004d450000207400006f200000436f0000b5
:1020c40061580000205500004152000054200000d7
:1020d4007465000073740000000a00000d500000d5
:1020e4007265000073730000206100006e790000c7
:1020f400206b000065790000207400006f20000050
:1021040063680000656300006b0000000a0d0000b6
:10211400467200006f6d000020550000313a000047
:1021240027250000732700003b2000002530000015
:10213400325800002e0000000a0d00004672000014
:102144006f6d000020550000323a00002725000082
:10215400732700003b2000002530000032580000a7
:042164000000000077
:020000040000fa
:102168000400fa00417420009140780000ceb300ca
:1021780000c060003040b30044e7b70044c7bf0068
:10218800f043b20044e7b700e0012000303a88008d
:102198000000eb00403a880040a7a9003200200068
:1021a80081072000a00920003374200081497800ad
:1021b8008049780082497800030f780012002000d7
:1021c80061042000700520002374200081497800f4
:1021d80080497800824978001307980043c7bf00f8
:1021e8000080fb004400de000080fb006700600008
:1021f800e30f5000f9ff3a000000000042c7bf009b
:102208000080fb004500de000080fb0061006000ec
:10221800e10f5000f9ff3a000080fa0000000600c4
:102228000000fa000000eb00200888008460a90084
:10223800510a200091407800f0c8b30000c0600047
:1022480001c5b30001407000a5e0b7000000eb0035
:102258000008880000c42900100888000080fa00df
:10226800000006000000fa009460a80005e1a8003c
:102278000080fa00000006000000fa009460a9003f
:1022880005e1a9000080fa00000006000000fa003d
:102298000000eb00900888008500a900810a200052
:1022a8009140780080cfb30000c060006040b30068
:1022b800a8e0b7000000eb00500888000080fa0092
:1022c800000006000000fa009500a80013e1a8002d
:1022d8000080fa00000006000000fa009500a9003e
:0c22e80013e1a9000080fa0000000600cd
:020000040000fa
:1022f4008808000006000000020000000000000042
:10230400000000000008000044000000020000007b
:1023140000000000000000000000000000000000b9
:1023240000000000000000000000000000000000a9
:102334000000000000000000000000000000000099
:102344000000000000000000000000000000000089
:102354000000000000000000000000000000000079
:102364000000000000000000000000008e080000d3
:102374000600000002000000000000000000000051
:1023840044080000440000000200000000000000b7
:102394000000000000000000000000000000000039
:1023a4000000000000000000000000000000000029
:1023b4000000000000000000000000000000000019
:1023c4000000000000000000000000000000000009
:1023d40000000000000000000000000000000000f9
:1023e4000000000000000000b60800001200000019
:1023f40002000000010002000004000008001000b8
:1024040000000000202b2d0023300000c80800002d
:102414000800000002000000686a6c00747a4c0036
:1024240000000000940800002200000002000000e8
:1024340030313200333435003637380039616200c8
:102444006364650066003000313233003435360091
:10245400373839004142430044454600000000003b
:042464000000000074
:020000040000fa
:102468003800fa003eff070020032000e4000700c0
:102478004c010700520007006d000700ca22a8009f
:10248800c1012000200529009f000700aa000700bd
:102498000000e000fdff3a0081012000f00629005d
:1024a80099000700a40007000000e000fdff3a00c3
:1024b800ca22a9000e0078000e0107000000e00003
:1024c8001d003200ca22a8000040eb001047980007
:1024d800e60047001e00fb00801f78008e1f780072
:1024e80080082900801f7800010078000ef8070096
:1024f800e6875700660047001cf807008000780050
:1025080066004700800007008b0007000000e0001d
:10251800fdff3a006600470014f8070080007800c5
:1025280066004700a8000700b30007000000e000ad
:10253800fdff3a00ca22a9000e0078000b0107002f
:102548000000e000dbff3200ca22a8000040eb00d8
:1025580010479800e60047001e00fb00801f780027
:102568008e1f7800e0092900801f7800010078009c
:10257800edf70700e687570066004700fbf70700fe
:1025880080007800660047005f0007006a000700c7
:102598000000e000fdff3a0066004700f3f707007f
:1025a8008000780066004700870007009200070057
:1025b8000000e000fdff3a00ca22a900bdff370075
:020000040000fa
:1025c8000600fa0002fd070070052000000f7800e1
:1025d800f0fd2f000efd070080c02c0010079800aa
:1025e800d0752900200798001e017800ae009000e1
:1025f8001e009000e1fd07000000eb00004288008b
:102608000000eb00104288000080fa00000006007d
:102618000000fa00eaff07000080fa000000060048
:102628000000fa00020007000080fa00000006001f
:102638000600fa00eefc070070052000000f780085
:10264800f0fd2f0022fd070080602c001007980085
:10265800d0752900200798001e017800ae00900070
:102668001e009000d1fd07000000eb002044880008
:102678000000eb00304488000080fa0000000600eb
:020000040000fa
:102688008580a900809fbe00821f78008c08e20028
:10269800150032008808e200160032008a08e200bd
:1026a8001400320041448000420020002322af0081
:1026b800feff3700504480000000e00007003200b1
:1026c8000000e9008aa8b7003140780024e2b7008a
:1026d8000201e900f5ff3a00020037008828ef0000
:1026e80001003700414488004f0178004f00be00c8
:1026f8000040060000002000604488004f01780078
:102708004f00be00004006008c08e200feff3a00c1
:102718009580a9008100e90051448800b040780004
:10272800211188004044880011002000614488007d
:102738009580a800000006006044800000000600a4
:020000040000fa
:1027480087e0a900809fbe00821f78009208e200ff
:10275800150032008e08e200160032009008e200f0
:102768001400320071448000420020003322af0080
:10277800feff3700804480000000e00007003200c0
:102788000000e90090a8b7003140780034e2b700b3
:102798000201e900f5ff3a00020037008e28ef0039
:1027a80001003700714488004f0178004f00be00d7
:1027b8000040060000002000904488004f01780087
:1027c8004f00be00004006009208e200feff3a00fb
:1027d80097e0a9008100e90081448800b0407800b2
:1027e800a1118800704488001100200091448800dd
:1027f80097e0a80000000600904480000000060052
:020000040000fa
:102808000600fa00000f78000000eb00200798008f
:102818002e0090009e0f50000e0031000000eb00cb
:10282800100798009e00900070382100808f50009b
:1028380004003e001e0090000000e8001007980009
:10284800f8ff37002e0090000000e80020079800ed
:10285800efff37000080fa00000006000600fa00cb
:10286800000f78000000eb00200798002e00900071
:102878009e0f50000d0031000000eb00100798007b
:102888001e009000e40f500004003e001e0090005f
:102898000000e80010079800f9ff37002e009000ac
:1028a8000000e80020079800f0ff37000080fa00d9
:0428b8000000060016
:020000040000fa
:1028bc00809fbe008560a90000428000f003b2003a
:1028cc0001802000810040000000eb0026c2bf0008
:1028dc00804878004028ec004f00be000040060005
:1028ec0000428000114280000100500000000600f0
:1028fc0001428000124280000208e1000800320010
:10290c00f203b20001802000028140009240780066
:10291c00014878004228ec0010002000000006005e
:08292c000000eb0000000600b2
:020000040000fa
:10293400809fbe0087c0a90020448000f003b2003d
:1029440041842000810040000000eb0036c2bf003b
:10295400804878008428ec004f00be000040060048
:102964002044800031448000010050000000060033
:1029740021448000324480000208e1000800320053
:10298400f203b200418420000281400092407800aa
:10299400014878008628ec001000200000000600a2
:0829a4000000eb00000006003a
:020000040000fa
:1029ac000000fa00ca22a900c622a900e842a90028
:1029bc00e862a900e442a900e462a900e4c2a9000b
:1029cc00e4e2a800e502a900e522a900d302a900cf
:1029dc00ca02a900c602a8000080fa000000060086
:020000040000fa
:0429ec000000fe00e9
:00000001FF
