:020000040000fa
:0800000000a60400020000004c
:020000040000fa
:020000040005f5
:104c00006f8c2000007f240000018800000000005d
:104c10000a00070011000700000020000000e0006b
:104c200002003200000002000000000032a9020071
:104c3000020000000040da000000fe004440a9002d
:104c4000e00920000000e0000300320050002000d6
:104c5000a00188004440a8000000060040b62a00d9
:104c6000210020001500370062004000e08048006d
:104c7000910188009001ba0062004000e080480085
:104c8000910188009002ba0062004000e080480074
:104c90000002eb006028e10004003a000059eb003c
:104ca0008301e900fdff3e00040037006128e100b8
:104cb000010032000082eb0005000700910188002e
:104cc0001001ba000200e000e7ff3a000000050012
:104cd000910188008002780062004000e080480076
:104ce0003559ba008301e900080032002559ba009d
:104cf0008301e900050032000400e000f4ff320007
:104d000015d9ba008301e900f1ff3a00000006005e
:104d10000600fa00000f780011079800220798009b
:104d20002e009000401188001e00780000118800bd
:104d30001e009000101188000080fa00000006009c
:104d40000600fa00000f780011079800220798006b
:104d50002e009000c01188001e007800801188008d
:104d60001e009000901188000080fa0000000600ec
:020000040000fa
:0200000401f009
:04000c00faff0000f7
:020000040000fa
:0200000401f009
:040010003eff0000af
:020000040000fa
:0200000401f009
:040014007fff00006a
:020000040000fa
:0200000401f009
:04001800ffff0000e6
:020000040000fa
:100008006cab02006cab02006cab02006cab020084
:100018006cab02006cab02006cab02006cab020074
:100028006cab02006cab02006cab02006cab020064
:100038006cab02006cab02006cab02006cab020054
:020000040000fa
:020000040000fa
:020000040005f5
:104d70000a0a00000d570000454c0000434f000098
:104d80004d450000207400006f200000436f0000bc
:104d900061580000204200006f6f0000746c00003a
:104da0006f61000064650000722000000a000000ce
:104db0004c69000073740000656e0000696e0000ad
:104dc000672000006f6e0000205500004152000077
:104dd000543a0000203200000a0000004163000045
:104de0007469000076650000205500004152000003
:104df000543a0000203200000a000000496e000012
:104e0000766100006c6900006420000066690000a3
:104e10007273000074200000746f00006b65000066
:104e20006e0a000000520000656300006569000022
:104e30007665000064200000737400006172000059
:104e4000746900006e670000207400006f6b000042
:104e5000656e00000a000000546900006d650000e6
:104e60006f750000740a0000004900006e760000b3
:104e7000616c000069640000204300006865000068
:104e8000636b000020730000756d00000a000000d5
:104e9000230000000a460000696e000069730000ec
:0c4ea00068650000640a000000000000cb
:020000040000fa
:020000040005f5
:104eac000000fa00417420009140780000ceb3005d
:104ebc0000c060003040b30044e7b70044c7bf00f7
:104ecc00f043b20044e7b700e0012000303a88001c
:104edc000000eb00403a880040a7a90032002000f7
:104eec0081072000a009200033742000814978003c
:104efc00804978008249780012002000610420006b
:104f0c0070052000237420008149780080497800c6
:104f1c008249780043c7bf0002c7b30082406000db
:104f2c0000c3b30080cf5000faff3a0042c7bf0065
:104f3c000042b2000004e000fcff32000080fa00e6
:104f4c00000006000200fa00000f780033c2bf0018
:104f5c00624060000004e000fcff3a0009003700ea
:104f6c001e007800104078000080fb00a011880023
:104f7c001e0fe80033c2bf00624060000004e00076
:104f8c00fcff3a001e007800104078000004e0009e
:104f9c00f3ff3a000080fa00000006000200fa005d
:104fac00004f780033c2bf00624060000004e00094
:104fbc00fcff3a001e80fb00a011880033c2bf002a
:104fcc00624060000004e000fcff3a000080fa0040
:104fdc00000006000400fa00000f780032c2bf0087
:104fec00614060000004e00007003200b011800056
:104ffc00804078001e0078000148780010002000e6
:10500c0010079800020037000000eb001007980012
:10501c001e0090000080fa00000006000200fa005a
:10502c00000f780023c2bf00624060000004e00063
:10503c00fcff3a00090037001e0078001040780091
:10504c000080fb00201188001e0fe80023c2bf0067
:10505c00624060000004e000fcff3a001e00780093
:10506c00104078000004e000f3ff3a000080fa00e2
:10507c00000006000200fa00004f780023c2bf00b7
:10508c00624060000004e000fcff3a001e80fb0060
:10509c002011880023c2bf00624060000004e000c1
:1050ac00fcff3a000080fa00000006000400fa0041
:1050bc00000f780022c2bf00614060000004e000d5
:1050cc000700320030118000804078001e0078000c
:1050dc0001487800100020001007980002003700eb
:1050ec000000eb00100798001e0090000080fa00f2
:1050fc00000006000600fa00000f78002147980017
:10510c001e007800200798002e009000e10f500040
:10511c00040032002e009000e20f50000400320018
:10512c00050037002e409000d2ff07000200370028
:10513c002e40900099ff07000080fa000000060046
:10514c000800fa00000f7800110798001e00780084
:10515c00300798003e009000e10f50000400320030
:10516c003e009000e20f50000500320008003700ae
:10517c001e009000cdff07002007980006003700a6
:10518c001e00900093ff07002007980002003700d4
:10519c000000eb00200798002e0090000080fa0021
:1051ac00000006000200fa00000f78001e007800d4
:1051bc009aff07001e00780062ff07000080fa00cb
:1051cc00000006000c00fa00700520005007980043
:1051dc00700520004007980080c02c003007980014
:1051ec0080802c0030079800005028002007980081
:1051fc0080802c001007980000502800000f7800c9
:10520c005e019000ae0090003e009000bdfe0700d5
:10521c004e0190009e0078001e009000c5fe070015
:10522c000080fa00000006000200fa00000f78006f
:10523c000300370000c42900010020001101070001
:10524c001e0fe9000080eb009e0f1000f9ff3a00e2
:10525c000080fa00000006000e00fa000000eb00cf
:10526c00000f78000eff070020032000eeff070060
:10527c00d4ff0700806b2a0068ff0700806d2a00ae
:10528c0066ff07000000eb00200798001027fc00c9
:10529c00008020004fff07000000e0000a003200f1
:1052ac00e06e2a005dff070020002000000f780050
:1052bc00018020009140780010ccb30080cf5000ca
:1052cc000b003a000d00370010002000d6ff07003d
:1052dc002e0090000000e80020079800ae0090001f
:1052ec00f07c2000808f50009f003e00e7ff3700cd
:1052fc00e06f2a0049ff07009b0037001027fc00d5
:10530c0011cfb3001e0078007aff070030712a001d
:10531c0042ff0700000037000000eb005007980028
:10532c008000eb00410798001027fc00b1ccb300c3
:10533c001e0078006fff07000000eb0010079800bc
:10534c000000eb00600798002c0037000000eb0019
:10535c00200798001027fc00e60047001e0078008c
:10536c0077ff07000000e00011003200ce00900033
:10537c006e419000008020000080400002487800c0
:10538c00ce0090008100e800410798006e4090002c
:10539c000080fb00de0090008080400051079800e8
:1053ac006e0090000000e8006007980013003700c2
:1053bc001e0090000000e800100798009e0090006e
:1053cc00f0c32900808f5000050036000000eb0070
:1053dc00100798002e0090000000e80020079800ad
:1053ec00ae009000f07c2000808f5000d9ff36007a
:1053fc00c0722a0009ff07005b003700ee00900026
:10540c00e38f5000d1ff360003c8bf00e14f4000ce
:10541c0004003a0002c8bf000080fb0082ff0700b6
:10542c00510037000000eb00100798000000eb0063
:10543c00600798002d0037001027fc000000eb00df
:10544c00200798001027fc00e70047001e0078009a
:10545c003bff07000000e00011003200ce0090007e
:10546c007e419000008020000080400002487800bf
:10547c00ce0090008100e800410798007e4090002b
:10548c000080fb00de0090008080400051079800f7
:10549c006e0090000000e8006007980013003700d1
:1054ac001e0090000000e800100798009e0090007d
:1054bc00f0c32900808f5000050036000000eb007f
:1054cc00100798002e0090000000e80020079800bc
:1054dc00ae009000f07c2000808f5000d9ff360089
:1054ec00c0722a00cdfe07001f003700000c200000
:1054fc00ee009000808f5000cfff3600f00f2000a0
:10550c00de00900080806000510798005e009000e3
:10551c000000e000070032001027fc00e1ccb300d3
:10552c001e007800f3fe070050732a00bbfe070034
:10553c0079ff370003c8bf00e24f400004003a0077
:10554c001027fc00008020002b00070072ff3700a2
:10555c001027fc00008020001800070080742a002f
:10556c00aefe07006cff3700a0742a00abfe0700ec
:10557c0000020400000000000000eb000080fa00b4
:10558c00000006006400fc0010002400003b8800b2
:10559c0050052000303b8800a00a2000303b8800da
:1055ac0061e7a800000000000000000061e7af0008
:1055bc00feff37000200fc0000000600900078009f
:1055cc000080e80010017800920188000080e8005b
:1055dc000304200092018800b058bb00b050bb00ff
:1055ec00b0c8bb008180e8008301e900f9ff3a00f4
:1055fc00e4ff070000000600900078000080e8003f
:10560c0010017800920188008108bb006400fc0046
:10561c0020042400003b880050052000303b88000b
:10562c00a00a2000303b880061e7a80000000000c1
:10563c000000000061e7af00feff37000200fc0035
:10564c00000006000000fa00ca22a900c622a90028
:10565c00caa2a900c6a2a900e4c2a900e4e2a8005b
:10566c00e502a900e522a900d302a900c602a80000
:10567c00cb22a900c722a900d362a8000080fa009f
:10568c0000000600f03fb1000180b10006003500bb
:10569c00ee03090000000000403fb1000180b100a2
:1056ac00fbff3d001000b000203fb00002003500b1
:0c56bc0000800900000000000000060053
:020000040000fa
:020000040005f5
:1056c80000080000c6000000000000000000000004
:020000040000fa
:020000040005f5
:0456d8000000fe00d0
:00000001FF
