:020000040000fa
:080000000002040000000000f2
:020000040000fa
:10040000afbe2000007f2400000188000000000033
:100410000a00070011000700000020000000e000b3
:10042000020032000000020000000000183a020042
:10043000000000000040da000000fe004440a90077
:10044000201420000000e000030032000000200023
:10045000a00188004440a8000000060060e52300d9
:10046000010020001500370062004000e0804800d5
:10047000910188009001ba0062004000e0804800cd
:10048000910188009002ba0062004000e0804800bc
:100490000002eb006028e10004003a000059eb0084
:1004a0008301e900fdff3e00040037006128e10000
:1004b000010032000082eb00050007009101880076
:1004c0001001ba000200e000e7ff3a00000005005a
:1004d000910188008002780062004000e0804800be
:1004e0003559ba008301e900080032002559ba00e5
:1004f0008301e900050032000400e000f4ff32004f
:1005000015d9ba008301e900f1ff3a0000000600a6
:100510009e430400000000000044040000000000ae
:100520003c430400000000003e44040000000000c2
:100530009c02040000000000881f7800020478007c
:1005400014000700080040004f0478000000060077
:100550000000fa00881f7800000478003fb9970077
:10056000ea81570080007800c029200010000700b1
:10057000800078000000e000020035000040eb0041
:1005800000f47800010078004f0478000080fa0041
:10059000000006008001eb000200370061f07900e6
:1005a0008301e800828f5100fcff3a000000060042
:1005b0006200fa00889fbe008a9fbe000004be0051
:1005c000020578008300780060f92f000f004000da
:1005d000b000070088979f0099979f000000eb00ec
:1005e000a09f9f009a4578000b80fb000000ea0066
:1005f000cf04de0050c2b30080cf550002003200ad
:1006000009047800010037000904e9000800e0004f
:100610000b0034001f909700080178008a007800d2
:100620008f9197000300010090979f000000e00069
:10063000930032002f98970000004400a09f9f0075
:100640000905450050c2b30080cf550004003200b8
:100650000b04e000e3ff3a002f9897008900370071
:100660000000eb00809f9f00f0979f00e0979f00a5
:10067000d0979f00c0979f00b0979f00c09f9f009a
:1006800009003700609d20000080500000004000fd
:10069000a19c2000e10078004f98970001007000b5
:1006a000c09f9f000a05e8001a4478008800fb00fc
:1006b000609d20007c000700800078000000e000c2
:1006c000f0ff3a00a0c2b300804f54000e003a0081
:1006d000bf8897000180e900b08f9f00100078006c
:1006e000b09f9f000000e00005003d000000ea0010
:1006f000b09f9f004f9897000020a000c09f9f00d0
:100700000a05e80010003700b19f9f00090037007c
:10071000bf989700f0ff2700808f50000400320040
:100720006a08b9000000410003004000b09f9f002c
:100730000a05e8001a01fb0003fd2f000300410039
:10074000e90f5000f2ff3600e0c2b3009a4f1000ec
:10075000040032000080eb00909f9f008a04780024
:100760001c0037008a04e800a0c2b300994f1000b3
:1007700007003a00bf8897000180e900b08f9f0012
:1007800010007800909f9f008a84e80011003700d5
:100790000000eb00909f9f00090037009f98970092
:1007a000f0ff2700808f5000040032006a08b90073
:1007b0000000410003004000909f9f008904e80072
:1007c0001901fb0003fd2f0003004100e90f500059
:1007d000f2ff3600194478008800fb00c09d20001d
:1007e000310007000000e00002003a0000447800f9
:1007f000010037008904e800a87f9f0080c6b3008d
:10080000804f540004003a00994f14000a003a0047
:100810006640500006003700c0c6b300804f540049
:1008200005003a00994f140003003a00654040006b
:10083000a07f9f008904e8000905e800c8fb2f009d
:100840000f04440060f92f000f0040008085e8008d
:100850008801780019417800800078000b0078004a
:100860001a0007000000e00005003a008800780048
:100870000b007800920107000000e00059ff3d00e6
:100880000080eb004f05be004f04be000080fa0060
:10089000000006000200fa00f1bf9f000108780086
:1008a0000080fa0000000600040037000204e000a7
:1008b00001003a00000005000000e8001041780047
:1008c000814f5100f9ff3a0000000600889fbe00ea
:1008d0008a1f7800000478000102780082447800c2
:1008e0000305780070c6b300804f510021003c0022
:1008f00000c0e900804f5100de003d007240500012
:10090000804f51004b0132000d003c006c40500004
:10091000804f51005e013c0000c0e900804f510053
:10092000d4003d0050c2b300804f51005501320049
:100930007c404000804f510055013a00cd00370007
:1009400010c6b300804f5100ca00320004003c00c2
:1009500069405000804f51004d013a00720037004d
:1009600030c6b300804f5100180032000040e8004c
:100970000900370000c7b300804f51001e0132004c
:1009800008003c0000c0e900804f5100e400320044
:1009900065003c006540500080cf54003c013a00a7
:1009a0000f00370050c7b300804f51005e00320087
:1009b00063404000804f51005b00320065405000b2
:1009c000804f510032013a001a0137009180e9004e
:1009d000010a7800780090009171780032013700a8
:1009e000a8609000c0c6b30080cf50000a003a0053
:1009f0009400780064805000000a78001000be0067
:100a00004f89de00cf91de000002be0002037800b5
:100a1000820378001300370010c7b30080cf500066
:100a200003003200a0c6b30080cf500006003a0099
:100a30009400780068805000000a78003002be0000
:100a40002003be00070037001480e900000a780088
:100a50001000780000027800cfa2de0005037800c5
:100a600086037800049cbe000694be00a860900037
:100a700080c6b30080cf50000e00320020c6b30005
:100a800080cf500005003a000400fb00cf80de005c
:100a900001017800820178000a00370040c7b300e6
:100aa00080cf5000030032006640400080cf5000ed
:100ab00006003a0004007800cf80de0001017800d3
:100ac00082017800009cbe000294be003800be0087
:100ad0002801be00e00f5000e08f5800e00f5900e1
:100ae000e08f590003003d0078009000d1c2b300b0
:100af0000a003700081090000018a300030032001d
:100b000078009000b1c2b300040037000008a300d1
:100b1000530032007800900001c2b30001757800e4
:100b20000000e8004d003700a8609000c0c6b30088
:100b300080cf500006003a00940078006480500096
:100b4000000a78001002be006033b80013003700be
:100b500010c7b30080cf500003003200a0c6b3001e
:100b600080cf500006003a00940078006880500062
:100b7000000a78003002be002003be0007003700e4
:100b80001480e900000a7800100078000002780064
:100b9000050020000600200007002000049cbe0085
:100ba0000694be00a860900080c6b30080cf5000bd
:100bb0000e00320020c6b30080cf500005003a007e
:100bc0000480fb0001002000020020000300200040
:100bd0000a00370040c7b30080cf50000300320046
:100be0006640400080cf500006003a0004007800c4
:100bf000010020000200200003002000009cbe0035
:100c00000294be00081090000038a30014003200c7
:100c10003800be002801be00e00f5000e08f5800f1
:100c2000e00f5900e08f59000d00320080c7b3007b
:100c300080cf54000300320080c5b30080cf540041
:100c400007003a007800900001c3b30001757800f6
:100c50008000e80009f578000080e8007004980042
:100c600078009000000045006004980089407800fa
:100c70006d003700a8609000c0c4b30080cf500062
:100c800006003a009400780068805000000a78005e
:100c90005001be004000be000500370094007800ff
:100ca00064805000000a78001000be001908070098
:100cb000009cbe000294be00380090000000e000de
:100cc00003003d0078009000d1c2b3000a00370055
:100cd000081090000018a300030032007800900074
:100ce000b1c2b300040037000008a30005003200c1
:100cf0007800900001c2b300017578000000e800a0
:100d0000700498007800900000004500600498008e
:100d1000894078000800780033010700640037003c
:100d2000a8609000c0c6b30080cf500025003200fc
:100d30000a003c006440500080cf50002800320080
:100d400000c0e80080cf500014003200684050001e
:100d500080cf500022003a000a00370040c7b3009d
:100d600080cf50001e0032006640400080cf50000f
:100d70001b0032006940500080cf500018003a003c
:100d8000060037001480e900000a7800100078009f
:100d9000485c900008487800450037001480e9005e
:100da000000a78001002780068089000cf80de000a
:100db0000101780082017800009abe000292be0014
:100dc0003b0037001480e900000a78001001780029
:100dd00068089000cf80de000089be003400370034
:100de0001480e900000a780010007800680c900078
:100df000080878002e0037001180e900800878008c
:100e000010007800cf80de000101780082017800b8
:100e1000009cbe000294be007800900000004500d7
:100e20006004980081c7b30008007800170307002a
:100e30001f0037001480e900000a780010007800d5
:100e400060049800580990000200e00002003d0094
:100e5000c6030700090037008000eb00ca03070043
:100e6000800078000000e00003003200680090007d
:100e7000008050000100370058089000100c9800c6
:100e80000b003700780090000275780006003700ec
:100e900078009000800045000904e00001003a005d
:100ea00059c2b300894878000000e8007004980037
:100eb0000000eb004f0578004f04be000000060064
:100ec0000400fa00889fbe008a9fbe008c1f780035
:100ed000000478000106780070089000f800900087
:100ee0000100500088089000010050009808900010
:100ef00001005000a808900001005000b8089000c0
:100f000001005000c8089000810550000002220036
:100f100090bf9f0000032300a0bf9f000810900017
:100f20000028a30018003a000b00e000160034006f
:100f30008b04780009057800e28f54000200360027
:100f40002a002000020037000900e0000b003400f6
:100f500058009000c80190000a017800ee80570008
:100f600003000100500498000000e00096003200e9
:100f70006808900000004500600c98008a845400c6
:100f80004240a900ebff3c00780190000200e00025
:100f90000b00340058009000c80190008c007800cd
:100fa00003000100500498000000e00086003200b9
:100fb00068089000f800900001004000600c980064
:100fc000880c90000900e000150034000905780045
:100fd000e28f5400020036002a0020000200370091
:100fe0000900e0000b00340058009000c801900098
:100ff0000a017800ec8057000300010050049800bb
:101000000000e00070003200680890000000450019
:10101000600c98008a8454004240a900ebff3c0019
:10102000180990000200e0000b003400e800900076
:1010300058009000c801900003000100500498007f
:101040000000e000600032006808900098089000fe
:1010500001004000600c9800a80c90000900e0001e
:101060001500340009057800e28f540002003600b4
:101070002a002000020037000900e0000b003400c5
:1010800058009000c80190000a017800ec805700d9
:1010900003000100500498000000e0004a00320004
:1010a0006808900000004500600c98008a84540095
:1010b0004240a900ebff3c00380990000200e0002c
:1010c0000d003400e8009000180890008080400077
:1010d00058009000c80190000300010050049800df
:1010e0000000e0003800320068089000b808900066
:1010f00001004000600c9800c80c90000900e0005e
:101100001500340009057800e28f54000200360013
:101110002a002000020037000900e0000b00340024
:1011200058009000c80190000a017800ec80570038
:1011300003000100500498000000e000220032008b
:101140006808900000004500600c98008a845400f4
:101150004240a900ebff3c00081090000028a300cb
:101160001b0032000b00e000190034008b047800f3
:1011700009057800e28f5400020036002a002000a2
:10118000020037000900e0000b0034005800900016
:10119000c80190000a017800ee80570003000100aa
:1011a000500498000000e00007003200680890003a
:1011b00000004500600c98008a8454004240a90059
:1011c00003003400eaff37000080eb000100370025
:1011d0000000eb004f0678004f05be004f04be0034
:1011e0000080fa00000006008f04b000889fbe0057
:1011f0008a9fbe008c9fbe008e1f7800f0b79f00b4
:1012000081f79f005001be004000be00f0979f0094
:10121000819f9f00929f9f00a39f9f0010c6b300d5
:101220000ff19700804f51001600320010c4b30038
:10123000804f510013003200ffb197005308900017
:101240000000e00003003d0060002000d00998008d
:101250000c0037000000e0000a003a0070c6b3003e
:101260000ff29700804f52000300320070c4b300a9
:10127000804f520003003a0010002000ffb2970098
:10128000d00a9800ffb09700c0fa2f000f0040006e
:10129000c702070080017800e20f500015003a00f5
:1012a00030002000ffb097009008980010c6b300ef
:1012b0000ff19700804f51000a0032006440400057
:1012c000804f5100070032000040e800804f51007d
:1012d00004003200619720000040e800804f510078
:1012e00001003a00a1972000ffb197006300900031
:1012f000160037000000e000180034003000200025
:101300007fb29700100a980010c6b3008ff29700c2
:1013100080cf52000a0032006440400080cf52006b
:10132000070032000040e80080cf52000400320085
:10133000e19720000040e80080cf520001003a0011
:10134000219820007fb1970062009000315878000a
:101350003158780011487800c601370014c6b30030
:101360008ff2970084cf52000300320010c4b30004
:1013700080cf520013003a007fb0970060019000c8
:101380008200780000c3b30080587800ffb2970055
:10139000e102980080c7b3008ff2970084cf52001b
:1013a0000100320080c5b300804878000280e80068
:1013b000ffb09700e0009800710090000080e80006
:1013c000f00098000300e00005003a00e3979f005a
:1013d00064fb2f000f01420003077800a0013700d3
:1013e00065982000e5b79f0010c6b3008ff0970006
:1013f00080cf50000500320010c4b30080cf5000f1
:10140000a7003a0072992000e2b79f00ffb1970051
:10141000530890001e0220000000e000010035008b
:101420000007e8000e02e800d4b79f006022b80071
:101430006033b8007f9097008f9897001f999700ae
:10144000af99970052060700ffb097003102be0027
:101450002103be000000e00004003d000400be00c7
:101460000601be0003f0a200020037000400be0027
:101470000601be00f0979f00819f9f00929f9f00f2
:10148000a39f9f006f91970064015100e2979f0016
:10149000c3fa2f008f8141006a8041000048eb00b1
:1014a0006b824100c4b79f0031003700c2012000a9
:1014b00003002000e5fa2f000f80420068020700b9
:1014c0007f9497008f9c97001f9d9700af9d97007a
:1014d0000800be000a01be00320607000006be007a
:1014e0005fb1970067015100d2b79f004240a90049
:1014f0000a003400570607000002be000203be00c7
:101500000800be000a01be0055060700f0979f00c4
:10151000819f9f00929f9f00a39f9f00cfb1970044
:101520006780410071002000050037006f60660091
:101530004c6add004466de000c067200c4eede007c
:10154000e00f5600e08f5e00050034008100e900e6
:10155000e18f4000f5ff3a00010037000060eb002a
:101560008100e900fdff3b0067004000c0b79f001d
:10157000dfb297000500e000090034006022b800e7
:101580006033b8007f9097008f9897001f9997005d
:10159000af999700340607000000e000c3ff3c004d
:1015a00060fb2f008f0040004fb1970001005100f9
:1015b0000000e9008e0f500001003d000007780098
:1015c0000e00e00003003d0073fb2f000f8141007f
:1015d0002c003700800f570005003d000e804000b2
:1015e00010409000f3c0b300e74f500001003c00f2
:1015f0008041eb00c4fa2f000f0242000e004200af
:101600006a0040008e007800010037000000e90009
:101610008100e90010417800834f5100fbff320048
:101620000107e800efcf510001003a000248e8004e
:101630000100e0000300350075fb2f000f81420020
:10164000060037000e07e8006f9097006400400026
:10165000e0979f0061fb2f000f8140008e0041004a
:101660008e017800030037001100fb006fb2970075
:10167000e44878008301e9008100e9000300e0000c
:10168000f9ff3d00ffb29700550890000000e00010
:10169000f3003d000e00e900d00a9800f00037008a
:1016a0007f9497008f9c97001f9d9700af9d970098
:1016b0006022b8006033b8000800be000a01be0016
:1016c000b30507000000e00005003d000bf0a2009c
:1016d000f8979f00899f9f009a9f9f00ab9f9f0054
:1016e0006f909700725927000280b900026a2800a3
:1016f00013002000e1050700e4005000e1979f007f
:1017000015003b00e3801000c0ff2f000084600044
:101710000800ea00e0979f007f9097008f9897005d
:101720001f999700af999700e992200007003700b2
:101730000808a300030032003902be002903be00de
:10174000dd0507000884d100e88444000800e000bb
:10175000f7ff3c001b0037000100e0001d003400d3
:10176000c0ff2f0000806000e0979f000004780019
:101770006000b8000200200003ff2300e99220006f
:10178000070037000808a300030032003902be003a
:101790002903be00c80507000884d100e88444007e
:1017a0000800e000f7ff3c000002be000203be009c
:1017b0007f9097008f9897001f999700af99970097
:1017c00032060700f0979f00819f9f00929f9f0025
:1017d000a39f9f00ffb097005109900060c6b3001f
:1017e0008ff1970080cf510004003200610020008b
:1017f00060c4b30080cf510002003a006f9297009e
:10180000ea00420001074100f30f570001003400d5
:101810003e01200000c3b300e0779f0075fb2f005e
:101820008f824200b5b79f00330037000800be002a
:101830000a01be005b0507000006be0068075700ee
:101840004240a9000e003400820507000002be00dd
:101850000203be000800be000a01be0080050700aa
:101860006022b80046782d00771924009205070001
:10187000f0979f00819f9f00929f9f00a39f9f00d2
:101880003fb0970068044000890020000d00370039
:10189000a4002000050020000c01be00e0fd2f0088
:1018a0000f004000e70107007fa897008fb0970066
:1018b0001fb19700afb1970004c3b30004644100a7
:1018c0000006be00e00f5600e08f5e000600340008
:1018d0008904e900e18f4400edff3a00020037007f
:1018e00000c3b300006478008904e900fcff3b00fa
:1018f00068044400b8b79f000e00e0000b003400fd
:101900007f9497008f9c97001f9d9700af9d970035
:101910006022b8006033b8000800be000a01be00b3
:10192000510507000000e000c0ff3c00c5fa2f0091
:101930008f8242006a804200bfb097000080500052
:101940008001e9006f919700e70041006b81420040
:10195000010037000201e80000c3b300924f1000fd
:10196000fcff320074fb2f000f004200808040001b
:10197000828050000080410002025000e1979f00e9
:10198000ffb29700d509900060c6b3008ff29700b0
:1019900080cf52000300320060c4b30080cf5200f9
:1019a00002003a008100e8000a00370050c6b30088
:1019b0008ff0970080cf5000050032008000eb00d0
:1019c00050c4b3008ff2970080cf520001003a005c
:1019d00011002000018741008e0f520001003d00e0
:1019e000040778000e00e0001d003500840f57004a
:1019f00005003d00e2407f0095c3b30040c3b30043
:101a000080cf500001003c0005c3b3000e00410030
:101a10008000e9008e017800010037008100e900b4
:101a20008301e90011427800854f5200fbff32002c
:101a30000307e80090c3b30080cf520001003a00d2
:101a40008448e8000300e00005003d000201e900d1
:101a50000e07e8006f9097000000e800e0979f00f5
:101a60006f9297008e0178008ff097007fb09700fb
:101a7000910107004f0778004f06be004f05be00da
:101a80004f04be008f04b10000000600ef02b0005a
:101a9000889fbe008a9fbe008c9fbe008e1f78006c
:101aa00000067800909b2000c0b79f0080c5b3005f
:101ab00080cf500008003200829a2000c2b79f00f9
:101ac0007740400080cf500003003a0083002000a0
:101ad000b3b79f000a00370080c7b30080cf500023
:101ae00005003200a4002000b4b79f0080c5b300f9
:101af00080cf500002003a0000012000b0b79f00e4
:101b00003c04be002c05be0040c6b30080cf500090
:101b1000030032006540400080cf50000b003a00c7
:101b2000e00f5400e08f5c00e00f5d00e08f5d008f
:101b300006003d006000b8006011b80008045000c5
:101b4000898458000a0559008b855900e00f54001c
:101b5000e08f5c00e00f5d00e08f5d0004003a0064
:101b60005c0890008d0120000000e0000c003200b5
:101b7000bfb0970001027800cfa2de000503780015
:101b8000860378000800be000a01be001a0607009e
:101b90004fb2970064407800d0df9f007d012000a5
:101ba0003fb0970000027800cfa2de000503780066
:101bb000860378000800be000a01be000706070081
:101bc000009ebe000296be000d00e90061fc2f00e1
:101bd0008f804000008740001e0037003fb1970013
:101be00002047800cfc4de00090578008a05780079
:101bf0000802be000a03be007fa897008fb09700be
:101c00001fb19700afb19700ff050700d0b79f0045
:101c1000e1b79f00f2b79f0083bf9f008d06e900e8
:101c20000802be000a03be007d0607007faa9700d7
:101c300000005200cfb09700615778005fb0970066
:101c4000efb097007fb197008fb99700009ebe005c
:101c50000296be003c00be002c01be00f0af9f000b
:101c600081b79f0092b79f00a3b79f00e00f50007d
:101c7000e08f5800e00f5900e08f59000200340057
:101c80000d00e000d5ff3c00bfb09700e88f50008a
:101c900010003a000c1090000038a3000d00320034
:101ca000f78f560006003e0062fc2f000f01410036
:101cb0008d00410000c3b300914f100005003200b9
:101cc0008d06e90000c3b30063fc2f008f81410043
:101cd00080f17e0078811600120e98006c00900052
:101ce00063fc2f008f8141008d80410029fa07009d
:101cf0001c0990005c089000800f510006003d0018
:101d000002005000000e98000c1090000040a1004e
:101d1000001698000f0037000000e0000d003d00a5
:101d20000c10900074006000f00f500009003a00a1
:101d30007c089000fc009000010050008c0890008e
:101d400001005000020050004240a9000100340090
:101d5000000e98004f0778004f06be004f05be00ea
:101d60004f04be00ef02b1000000060080007800c2
:101d7000010037000000e8001004e000fdff3a0019
:101d800001005000000006008001eb000400370055
:101d90008301e80090cf1000040032000000e8004a
:101da000828f5100faff3a000000eb0000000600ad
:101db000889fbe00800478006684400000ff2700f2
:101dc000180060004401de00f07f2000800f510009
:101dd0000e003a00800ceb00180478006f006400dd
:101de0001c003a00210090000000e00019003a00b9
:101df000110090000000e00016003a0010002000e2
:101e00001100e00014003200120037000200e00070
:101e100005003c0001007800db01070000017800ac
:101e20000000e00008003c00f000280018006000fe
:101e300001fe2300010c700020c02f00800c410027
:101e40000080eb0004003700800ceb000000eb008a
:101e500001003700200020004f04be0000000600f3
:101e6000889fbe008a1f78008c9fbe000004780007
:101e70000206be00e6044000190178000200d0000e
:101e80004505de008a007800f07f2000800f5500b5
:101e90000c003a006f00610065003a0028009000d5
:101ea0000000e00062003a00180090000000e0002e
:101eb0005f003a00100020001800e0005d003200d2
:101ec0005b0037000a00e00007003a0008007800d5
:101ed000ad010700800078000000e000020034003f
:101ee0000a007800530037006108b9000c01400077
:101ef0008d814800e07f2000800f5100e08f590065
:101f00000d0034001900e00004003d006000b8003e
:101f10000200200003ff2f00030037006000b8001c
:101f20000200200003ff2700009cbe000294be00b8
:101f3000100020003f003700e00f5100e08f5900f3
:101f400005003400f000280019006000c410dd0016
:101f5000810c70003400370019007800010028005f
:101f6000010360006f0060000040a000800c78005a
:101f700061015100e0815900c0fc2f00f1ff2f00ea
:101f8000800f5100818f59000d003d00860c7800b4
:101f90000000eb002004980010049800000c78006a
:101fa000240037008880e800110c780064004400a9
:101fb0009008780019087800800ceb00700141004f
:101fc000f00f4100f7ff34008202ea0015003200f2
:101fd0008881e80070821200980078008508de0091
:101fe000130078000400dd00008c700064014400e0
:101ff000930078008508de00120078000400dd0000
:1020000080897000920078008508de001900780051
:102010000400dd0000897000190078000500de0072
:10202000800c7800990c73000080eb0001003700f1
:10203000200020004f06be004f0578004f04be0070
:10204000000006000400fa00889fbe008a9fbe00c0
:102050008c1f78000006780092bf9f00a3bf9f00ee
:102060000404be000401be001fb89700afb897007b
:10207000820307000005be000001be000800be008c
:10208000950507001fb99700afb9970000005100f0
:102090008180590020069800310698000a8ebe0003
:1020a0000c0078004f0678004f05be004f04be00bc
:1020b0000080fa00000006000e00fa00889fbe00b3
:1020c0008a9fbe008c9fbe00000478000145780006
:1020d0000206780083047800840678000300e0009c
:1020e00002003c00190020006c9e200060c6b30076
:1020f000804f55000e00320060c4b300804f550081
:102100000b00320070c6b300804f55000300320050
:1021100070c4b300804f55009c003a00e48f460025
:102120008000350058089000808f56007d003d00eb
:102130008d05e80060c6b300804f550010003200e6
:1021400060c4b300804f55000d00320008109000ad
:102150000038a30004003a0058089000808f540013
:1021600001003d00590c9800580890000b005000e9
:10217000500c980002003b000000eb00500c98004f
:102180000b00e00027003c00180990006800900058
:1021900001c3b300017079008201e800130c9800bc
:1021a000580890000000e00003003c000810900078
:1021b0000038a3000500320068009000e1c2b300bf
:1021c00001f079000280e800100c9800d808900017
:1021d0000b00ea00808f500001003d008105ea00fd
:1021e0000b00ea00200c980001804500500c98007c
:1021f000890f500001003d0080047800390c9800e0
:1022000068009000980890000100400009017800e3
:102210008c007800dff80700580890000900500093
:102220001a00370098089000680090008b8f5400c7
:1022300018003d0001004000090178008c00780082
:10224000d4f807001808900000814400120c980090
:1022500009805500200c9800580890000000e0000c
:1022600003003c00081090000038a3000600320074
:10227000e8009000e0c2b300807079003808900058
:102280000000e800300c980058089000400c9800be
:10229000a6003700010040000b0178008c00780098
:1022a000bcf807001808900000814500120c980047
:1022b0008b845400580890000000e00003003c00ac
:1022c000081090000038a30005003200680090005c
:1022d000e1c2b300017079000200e800100c980020
:1022e00058089000890f500001003d0080047800dc
:1022f0006800900098089000010040008b004600a4
:1023000009017800a3f80700180890000080440035
:10231000100c98005808900009005000200c9800fc
:102320008200370070c6b300804f550003003200b2
:1023300070c4b300804f550014003a005808900054
:10234000808f540004003d00081090000038a30066
:1023500001003a00590c9800580890000000e9006c
:10236000500c980002003b000000eb00500c98005d
:1023700070c6b300804f550002003a005ac6b30041
:102380000b0037005ac4b3000900370010c6b30071
:10239000804f550002003a000ac7b300040037001e
:1023a00010c4b300804f550001003a000ac5b300c5
:1023b00018099000680090003c7079008201e800e4
:1023c000130c98000c027800580890000000e00000
:1023d00003003c00081090000038a30017003200f2
:1023e000e8009000e0c2b30080f079008280e8004d
:1023f000110c9800580890000000e0000f00340015
:102400008904e900890f500001003d008004780034
:102410006800900000804000090178008400780086
:102420005cf807001808900000804400100c980029
:102430005808900009005000200c98006800900097
:1024400098089000010040000086e8000a587800d3
:10245000800078000d00e00004003500b0c2b30039
:10246000804878008c04780004003700d0c2b300a4
:10247000804878008c0478008d06ea008005eb0027
:102480000a003700a20020008d00780070805700fd
:10249000890007000fb897009fb897007a81550010
:1024a00001f17f008b05e800800678000d00e00058
:1024b000f4ff3c00e18f550009003c0050c6b3001a
:1024c000804f55000300320050c4b300804f5500c8
:1024d00003003a0000c3b300005e78008c0478006b
:1024e0000b00e000040032000b00e900fa80570006
:1024f000008040000600370000c3b300805c780015
:10250000050037008b05e90002c3b300a05c410061
:102510000b00e000fbff3c00680090009808900072
:102520000100400000805400300c9800081090001a
:1025300074006000f00f50000e003a007800900028
:102540009808900001004000a80890000100400099
:10255000b808900001004000c808900081004000c9
:1025600078089000808f500002003d00010050006c
:10257000000c98004f06be004f05be004f04be0081
:102580000080fa000000060000027800e602400029
:102590001500780001002800810360006f006000d2
:1025a000800a780012003a00240090000000e00049
:1025b0000f003a00140090000000e0000c003a0008
:1025c000160020001400e000380032000800370038
:1025d000e4004200910a78000480e8009008780046
:1025e00014087800000aeb00700353000100370064
:1025f000160020001500e000f5ff32001300370040
:102600006401420080004000120078004f00de00ac
:10261000808a70008481e800920078008180400008
:10262000130078004f00de000089700093007800ee
:1026300081804000140078004f00de008089700027
:1026400014007800000a40000603e9001500780035
:10265000ef0f5000eaff3600100037000481e80059
:102660009400d100120078004f00dd00008a700055
:10267000e40042009201d100110078004f00dd001b
:10268000008971001101d100150078004f00dd00b4
:1026900080087100950ad1000603e8001500780053
:1026a000ff0f5000edff3e00ef0a6000958a7300b7
:1026b000060078000000060002027800809fbe003d
:1026c000110009008200d800000178004f00be0010
:1026d00002a2b9008480500011009800020878001e
:1026e00000000600889fbe008a9fbe008c1f7800f5
:1026f0001a0107002101330003866c006450e100d9
:10270000240032006420e100270032006150e10023
:10271000220032006120e100210032008b8542005e
:10272000eb07b1000134b800003ab80008044200d9
:1027300089844a00013ab8000030b800888040001f
:1027400009014a0004003300000040008180480075
:10275000020149008b05e900c909dd008301700011
:102760000100320013002000c814de004814dd0010
:102770004709de001200b200c808de0008847000bd
:102780000e01070001f0a1000cf0a70001f0a0006d
:10279000030137006120e100050132000801be009d
:1027a0000200be00f7ff37006150e100fcff3a0075
:1027b000ff0037000001be00260107000470a700db
:1027c00003f0a10003f8a30013003a006509b1006b
:1027d00010003200090035006928e10002003500d0
:1027e0000100280000000500000040008180480032
:1027f0008502e900fcff3a0000000600f88f420065
:10280000050035008100d1000080d3008502e8007a
:10281000fcff3a00000006008000eb00000005000d
:10282000889fbe008a9fbe00010578000100e0007d
:102830000400350008003c000000e00020003200e9
:102840000500370060001000e080180002003b0027
:1028500001f02c001a0037000004be006011b8001f
:102860006b0920000982cf00020039000882cf00e6
:102870000441b000694252000e00320008003b00e3
:1028800082817100610164008904d1000884d30051
:102890008b05e8000442e800f9ff3a000500370024
:1028a0000804440089844c008b05e9000442e900d7
:1028b000fbff3a00c10007000af0a70001f0a000ea
:1028c0004f05be004f04be000000060003f0a2004a
:1028d000889fbe008a9fbe008c1f78009f00070063
:1028e000a60033006450e1004f0032006420e10094
:1028f0005200320003826c0007003b000905d00043
:102900000306d000820f54000c065d00020039005f
:1029100002003200890178000306780085825500a4
:1029200004003d000003fd008103fd008502ea0074
:102930008b854200840f720002003b006000100093
:10294000e08018006011b8000005eb007a28e10073
:102950000a00390006007800c75ddd00f707b20005
:10296000878075002d003700828171000a01780090
:10297000610560008180d1000080d3008502e900fc
:10298000f9ff3b00060440008784480002003b003a
:1029900060041400e0841c000988a30007003200d2
:1029a0008a81710082817100610164008904d10013
:1029b0000884d3008b05e800170037000978a300ce
:1029c00013003a000b00e000130034008b05e9000f
:1029d0000804440089844c000a4474000978a30068
:1029e0000d003a000b00e000070034008b05e90001
:1029f0000804440089844c0001003a000b002000c8
:102a00000978a300f7ff32000001eb000200370055
:102a1000828171000a017800680007000cf0a700ad
:102a200001f0a0005e0037006420e10002003a00df
:102a3000838f6c005e0033000801be000200be0000
:102a400057003700f4ff2f009700370014002000d4
:102a500095003700889fbe008a9fbe008c1f7800bb
:102a60003e0007004500330003866c006450e1001f
:102a70002e0032006420e100330032006150e1009a
:102a80002f0032006120e1003100320085855500c1
:102a9000eb07b00009002000080420000500370003
:102aa0000804440089844c000a00310006034300f6
:102ab00087834b000001530081815b00f8ff3300e6
:102ac0000203be000800a0000804440089844c00f2
:102ad000f6ff3900c639dd008301730001003200c2
:102ae000130020008904d1000884d3000998a300b2
:102af000050032000800a7000300a0008904d100ef
:102b00000884d3008b05e8008904d1000884d30031
:102b10000001eb000281d2002800070001f0a100b3
:102b20000cf0a70001f0a0001d0037006420e100b8
:102b30001f0032000801be000200be00f7ff370090
:102b40006120e1001a0032006000b800f3ff370096
:102b50000000200001f82700f0ff37000004be004d
:102b60003c0007000003be000405be000200be00da
:102b700038000700844f7500000006000200be0008
:102b80006450e100050036006420e10002003600d8
:102b90000968a30001003a000800be000160a0001f
:102ba0004f0678004f05be004f04be00000006002f
:102bb000f0ff2f00f1ff2700f9ff37008100200010
:102bc000618055000b003d000b00200061fe2f00ce
:102bd0000100e1001d003400828171006101640088
:102be0008904d1000884d3000000e800faff3a000d
:102bf00071002000610064000300700002006000aa
:102c00000900320061044400e0844c000988a500fa
:102c1000050032008b05e8006808e10002003a0078
:102c20008904d1000884d300f20f20000258e1008b
:102c300005003d00c75ddd00f907b2008980750021
:102c400008007800000006000bf827008b007800d1
:102c500000000500c70ade00f107b200f50fb20060
:102c600008003200e1cf4200020032000170a000f3
:102c700024000500810f70000100320004080500e7
:102c800044000500810f700002003a0014000500a6
:102c90008502e9000000400081c04800fcff3b00c5
:102ca0000170a00024000500889fbe008a9fbe001e
:102cb000841f7800a9ff07004f007800110033003f
:102cc000f0ff2f00838f6c0006003b0004056500b9
:102cd0000a00a7000800370009f0a6001000200035
:102ce00008003700820f5400838f5c000300390016
:102cf0001000200001003e000000200009f0a700a5
:102d00000000ea004f05be004f04be000000e000d6
:102d10000000060081037800ceff07000001be001e
:102d20006000b8000478a30013003a006220e100bc
:102d300015003e000d0039008301d1000281d3004f
:102d40008180d3008301d1000281d3008180d30030
:102d50008301d1000281d3008180d3000538b00007
:102d6000c42add00f300b2008381720007f0a700df
:102d700003f0a00000000600f3ff2700f2ff2f0081
:102d80006110b900fbff370003ff2700f7ff370092
:102d90008f1fd100560207008f87e9000000e00076
:102da000000006001400fa00889fbe008a9fbe0043
:102db0008c9fbe000004be000205be0068004700f4
:102dc0000a90be000890be00720207000070a700c3
:102dd0000bf0a100304320009e0290008082520040
:102de000b0fe2f000028e10011003d00b0fc2f00d4
:102df0000028e100150034001e0990008e089000a4
:102e00007e0090000501b0000201d1008180d30056
:102e10000080d3008502e800fbff3a000b00e000d1
:102e200097023b0060001000e08018009402370019
:102e3000f0ff2f00f1ff27000b00e00090023b00a5
:102e400001002800000020008d0237006000b8005b
:102e50008b0237004f89de00820178008d02370037
:102e600007f0a200c2023700809feb00200207009b
:102e70008f87e9000000e00000000600839f6800e3
:102e80000100e00002003d0060001000e08018003a
:102e90000300e00002003d0060011100e081190024
:102ea000300307004f00e00002003b00600010000c
:102eb000e0801800000006002800fa00889fbe008d
:102ec0008a9fbe008c9fbe0003866b0058020700dd
:102ed0000028a30064003a000128a30067003a001c
:102ee0000008a30062003a000108a30065003a0050
:102ef0001e009000be08900081064000ed3fb1002a
:102f0000f4805700ee019000111ab8008e0990006d
:102f1000311bb8009e099000311cb800511db8004b
:102f2000f485570046000700fe0190003a000700b4
:102f30008b85e8003e0007008e09900040000700e6
:102f4000ee019000340007008b85e8003800070090
:102f50008e099000400007009e0990001b18b800e1
:102f6000890440000a854800fe01900034000700f3
:102f70008b85e80038000700ee0190003000070064
:102f80008e0990001b18b800890440000a8548008b
:102f90000a98a30008003a000402420085824a0011
:102fa00006034b0087834b0008044c0089844c00c7
:102fb0000a054d008d06e9008482720085027300c7
:102fc0004c3add008502720001003200150020003d
:102fd000443ade001400b2004538de00cb45dd0087
:102fe0000b007000c540de00cb4ddd008b80700013
:102ff0004549de00cb55dd000b017100c551de00f7
:103000000d037800e702070003f0a1000cf0a70011
:1030100003f0a0001a0237001b18b8008502400018
:1030200006834800e0834b0060044c000700370033
:103030001b18b8000603400087834800faff3700da
:103040001b18b8008703400008844800e0844c0047
:1030500060054d00000006001b18b8000804400081
:1030600089844800faff37000108a30001023a00f2
:103070005800be005801be00e3ff37000008a3005f
:10308000fc013a0009047800f9ff37002800fa0033
:10309000889fbe008a9fbe008c9fbe0003866b0087
:1030a000e30107006400e100440032006408e1002d
:1030b0004a0032006100e100460032006108e10090
:1030c00049003200ec0647006000b8003d02be0037
:1030d0003d03be00f48657006011b8003d04be00f9
:1030e0003d05be007d0320000b0037000000a0005e
:1030f0008d06e900130032000402420085824a0076
:1031000006034b0087834b0000004000818048008d
:1031100002014900838149000802520089825a0055
:103120000a035b008b835b00f0ff3b000802420058
:1031300089824a000a034b008b834b008d06e9000d
:10314000edff3a008482720086827200f707b200b7
:103150008782720001003200150020001e049000da
:103160003e0b900006035400e63fb0000368a30046
:10317000070032000000a7000500a0008301d10075
:103180000281d3008180d3000080d3000603e800d1
:103190008301d1000281d3008180d3000080d3005d
:1031a0000002eb000482d2007e02070003f0a100bf
:1031b0000cf0a70003f0a000b10137006402470043
:1031c0006408e100ab0132003400be003401be00ef
:1031d000f6ff37006108e100a60132006011b80077
:1031e0006000b800f1ff370003ff27000200200055
:1031f000fbff3700881f7800000478005001be00f4
:103200004000be00040040008580480006014900df
:1032100087814900009cbe000294be000400e100ca
:103220000588e1000690e1000798e1000200310006
:10323000680044001008e8004f0478000000060011
:10324000f4874700889fbe008a9fbe008c9fbe0007
:103250008e1f78000205be000004be00d4b79f0098
:10326000e5b79f00f6b79f0087bf9f000000eb0007
:10327000c0b79f00b0b79f00a0b79f0090b79f0056
:1032800080b79f000d042000bfb097004fb097009b
:10329000000140000000e0000f003d004f08de008c
:1032a00000007100c0b79f009e00070001003d00b4
:1032b00012002000a100070001003d0012002000c4
:1032c000a6000700b1000700b60007000f0040008d
:1032d000c8ff0700220037004f08de00000671001b
:1032e000ccb79f008f00070001003d0012002000b6
:1032f0009200070001003d00120020009700070027
:10330000a20007000fb297009fb297002fb397005b
:10331000bfb39700a90007000000520081805a0047
:1033200002015b0083815b0080b79f0091b79f0023
:10333000a2b79f00b3b79f000007eb009f000700f4
:103340000020e10001a8e10002b0e10003b8e100c3
:10335000010031001e0020000e005600c0b79f0083
:103360004fb297000400e000070035001000200075
:10337000010020006011b80008047000898470000a
:103380000a0571008b8571008d06e900beff3a00c9
:103390000400e00003003d00820007000f00400031
:1033a00094ff07004fa897000000e00004003a00d7
:1033b0000fb497009fb497002fb59700bfb5970043
:1033c000940007004f0778004f06be004f05be006f
:1033d0004f04be004f01b10000000600881f7800b6
:1033e00018002000881f780095ff07008f87e900ec
:1033f0004f04780000000600801feb0090ff0700dc
:103400008f87e90000000600889fbe008a9fbe00eb
:103410008c1f78006e00070007003d007300070056
:10342000e00f5b00e08f5b0007003d00320007000b
:103430000006eb00040037003400070002003d00e6
:103440002a0007001c00200072000700e3ff0700ad
:103450000203be000002be000c00e00001003200ca
:10346000220007000400be000601be004f067800df
:103470004f05be004f04be0000000600889fbe003e
:103480008a9fbe008c1f78005100070005003d0098
:1034900056000700e00f5b00e08f5b0006003d0078
:1034a000040037001900070003003d006000b80069
:1034b0006011b8001000070056000700ceff07009b
:1034c0000203be000002be000c00e000010032005a
:1034d000060007000400be000601be004f0678008b
:1034e0004f05be004f04be00000006006000b8009b
:1034f0006011b800000037000402500085825800b7
:103500000603590087835900000006000006eb00ff
:10351000e00f5200e08f5a00e00f5b00e08f5b008d
:10352000000006000180400090b79f000001eb0002
:103530008fb097000100e00000000600020070005c
:1035400090b79f000180400080b79f000001eb0012
:10355000ffa897000100e0000000060002007000d4
:1035600080b79f00018040006faa9700cf20de0047
:1035700001007000f0af9f00040242002500070028
:103580004f18de000002720000000600e4af9f004a
:103590000804440089844c000a054d008b854d00c9
:1035a000000006003fb29700cfb297005fb39700cc
:1035b000efb3970000fe2f00000006003fb0970019
:1035c000cfb097005fb19700efb197000000060001
:1035d0000205be000004be00e00f5000e08f58005e
:1035e000e00f5900e08f5900000006006000b800ad
:1035f0006011b80008045000898458000a05590079
:103600008b8559001c002000e00f5200e08f5a000b
:10361000000006000800be000a01be00000006000f
:10362000889fbe008a9fbe008c1f78000205be00e6
:103630000004be000006eb00e00f5000e08f5800d1
:10364000e00f5900e08f590007003d006000b8000e
:103650006011b80008045000898458000a05590018
:103660008b8559001c002000e00f5200e08f5a00ab
:10367000e00f5b00e08f5b0002003d000f000700e1
:103680000c00a2000800be000a01be007101070084
:103690000203be000002be000c00e0000100320088
:1036a000060007000400be000601be004f067800b9
:1036b0004f05be004f04be00000006006000b800c9
:1036c0006011b800040250008582580006035900ba
:1036d0008783590000000600020ab900001bb900e8
:1036e0000200b80081004200810043000000060093
:1036f000889fbe008a9fbe008c9fbe000404be004f
:103700000605be00809fbe00829fbe0073010700b9
:10371000040678000800be000a01be006f01070021
:10372000840678004f03be004f02be008d4f760026
:103730007fb0970013003300f0ff2f008b8f6b00da
:1037400006003b000d0666000c00a7000a003700cb
:1037500007f0a600100020000a003700880f520072
:10376000898f5a008a0f5b008b8f5b000300390042
:103770001000200001003e000000200007f0a7001c
:103780000000ea004f06be004f05be004f04be0019
:1037900000000600800078005002be005003be000a
:1037a0004439de00f700b200f37f2000030161001e
:1037b000090032000218e10016003a00850172008b
:1037c00083017300838173000008200015003a0014
:1037d0004000200013003700850172008301730050
:1037e0008381730005003a0004a8be0006a8be004d
:1037f000100020000b0037000201e9000402420023
:1038000085824a0006034b0087834b000748a300cc
:10381000f9ff32000740a00004a8be0006a8be00c1
:103820002000200080009800920098000000060010
:10383000680447000294be000094be00fc044700e8
:103840008694be008494be0009007800d1ff070072
:1038500008007800cfff070099007800814f7000c2
:103860000b003b000800be002e0107004f00b10016
:1038700003003700f3ff2700f2ff2f006110b900ab
:103880004f06be004f05be004f04be000080fa0088
:1038900000000600889fbe00830478000300e0005b
:1038a0002c00350003003c0000827000040271000f
:1038b0002600320036432000c50020008383cf005d
:1038c0000a0039000541b1008283cf0007003900aa
:1038d0000541b1008183cf00040039000541b100ea
:1038e0008083cf00010039000541b10085c353003a
:1038f0006022b800120032000a003b00848272008d
:10390000610260008301d1000281d3008180d30075
:103910000080d3000603e8008743e800f7ff3a0081
:103920000700370000004000818048000201490084
:10393000838149000603e9008743e900f9ff3a0063
:103940009800070009f0a70003f0a0004f04be0094
:103950000000060060001000e080180060011900ff
:10396000e0811900d3ff3b00033e2c00f7ff370036
:103970002800fa00889fbe008a9fbe008c9fbe0070
:1039800007067800878669000c003b000304780076
:103990008704780008f0a10009f0a100840f50000e
:1039a000858f5800860f5900890f5c000300330093
:1039b0000cf0a20001003a000cf0a1009cff0700ef
:1039c0006400e1005f003200780147006408e10014
:1039d000610032006c014700748557003200be0060
:1039e0001201be003a04be001a05be001e0390007c
:1039f000be0a90008503530006003d000004fd0050
:103a00008104fd000205fd008305fd008703ea0037
:103a1000050378000df8a3000400320060041400d0
:103a2000e0841c0060051d00e0851d006022b800d8
:103a30007d0320000d38e1008006eb000b0039000b
:103a40004433dd00f300b200830173003900370016
:103a5000848272000d027800e10664008b85d1003b
:103a60000a85d3008984d3000884d3008703e90042
:103a7000f7ff3b0008004000898048000a01490028
:103a80008b81490004003b0060001000e0801800ba
:103a900060011900e08119000358a30009003200f9
:103aa0008d82720084827200610260008301d10005
:103ab0000281d3008180d3000080d3000603e80098
:103ac0001b0037000348a30017003a000600e0007f
:103ad000170034000603e9000d00a30000004800b1
:103ae0008180480002014900838149000348a30006
:103af0000f003a000600e000090034000603e90068
:103b00000000400081804800020149008381490093
:103b100001003a000003eb000348a300f5ff320068
:103b20006022b80002003700848272006182660061
:103b30001c00070003f0a1000cf0a70003f0a00098
:103b40004fff3700640147006408e10002003a00bb
:103b50000df8a30047ff3a003200be001201be007c
:103b600047ff37006022b800060220000000d000a6
:103b70008180d2000482d2008582d2000000a000a1
:103b80000202520083825a00030031000202420006
:103b900083824a000000a1000603e900f3ff3a0017
:103ba0000000060018002000570020000804530001
:103bb0000d003d000600200097fc2f000740e100ab
:103bc0001e00340084827200610260008301d10013
:103bd0000281d3008180d3000080d3000804e80074
:103be000f8ff3a00470020006104600005047400fb
:103bf000040464000d00320061004000e0804800d1
:103c000060014900e081490003b8a50007003200c7
:103c10000603e8006538e10004003a008301d100a2
:103c20000281d3008180d3000080d300f87f200080
:103c30000830e10003003500080378006000b80098
:103c40006011b8004433dd00f300b200830173005b
:103c500000000600889fbe008a9fbe008c9fbe00a9
:103c60000404b8000506b8008904460060854e00cb
:103c70000606b8000a054600e0854e000706b800b3
:103c80008b054600040eb800890446000a854e00e4
:103c9000e0854d00050eb8000a0546008b854e00f4
:103ca000060eb8008b0546000416b8000a0546004b
:103cb0008b854e000516b8008b054600041eb80023
:103cc0008b0546000800be000a01be004f06be007c
:103cd0004f05be004f04be000000060005ff270090
:103ce00005826100070032000428e1000100320073
:103cf000240005000600070001003a00440005000a
:103d00000408050002000700f9ff3a00140005004e
:103d10006f8261008102700085027100850272006d
:103d200000000600e48240001078a3000700320083
:103d3000640240001178a3003400be001401be00ec
:103d4000040032000330a700000006003500be006a
:103d50001501be000330a000000006000000fa00bc
:103d600023c2bf000004a2000000fb00610060004d
:103d70000080fa00000006000000fa0033c2bf0015
:103d80000004a2000000fb00610060000080fa0057
:103d9000000006000000fa0021e2a9009560a900d9
:103da0009580a9008560a9008580a9000080fa009f
:103db000000006000000fa0031e2a90097c0a90047
:103dc00097e0a90087c0a90087e0a9000080fa0059
:103dd000000006000200fa00000f78008560a900cc
:103de0008580a9001e007800674060006740600081
:103df00067406000674060004401dd00910a2000d8
:103e000091407800f0c8b30000c06000024070002c
:103e1000a9e0b700000720001e0060004400de009b
:103e20006740600067416000a10a2000914078006f
:103e300080cfb30000c0600002407000aae0b7006d
:103e40009e007800688060004300de0061406000f2
:103e5000614060004301dd0051092000914078007d
:103e600070cfb30000c060000240700095e0b70062
:103e7000000820001e0060004700de006140600076
:103e8000614060004401dd0051092000914078004c
:103e9000f0ceb30000c060000240700095e0b700b3
:103ea0000080fa00000006000200fa00000f78000f
:103eb00087c0a90087e0a9001e0078006740600065
:103ec000674060006740600067416000310b200080
:103ed0009140780080cfb30000c0600002407000c5
:103ee000b3e0b700000720001e0060004400de00c1
:103ef00067406000674060004401dd00310b200036
:103f000091407800f0c8b30000c06000024070002b
:103f1000b3e0b7009e007800688060004300de00d8
:103f200061406000614060004601dd0071092000d1
:103f300091407800f0cbb30000c0600002407000f8
:103f400097e0b700000820001e0060004700de0078
:103f500061406000c700dd0097c0bf000074a10091
:103f60000140700097e0b7000080fa0000000600f2
:103f70000000fa0022c2bf00614060000080fb0028
:103f80000080fa00000006000000fa0032c2bf0004
:103f9000614060000080fb000080fa000000060025
:103fa0000c00fa002007980031079800420798009b
:103fb0000000eb00100798003e009000000f780012
:103fc000230037009e0090004e009000808f50002c
:103fd000040031001e0090000000e8001007980067
:103fe000030037002e009000500798001d00370096
:103ff000dfff07000004e000f2ff32000000eb00ea
:104000001007980020c2bf0066406000e64f5000d5
:1040100007003a00311180003e009000010878004e
:104020003e0090000080e80030079800050037004f
:1040300030118000804078001e0078000148780030
:104040001e0fe8002e0090000000e90020079800f5
:104050002e0090000000e000e5ff3a002e009000e6
:10406000500798005e0090000080fa0000000600f3
:104070000c00fa00200798003107980042079800ca
:104080000000eb00100798003e009000000f780041
:10409000230037009e0090004e009000808f50005b
:1040a000040031001e0090000000e8001007980096
:1040b000030037002e009000500798001d003700c5
:1040c000b1ff07000004e000f2ff32000000eb0047
:1040d0001007980030c2bf0066406000e64f5000f5
:1040e00007003a00b11180003e00900001087800fe
:1040f0003e0090000080e80030079800050037007f
:10410000b0118000804078001e00780001487800df
:104110001e0fe8002e0090000000e9002007980024
:104120002e0090000000e000e5ff3a002e00900015
:10413000500798005e0090000080fa000000060022
:104140000600fa00000f7800110798002207980077
:104150002e009000401188001e0078000011880099
:104160001e009000101188000080fa000000060078
:104170000600fa00000f7800110798002207980047
:104180002e009000c01188001e0078008011880069
:104190001e009000901188000080fa0000000600c8
:1041a0000400fa00100798001e009000000f78002d
:1041b00023c2bf00624060000004e000fcff3a0040
:1041c00020c2bf0066406000e64f500019003a0070
:1041d0000a0037001e0090001000780020118800af
:1041e0001e0090000080e8001007980023c2bf0066
:1041f000624060000004e000fcff3a001e009000f6
:10420000100078000000e000f2ff3a000d003700d7
:104210001e007800104078000000fb00201188008c
:104220001e0fe80023c2bf00624060000004e000ef
:10423000fcff3a001e007800104078000004e00007
:10424000f3ff3a000080fa00000006000400fa00c4
:10425000100798001e009000000f780033c2bf00c6
:10426000624060000004e000fcff3a0030c2bf0082
:1042700066406000e64f500019003a000a0037001f
:104280001e00900010007800a01188001e00900011
:104290000080e8001007980033c2bf006240600051
:1042a0000004e000fcff3a001e00900010007800bf
:1042b0000000e000f2ff3a000d0037001e00780019
:1042c000104078000000fb00a01188001e0fe800dd
:1042d00033c2bf00624060000004e000fcff3a000f
:1042e0001e007800104078000004e000f3ff3a0060
:1042f0000080fa00000006000200fa0020c2bf00a1
:1043000066406000e64f500003003a003011800024
:10431000000f78000400370031118000f00f2000fa
:1043200080806000010f78001e0078000080fa0095
:10433000000006000200fa0030c2bf0066406000c4
:10434000e64f500003003a00b0118000000f7800e3
:1043500004003700b1118000f00f20008080600061
:10436000010f78001e0078000080fa0000000600af
:104370000200fa00000f780023c2bf006240600014
:104380000004e000fcff3a0020c2bf00664060006d
:10439000e64f500003003a001e007800201188000c
:1043a00003003700f00f20001e006000201188007d
:1043b0000080fa00000006000200fa00000f7800fa
:1043c00033c2bf00624060000004e000fcff3a001e
:1043d00030c2bf0066406000e64f500003003a0064
:1043e0001e007800a011880003003700f00f2000a5
:1043f0001e006000a01188000080fa000000060086
:020000040000fa
:0200000401f009
:04000c00faff0000f7
:020000040000fa
:0200000401f009
:040010003eff0000af
:020000040000fa
:0200000401f009
:040014007fff00006a
:020000040000fa
:10000800e4440000823c0000983c0000ae3c000044
:10001800c43c0000e4440000e4440000e444000060
:10002800e4440000e4440000e4440000e444000028
:10003800e4440000e4440000e4440000e444000018
:10004800e4440000e4440000e444000000440000ec
:100058009e430000e4440000e4440000e44400003f
:10006800e4440000d8390000e4440000e4440000ff
:10007800e4440000e4440000e4440000e4440000d8
:10008800e4440000e4440000e4440000e4440000c8
:10009800e4440000e44400003e4400003c43000007
:1000a800e4440000e4440000e4440000e4440000a8
:1000b800e4440000e4440000e4440000e444000098
:1000c800e4440000e4440000e4440000e444000088
:1000d800e4440000e4440000e4440000e444000078
:1000e800e4440000e4440000e4440000e444000068
:1000f800e4440000e4440000e4440000e444000058
:10010800e4440000e4440000e4440000e444000047
:10011800e4440000e4440000e4440000e444000037
:10012800e4440000e4440000e4440000e444000027
:10013800e4440000e4440000e4440000e444000017
:10014800e4440000e4440000e4440000e444000007
:10015800e4440000e4440000e4440000e4440000f7
:10016800e4440000e4440000e4440000e4440000e7
:10017800e4440000e4440000e4440000e4440000d7
:10018800e4440000e4440000e4440000e4440000c7
:10019800e4440000e4440000e4440000e4440000b7
:1001a800e4440000e4440000e4440000e4440000a7
:1001b800e4440000e4440000e4440000e444000097
:1001c800e4440000e4440000e4440000e444000087
:1001d800e4440000e4440000e4440000e444000077
:1001e800e4440000e4440000e4440000e444000067
:0801f800e4440000e4440000af
:020000040000fa
:10020800e4440000823c0000983c0000ae3c000042
:10021800c43c0000e4440000e4440000e44400005e
:10022800e4440000e4440000e4440000e444000026
:10023800e4440000e4440000e4440000e444000016
:10024800e4440000e4440000e444000000440000ea
:100258009e430000e4440000e4440000e44400003d
:10026800e4440000d8390000e4440000e4440000fd
:10027800e4440000e4440000e4440000e4440000d6
:10028800e4440000e4440000e4440000e4440000c6
:10029800e4440000e44400003e4400003c43000005
:1002a800e4440000e4440000e4440000e4440000a6
:1002b800e4440000e4440000e4440000e444000096
:1002c800e4440000e4440000e4440000e444000086
:1002d800e4440000e4440000e4440000e444000076
:1002e800e4440000e4440000e4440000e444000066
:1002f800e4440000e4440000e4440000e444000056
:10030800e4440000e4440000e4440000e444000045
:10031800e4440000e4440000e4440000e444000035
:10032800e4440000e4440000e4440000e444000025
:10033800e4440000e4440000e4440000e444000015
:10034800e4440000e4440000e4440000e444000005
:10035800e4440000e4440000e4440000e4440000f5
:10036800e4440000e4440000e4440000e4440000e5
:10037800e4440000e4440000e4440000e4440000d5
:10038800e4440000e4440000e4440000e4440000c5
:10039800e4440000e4440000e4440000e4440000b5
:1003a800e4440000e4440000e4440000e4440000a5
:1003b800e4440000e4440000e4440000e444000095
:1003c800e4440000e4440000e4440000e444000085
:1003d800e4440000e4440000e4440000e444000075
:1003e800e4440000e4440000e4440000e444000065
:0803f800e4440000e4440000ad
:020000040000fa
:1044000000000000000000000000000000000000ac
:10441000004900006e69000074690000616c0000d2
:1044200069730000696e000067200000414e0000c3
:10443000414c00004f4700000a0d000000490000f9
:104440006e69000074690000616c0000697300000f
:10445000696e00006720000053500000490a000008
:104460000d000000496e00006974000069610000e1
:104470006c690000736900006e670000204900004d
:10448000324300000a0d000000570000616900007f
:10449000746900006e670000206600006f72000003
:1044a000204900004d5500000a0d000000490000a1
:1044b0004d550000204900007320000052650000a7
:1044c00061640000793a000020250000730a0000b2
:1044d0000d250000635b0000324a0000002500004b
:1044e000635b0000324a0000256300005b3b000074
:1044f000484200006f610000726400002025000047
:10450000730a000045520000202500002b2e0000f9
:1045100032660000202500002b2e000032660000cd
:10452000202500002b2e0000326600000a45000006
:1045300046200000252b00002e32000066200000df
:10454000252b00002e32000066200000252b0000e5
:104550002e320000660a00004143000020250000c2
:104560002b2e000032660000202500002b2e0000bc
:1045700032660000202500002b2e0000326600006d
:104580000a47000052200000252b00002e320000b8
:1045900066200000252b00002e320000662000005f
:1045a000252b00002e320000660a00004d47000057
:1045b000202500002b2e0000326600002025000080
:1045c0002b2e000032660000202500002b2e00005c
:1045d000326600000a41000054200000252b000034
:1045e0002e32000066200000252b00002e32000035
:1045f000660a0000434c0000202500002b2e00001e
:1046000032660000202500002b2e000032660000dc
:10461000202500002b2e0000326600000a0000005a
:1046200042530000202500002b2e000032660000bf
:10463000202500002b2e00003266000020250000ff
:104640002b2e0000326600000a51000054200000aa
:10465000252b00002e33000065200000252b0000d4
:104660002e33000065200000252b00002e330000b3
:1046700065200000252b00002e330000650a000095
:044680000000000036
:020000040000fa
:104684000400fa00204798000040eb00004f780037
:10469400ae40900000c1b300c50c0700004f780085
:1046a4001e00fb000080fa00000006000400fa006f
:1046b40020479800314798000040eb00004f7800f5
:1046c4003e419000ae40900000c1b300100d0700c1
:1046d400004f78001e00fb000080fa000000060076
:1046e4000c00fa0010079800210798000000eb0066
:1046f400000f78002e0090000000e00003003a0054
:10470400e0ff2f00500798001c0037001000200025
:10471400300798000a0037003e00900080007800bf
:104724001e00900000804000104078000080fb00d4
:104734001e0f40003e0090000000e8003007980083
:10474400be0090002e009000808f5000f2ff3900d0
:10475400f00f20001e0f60001e00e0000300320076
:104764000080eb0040079800020037000000eb00d7
:10477400400798004e009000500798005e0090009b
:104784000080fa00000006001800fa00200f9800cc
:10479400e3004700a3c0b30042c7b30000c1b300a5
:1047a400a70c0700204798002e4090000004e0006a
:1047b400040032002e4090000000fb00300f9800ef
:1047c4001d00370063004700a1002000c4ff07005c
:1047d400204798002e4090000004e00004003200be
:1047e4002e4090000000fb00300f980012003700ac
:1047f4000000eb00000f7800090037001e0078006d
:10480400800078002e089000008140009e00e8009f
:104814006300470061407800004978001e0fe800fb
:10482400700020009e0f1000f4ff34002e40900012
:104834000000fb00300f98003e0890000080fa0052
:10484400000006000600fa00100798000040eb0084
:10485400004f7800e3c0b300e2c0b3009e009000b4
:1048640000c1b300760c0700004f78001e04e0007e
:10487400030032001e00fb00200798000b003700e5
:104884001e009000e100200095ff0700004f780013
:104894001e04e000030032001e00fb002007980005
:1048a400020037000000eb00200798002e00900063
:1048b4000080fa00000006000600fa0010079800c5
:1048c4000040eb00004f7800e3c0b3000041eb0070
:1048d4009e00900000c1b300590c0700004f7800ff
:1048e4001e04e000030032001e00fb0020079800b5
:1048f4000b0037001e009000e100200078ff070045
:10490400004f78001e04e000030032001e00fb008c
:1049140020079800020037000000eb0020079800f1
:104924002e0090000080fa00000006000600fa0045
:10493400100798000040eb00004f7800e3c0b3007c
:10494400c2c1b3009e00900000c1b3003c0c07003c
:10495400004f78001e04e000050032009e407800fd
:104964006ac050000000fb00200798000d003700cb
:104974001e009000e100200059ff0700004f78005e
:104984001e04e00005003200e0ccb3001e404000ed
:104994000000fb0020079800020037000000eb0035
:1049a400200798002e0090000080fa000000060006
:1049b4000600fa00100798000040eb00004f780052
:1049c400e3c0b300a2c2b3009e00900000c1b300d4
:1049d4001b0c0700004f78001e04e00003003200a7
:1049e4001e00fb00200798000b0037001e009000fb
:1049f400e10020003aff0700004f78001e04e000a9
:104a0400030032001e00fb0020079800020037005c
:104a14000000eb00200798002e0090000080fa00b0
:104a2400000006000600fa00100798000040eb00a2
:104a3400004f7800e3c0b30082c3b3009e0090002f
:104a440000c1b300fe0b0700004f78001e04e00015
:104a5400030032001e00fb00200798000b00370003
:104a64001e009000e10020001dff0700004f7800a9
:104a74001e04e000030032001e00fb002007980023
:104a8400020037000000eb00200798002e00900081
:104a94000080fa00000006000600fa0010079800e3
:104aa4000040eb00004f780063c0b30062c4b30061
:104ab4009e00900000c1b300e10b0700004f780096
:104ac4001e04e000030032001e00fb0020079800d3
:104ad4000b0037001e0090006100200000ff07005b
:104ae400004f78001e04e000030032001e00fb00ab
:104af40020079800020037000000eb002007980010
:104b04002e0090000080fa00000006000600fa0063
:104b1400100798000040eb00004f780063c0b3001a
:104b2400c2c4b3009e00900000c1b300c40b0700d0
:104b3400004f78001e04e000030032001e00fb005a
:104b4400200798000b0037001e0090006100200031
:104b5400e3fe0700004f78001e04e000030032006b
:104b64001e00fb0020079800020037000000eb0045
:104b7400200798002e0090000080fa000000060034
:104b84000600fa00100798000040eb00004f780080
:104b940043c1b30002c6b3009e00900000c1b3003d
:104ba400a70b0700004f78001e04e0000500320048
:104bb4009e4078006ac050000000fb002007980067
:104bc4000d0037001e00900041012000c4fe0700c4
:104bd400004f78001e04e00005003200e0ccb30072
:104be4001e4040000000fb00200798000200370030
:104bf4000000eb00200798002e0090000080fa00cf
:104c0400000006000600fa00100798000040eb00c0
:104c1400004f7800e3c0b30022c5b3009e009000ab
:104c240000c1b300860b0700004f78001e04e000ab
:104c3400030032001e00fb00200798000b00370021
:104c44001e009000e1002000a5fe0700004f780040
:104c54001e04e000030032001e00fb002007980041
:104c6400020037000000eb00200798002e0090009f
:104c74000080fa00000006000600fa001007980001
:104c84000040eb00004f780023c1b30062c6b300bc
:104c94009e00900000c1b300690b0700004f78002c
:104ca4001e04e000030032001e00fb0020079800f1
:104cb4000b0037001e0090002101200088fe070031
:104cc400004f78001e04e000030032001e00fb00c9
:104cd40020079800020037000000eb00200798002e
:104ce4002e0090000080fa00000006000200fa0086
:104cf400000f7800e0c0b30061fe07008040780038
:104d04001e007800014878001e0fe800f0c0b300d0
:104d14005bfe0700804078001e00780001487800a0
:104d24001e0fe80000c1b30055fe07008040780064
:104d34001e007800014878001e0fe80010c1b3007f
:104d44004ffe0700804078001e007800014878007c
:104d54001e0fe80020c1b30049fe07008040780020
:104d64001e007800014878001e0fe80030c1b3002f
:104d740043fe0700804078001e0078000148780058
:104d84001e0fe80040c1b3003dfe070080407800dc
:104d94001e007800014878001e0fe80050c1b300df
:104da40037fe0700804078001e0078000148780034
:104db4001e0fe80060c1b30031fe07008040780098
:104dc4001e007800014878001e0fe80070c1b3008f
:104dd4002bfe0700804078001e0078000148780010
:104de4001e0fe80080c1b30025fe07008040780054
:104df4001e007800014878001e0fe80090c1b3003f
:104e04001ffe0700804078001e00780001487800eb
:104e14001e0fe800a0c1b30019fe0700804078000f
:104e24001e007800014878001e0fe800b0c1b300ee
:104e340013fe0700804078001e00780001487800c7
:104e44000080fa0000000600cc00fa0050a7980089
:104e54000000eb00000f78005ea09000610060008d
:104e64000004e0002b0032000e80e80075fe07000d
:104e74000000fb001e0f70000e80e800104190003f
:104e84000e80e800204290000e80e800b0409000c0
:104e94000e80e80040409000824178000441780090
:104ea4006a05070000408800114088000e80e80071
:104eb400504190000e80e800604290000e80e800af
:104ec400f04090000e80e800004890008241780095
:104ed400044178005d0507002040880031408800c7
:104ee4000e80e800104990000e80e800204a9000ef
:104ef4000e80e800b04890000e80e8004048900022
:104f04008241780004417800500507004040880041
:104f1400514088005ea090004800de0061006000ff
:104f24000004e0002b0032000e80e80062fe07005f
:104f34000000fb001e0f70000e80e800104190007e
:104f44000e80e800204290000e80e800b0409000ff
:104f54000e80e800404090008241780004417800cf
:104f64003a05070060408800714088000e80e80020
:104f7400504190000e80e800604290000e80e800ee
:104f8400f04090000e80e8000048900082417800d4
:104f9400044178002d050700804088009140880076
:104fa4000e80e800104990000e80e800204a90002e
:104fb4000e80e800b04890000e80e8004048900061
:104fc400824178000441780020050700a040880051
:104fd400b14088005ea090000000d1006100600034
:104fe4000004e0002b0032000e80e8004ffe0700b2
:104ff4000000fb001e0f70000e80e80010419000be
:105004000e80e800204290000e80e800b04090003e
:105014000e80e8004040900082417800044178000e
:105024000a050700c0408800d14088000e80e800cf
:10503400504190000e80e800604290000e80e8002d
:10504400f04090000e80e800004890008241780013
:1050540004417800fd040700e0408800f140880026
:105064000e80e800104990000e80e800204a90006d
:105074000e80e800b04890000e80e80040489000a0
:105084008241780004417800f00407000041880060
:10509400114188005ea090004200de0061006000c3
:1050a4000004e0002b0032000e80e80040fe070000
:1050b4000000fb001e0f70000e80e80010419000fd
:1050c4000e80e800204290000e80e800b04090007e
:1050d4000e80e8004040900082417800044178004e
:1050e400da04070060418800714188000e80e800fe
:1050f400504190000e80e800604290000e80e8006d
:10510400f04090000e80e800004890008241780052
:1051140004417800cd040700804188009141880053
:105124000e80e800104990000e80e800204a9000ac
:105134000e80e800b04890000e80e80040489000df
:105144008241780004417800c0040700a04188002f
:10515400b14188005ea090004300de006100600061
:105164000004e0002b0032000e80e800a5fe0700da
:105174000000fb001e0f70000e80e800104190003c
:105184000e80e800204290000e80e800b0409000bd
:105194000e80e8004040900082417800044178008d
:1051a400aa04070040418800514188000e80e800ad
:1051b400504190000e80e800604290000e80e800ac
:1051c400f04090000e80e800004890008241780092
:1051d400044178009d040700a0418800b141880083
:1051e4000e80e800104990000e80e800204a9000ec
:1051f4000e80e800b04890000e80e800404890001f
:10520400824178000441780090040700a04088009f
:10521400b14088005ea090004400de0061006000a0
:105224000004e0002b0032000e80e800fdfd0700c2
:105234000000fb001e0f70000e80e800104190007b
:105244000e80e800204290000e80e800b0409000fc
:105254000e80e800404090008241780004417800cc
:105264007a04070020428800314288000e80e8005a
:10527400504190000e80e800604290000e80e800eb
:10528400f04090000e80e8000048900082417800d1
:10529400044178006d0407004042880051428800b0
:1052a4000e80e800104990000e80e800204a90002b
:1052b4000e80e800b04890000e80e800404890005e
:1052c400824178000441780060040700604288004d
:1052d400714288005ea090004500de00610060001d
:1052e4000004e000110032000e80e80007fe070011
:1052f4000000fb001e0f70000e80e80010419000bb
:105304000e80e800204290000e80e800b04090003b
:105314000e80e8004040900082417800044178000b
:105324004a04070040418800514188005ea0900073
:105334004600de00610060000004e000110032005d
:105344000e80e800d4fd07000000fb001e0f700073
:105354000e80e800104190000e80e800204290008a
:105364000e80e800b04090000e80e80040409000bd
:1053740082417800044178003404070080428800a8
:10538400914288005ea090004700de00610060004a
:105394000004e000380032000e80e80036fe07000a
:1053a4000000fb001e0f70000e80e800104190000a
:1053b4000e80e800204290000e80e800b04090008b
:1053c4000e80e8004040900082417800044178005b
:1053d4001e040700a0428800b14288000e80e80045
:1053e400504190000e80e800604290000e80e8007a
:1053f400f04090000e80e800004890008241780060
:105404000441780011040700c0428800d14288009a
:105414000e80e800104990000e80e800204a9000b9
:105424000e80e800b04890000e80e80040489000ec
:10543400824178000441780004040700e0428800b7
:10544400f14288000e80e800504990000e80e80088
:10545400604a90000e80e800f04890000e80e8005a
:10546400005090008241780004417800f70307005f
:1054740000438800114388001e0078000080fa0071
:10548400000006000e00fa0040079800510798003b
:105494004e0090000000e800300798000000eb0088
:1054a400100798004e0090005efd07000000fb000e
:1054b400000f78001e00e0000400320080f32f008b
:1054c4001e004000600798002d0037004e00900039
:1054d40010407800e14f500003003e000000eb0054
:1054e40060079800260037004e00900010407800b6
:1054f4000080fb000080e9000080d10010079800c4
:105504000000eb0020079800170037003e009000d1
:10551400104078008081fb003e0090000000e8000d
:10552400300798003e009000104078000081fb0096
:105534003e0090000000e800300798002e00900024
:1055440000004000800078005e00900080804000f1
:105554004810dd0003007000800878002e009000e1
:105564000000e80020079800ae0090001e009000a4
:10557400808f5000e5ff39001e00900060079800fe
:105584006e0090000080fa00000006000c00fa0093
:1055940010079800210798000000eb00000f780026
:1055a4002e0090000000e00003003a00e0ff2f000e
:1055b400500798001c0037001000200030079800a6
:1055c4000a0037003e009000800078001e00900022
:1055d40000804000104078000080fb001e0f400057
:1055e4003e0090000000e80030079800be009000e4
:1055f4002e009000808f5000f2ff3900f00f200041
:105604001e0f60001e00e000030032000080eb006b
:1056140040079800020037000000eb0040079800a4
:105624004e009000500798005e0090000080fa0041
:10563400000006000a00fa001007980021079800ed
:10564400320798000040eb00004f78003e009000c5
:10565400804178002e0090008040780000c8b3009c
:1056640000c04000004178009e00900000c1b300db
:10567400f3080700004f78001e04e0000500320024
:1056840000c8b3001e4070000000fb0040079800f3
:105694000d003700be0090001e009000bbff070005
:1056a400004f78001e04e0000500320000c4b3007f
:1056b4001e4070000000fb00400798000200370005
:1056c4000000eb00400798004e0090000080fa00b4
:1056d400000006000600fa00200798002e00900043
:1056e40063004000104078000080fb0001002000af
:1056f400008fbe001e00be004809dd00c801de00a8
:10570400830171004801dd002e0090000080e80054
:10571400104078000080fb0001002000001f4100c1
:10572400019749001e00be004809dd00c801de00e3
:10573400830171004801dd002e0090000000e800a4
:10574400104078000080fb0001002000001f410091
:10575400019749001e00be004809dd00c801de00b3
:10576400830171004801dd002e0090001040780094
:105774000080fb0001002000001f41000197490048
:105784001e00be000080fa00000006001000fa00af
:10579400881f780050079800610798000040eb00cc
:1057a400004f78006e0090000000e0000600320018
:1057b4000e00e800820020008000eb009dff07003f
:1057c400004f7800050037000e00e800820020003a
:1057d4008100200097ff0700004f78001e04e000be
:1057e400030032001e00fb007007980031003700f0
:1057f4000e00e800204090000080fb00c800dd009f
:105804000e00e800104090000080fb000080700053
:10581400cf80de0001f407000200200043bb230018
:10582400aff307005e0190000089be005e009000a7
:10583400640440000e00e800404090000080fb003b
:10584400c800dd000e00e800304090000080fb003e
:1058540000807000cf80de00f0f30700020020001b
:1058640043bb23009ef30700008cbe005e00900043
:10587400680440000e00e800604090000080fb00d7
:10588400c800dd000e00e800504090000080fb00de
:1058940000807000cf80de00e0f3070002002000eb
:1058a40043bb23008ef30700008cbe000000eb0016
:1058b400700798007e0090004f0478000080fa0082
:1058c400000006000e00fa00881f780050079800b8
:1058d4000040eb00004f78000e00e800820020003a
:1058e4000101200053ff0700004f78001e04e00070
:1058f400030032001e00fb006007980031003700ef
:105904000e00e800204090000080fb00c800dd008d
:105914000e00e800104090000080fb000080700042
:10592400cf80de00bdf30700020020000320240026
:1059340047f407005e0190000089be005e009000fd
:10594400640440000e00e800404090000080fb002a
:10595400c800dd000e00e800304090000080fb002d
:1059640000807000cf80de00acf30700020020004e
:105974000320240036f40700008cbe005e00900073
:10598400680440000e00e800604090000080fb00c6
:10599400c800dd000e00e800504090000080fb00cd
:1059a40000807000cf80de009cf30700020020001e
:1059b4000320240026f40700008cbe000000eb0046
:1059c400600798006e0090004f0478000080fa0091
:1059d400000006000e00fa00881f780050079800a7
:1059e4000040eb00004f78000e00e8008200200029
:1059f400810120000fff0700004f78001e04e00023
:105a0400030032001e00fb006007980031003700dd
:105a14000e00e800204090000080fb00c800dd007c
:105a24000e00e800104090000080fb000080700031
:105a3400cf80de0079f307000200200043cb23006f
:105a440027f307005e0190000089be005e0090000d
:105a5400640440000e00e800404090000080fb0019
:105a6400c800dd000e00e800304090000080fb001c
:105a740000807000cf80de0068f307000200200081
